:020000040800F2
:10000000283A0020A10100083F030008C7020008A9
:100010003D030008310200089909000800000000B3
:1000200000000000000000000000000009010008BE
:1000300033020008000000004D010008191C0008F0
:10004000BB010008BB010008BB010008BB010008A0
:10005000BB010008BB010008BB010008BB01000890
:10006000BB010008BB010008BB010008BB01000880
:10007000BB010008BB010008BB010008BB01000870
:10008000BB010008BB010008BB010008BB01000860
:10009000BB010008BB010008BB010008BB01000850
:1000A000BB010008BB010008BB010008BB01000840
:1000B000BB010008BB010008BB010008BB01000830
:1000C000BB010008BB010008BB010008BB01000820
:1000D000BB010008BB010008BB010008BB01000810
:1000E000BB010008BB010008BB010008BB01000800
:1000F000BB010008DFF80CD000F088F8004800478A
:10010000390B0008283A0020224B19680868B0E82B
:10011000F00F80F30988BFF36F8F4FF0000080F37A
:1001200011884EF00D0E7047000000000648006870
:10013000006880F3088862B661B6BFF34F8FBFF3E3
:100140006F8F00DF00BF00BF08ED00E0EFF3098014
:10015000BFF36F8F0F4B1A6820E9F00F106008B5DE
:100160004FF0500080F31188BFF34F8FBFF36F8FB4
:1001700001F0D0FC4FF0000080F31188BDE808408A
:1001800019680868B0E8F00F80F30988BFF36F8F33
:10019000704700BF48000020EFF305807047000063
:1001A0000648804706480047FEE7FEE7FEE7FEE711
:1001B000FEE7FEE7FEE7FEE7FEE7FEE709080008C8
:1001C000F500000840EA01039B0703D009E008C9D5
:1001D000121F08C0042AFAD203E011F8013B00F80C
:1001E000013B521EF9D27047D2B201E000F8012B58
:1001F000491EFBD270470022F6E710B513460A46A7
:1002000004461946FFF7F0FF204610BD064C074D87
:1002100006E0E06840F0010394E8070098471034D6
:10022000AC42F6D3FFF76AFF94250008B425000816
:10023000FEE77047F0B5002301244FF0030E00BF26
:100240000D6804FA03F21540954222D106685D005C
:100250000EFA05FC0F7926EA0C06AF40374307601B
:100260000E79012E01D0022E0CD186684F7926EA34
:100270000C06AF4037438760868896438A799A4058
:1002800032438280C668CA7926EA0C06AA40324305
:10029000C2605B1C102BD3D3F0BD4B07DB0E9A4022
:1002A000C90810B500EB8100016A0F249C40A143EE
:1002B0000162016A1143016210BD41837047828A65
:1002C0004A4082827047FEE71CB520200090032040
:1002D0008DF804000020064C8DF807006946204682
:1002E000FFF7A8FF20212046FFF7E7FF1CBD000015
:1002F000000402401CB50121022000F083F82020F8
:10030000009001208DF8040000208DF806000321E4
:100310008DF80510054C8DF8070069462046FFF75B
:1003200089FF20212046FFF7C8FF1CBD00040240C2
:1003300020210148FFF7C3BF00040240FEE77047D9
:100340000249084302490860704700000000FA05AE
:100350000CED00E010B500F057FA00F02DF94FF465
:10036000E13000F01BFBFFF7C5FFBDE8104001A026
:1003700000F05EBB0A0D706F73742073746F702B86
:100380002B2B2B2B2B2B2B2B2B2B2B2B2B0000003E
:1003900010B505A000F04CFBFFF796FF0121BDE86A
:1003A0001040084600F00EB80A0D70726520737494
:1003B0006F702D2D2D2D2D2D2D2D2D2D2D2D2D2DE8
:1003C000200000000A4B1A6822F0030202431A6060
:1003D0000848026842F004020260012905D020BFEB
:1003E000016821F004010160704730BFF8E70000A8
:1003F0000070004010ED00E0014908627047000005
:1004000000000E42044A0029116801D0014300E0B7
:1004100081431160704700001C380240044A0029E3
:10042000116801D0014300E0814311607047000072
:1004300024380240044A0029116801D0014300E039
:10044000814311607047000018380240044A0029B7
:10045000116801D0014300E0814311607047000042
:1004600020380240044A0029116801D0014300E00D
:1004700081431160704700001438024030B5254AAE
:100480001168A2F1040411F00C034FF4004105D0EF
:10049000042B09D0082B09D00C2B09D02368C3F3F7
:1004A00042335B1C994018E01B4916E01B4914E0DD
:1004B0001168136801F47011194C03F4400304EB44
:1004C00091410978012404EB9353146814F4803F9C
:1004D0001DD0124C6143B1FBF3F1016011680F2391
:1004E00003EA11110E4B09335C5C0168E140416085
:1004F0001468072505EA14241C5D21FA04F48460BD
:10050000126805EAD2229A5CD140C16030BD024C2B
:10051000E0E70000083802400024F40000127A00EE
:100520000C000020014600204A09012A09D0064A91
:10053000126801F01F0101238B40134200D00120FB
:100540007047014A343AF3E7343802400249002246
:100550000A70087070470000353802400149086091
:1005600070470000D8064742C0F30141032907D174
:10057000094A116821F0C04300F0C04119431160DD
:10058000054934310A6822F440320A600A6800F4EE
:10059000403002430A60704700380240C0F3100048
:1005A00040F08000C1430348026802F0800211431A
:1005B000016070470C28004030B585B0002401214F
:1005C000049408070394FFF729FF0120FFF714FFA5
:1005D000002000F07FF840F60A25A84224D0012030
:1005E000FFF7B4FF4920FFF79DFF0028FAD04FF432
:1005F0008030FFF7B9FFFF2003907F200490012097
:10060000FFF7ACFF00F070F8049801900398029097
:100610000094684600F036F82946002000F088F87B
:1006200000F062F805B030BD00F05EF84FF4807065
:10063000FFF7B4FFF6E7000008B5002000900C4873
:100640000168490612D44FF0FF310160431401687C
:10065000009A01F04001521C00929A4201D00029F8
:10066000F5D00068400601D4002008BD012008BD77
:100670000C2800400248016821F0800101607047A9
:100680000C28004070B5124D04460026CA20286090
:1006900053202860FFF7D0FFA8B10D481C3801682F
:1006A00021F040010160016822681143016008489F
:1006B000A168143801600168A28841EA0241016022
:1006C000FFF7D8FF0126FF202860304670BD0000EC
:1006D0002428004008B5034901EB80000090006821
:1006E00008BD00005028004018B500200F490090B8
:1006F000CA200860532008600C481838026822F0AD
:10070000A0020260C4130268009B02F020025B1C7E
:100710000093A34201D0002AF5D00068800601D5DD
:10072000012000E00020FF220A6018BD24280040BC
:1007300008B5034A02EB80000090016008BD00008C
:10074000502800400CB500202C49019000900A6808
:1007500042F480320A604FF4A0430A6802F4003287
:100760000092019A521C0192009A12B9019A9A427F
:10077000F3D10A6892033FD5012000902048026817
:1007800042F004020260026842F002020260026863
:1007900042F00102026019482430026842F080529F
:1007A0000260C214174802604268D206FCD41348A3
:1007B0000830026802600268026002680260026833
:1007C00022F47D020260026842F4110202600A68AB
:1007D00042F080720A600A689201FCD5016821F03B
:1007E00003010160016841F0030101600168C1F388
:1007F00081010329FAD10CBD00900CBD00380240E4
:10080000003C024000700040104810B5016841F4FF
:10081000807101600D4908310A680D4B1A400A6069
:1008200002680C4B1A400260026822F480220260C7
:10083000086820F47D000860091D00200860FFF7AB
:1008400081FF05494FF00060086010BD003802408C
:100850000CC0FF88FEFFFEEE08ED00E0C9430180FA
:1008600070470029818902D041F4005101E021F450
:100870000051818170470000174910B588420AD1A4
:1008800001218C032046FFF7EDFD2046BDE8104016
:100890000021FFF7E7BD1149884202D101214C0434
:1008A00010E00F49884202D101218C040AE00D4971
:1008B000884202D10121CC0404E00B4988420AD1CC
:1008C00001210C052046FFF7B5FD2046BDE810408C
:1008D0000021FFF7AFBD10BD0038014000440040CB
:1008E00000480040004C0040005000407FB50446E6
:1008F000008A0D4620F44051E88808432082A089F0
:1009000041F20C618843A9882A8911436A8902430C
:100910001143A181A08A20F44071A8890843A082D4
:100920006846FFF7ABFD1948844201D1039800E007
:100930000298A189090400EBC00101EB00102968AD
:1009400001D5490000E08900B0FBF1F06422B0FB62
:10095000F2F109010B096FF018056B4300EB8300FE
:10096000A3891D044FF0320306D503EBC000B0FB92
:10097000F2F000F0070005E003EB0010B0FBF2F02E
:1009800000F00F00084320817FBD000000380140C7
:10099000C1F3080181807047FEE7000070B504468E
:1009A000012186B00846FFF72DFD01218803FFF7DE
:1009B0004DFD1D4D2846FFF75FFF00940024ADF864
:1009C00008400C20194EADF80440ADF80A00ADF80F
:1009D0000640ADF80C40072209213046FFF75DFCC8
:1009E00007220A213046FFF758FC4FF4C0600490FC
:1009F00002208DF8140003208DF815008DF81640A4
:100A00008DF8174004A93046FFF714FC69462846C4
:100A1000FFF76CFF01212846FFF723FF40212846FE
:100A2000FFF71CFF06B070BD003801400000024017
:100A3000014A024900F013B8B10A0008C8000020BA
:100A400002E008C8121F08C1002AFAD17047704797
:100A5000002001E001C1121F002AFBD170472DE9DF
:100A6000F04116460F460446002503E03946B047DC
:100A7000641C6D1C20780028F8D12846BDE8F08160
:100A800009490120096809B1002070470749CA696E
:100A9000002AF9D1044A896828321268491E8A421C
:100AA000F3D10220704700009C0100204800002084
:100AB00070B5054C0546C1B22046FFF769FF208896
:100AC0000006FCD5284670BD003801401CB5104911
:100AD0000120CDE90001002380220EA10F4801F082
:100AE0001FFB0B490520091DCDE9000100238022D1
:100AF0000BA10D4801F014FB054903200831CDE995
:100B000000010023802209A10A4801F009FB1CBD55
:100B1000000000207461736B310000005114000864
:100B20007461736B32000000791400087461736B98
:100B300033000000A514000800F078FCFFF7C6FFA2
:100B400002A0FFF775FF00F083FFFEE773746D33BB
:100B5000324C31787820696E6974206F6B2E0000FA
:100B60002DE9F041184C0F460546E6682068001D47
:100B700000F0AEFC38B9206890F82C1001208840B5
:100B8000216981432161681C07D137B12168BDE823
:100B9000F0410E48091D00F002BD20683544B54201
:100BA0004560216805D2A06BBDE8F041091D00F049
:100BB000DEBC606B091D00F0DAFCA06A854200D241
:100BC000A562BDE8F081000048000020C4010020BB
:100BD0002DE9F041054600F0EFFC2E4CA068401CCA
:100BE000A06020682C4F10B1606940B32DE02560F3
:100BF000A068012829D1002606EB860007EB8000BB
:100C000000F0A7FC761C062EF6D32348783000F0BF
:100C1000A0FC21488C3000F09CFC1F48A03000F064
:100C200098FC1D48B43000F094FC1B48C83000F01C
:100C300090FC1948783060631430A06305E02068A8
:100C4000E96AC06A884200D82560606A401C606218
:100C50006864E96A0120226988401043206101EB41
:100C6000810007EB8000291D00F099FC00F0CCFC0E
:100C7000606900280CD02068E96AC06A884207D2FF
:100C800006494FF080500860BFF34F8FBFF36F8F5E
:100C9000BDE8F08148000020FC00002004ED00E0E9
:100CA00010B500F089FC0E4C2068A0B90D4800F08A
:100CB00050FC0C48143000F04CFC0A48E060143042
:100CC0002061002210210A2000F0BCFF206010B13A
:100CD00005A100F0B9FDBDE8104000F095BC000092
:100CE00084000020D8010020546D725100000000E3
:100CF00070B5114E114C17E000F004FF3068B8B128
:100D000001F04EFB00F058FCF068C568281D00F0AB
:100D1000DFFBA068401EA0606068401E606000F0BD
:100D200073FC284600F055F860680028E4D170BDD7
:100D300001F036FBF8E70000B00100204800002079
:100D400030B4026C0B46002A0BD0C1681144C1605C
:100D50004468A14201D30168C16030BC1846FFF766
:100D600031BA30BC70472DE9F041856B1746044617
:100D70000026026C82B1C7B1E068FFF723FAE16890
:100D8000206C091AE1602268914202D26168081A57
:100D9000E060022F16D017E02068A8B9606801F063
:100DA0006DFA0646002060600EE0A068FFF70AFAC0
:100DB000216CA0680844A0606168884204D3206860
:100DC000A06001E005B16D1E6D1CA5633046BDE855
:100DD000F08110B50446006B00F034FC2046BDE8FD
:100DE000104000F02FBC00000A4800210269012ACF
:100DF00000D901210268D26A0AB100207047064A70
:100E00001268012AF9D80029F7D1816AC068081A46
:100E10007047000048000020FC00002010484FF4FC
:100E20002051420706D0C01D0D4920F00700411A8D
:100E3000C1F520510B4A00230144C2E900030839DF
:100E4000103A21F0070111604B600B600B1AC0E9EA
:100E5000001393604FF000405360D0607047000073
:100E600028020020C00000200F4C40F68C4500BF37
:100E7000FFF73EFF00F03EFBFFF7B6FF0528F7D374
:100E800000F040FEA06AE168884203D207A128462C
:100E900000F050FBFFF7A8FF052801D300F030FC5D
:100EA00001F07EFAE4E700004800002072746F73DE
:100EB0005C7461736B732E63000000002DE9F047D2
:100EC0000E46DDE909841746824691009946089D41
:100ED000A522206BFFF788F96FF00301206B01EB6F
:100EE0008701084420F00707780704D0194940F229
:100EF0002B3000F01FFB00202218315C82F83410E8
:100F0000315C11B1401C1028F6D3002684F84360F0
:100F1000062D00D30525E562C4E91356201D00F017
:100F200023FB04F1180000F01FFB2461C5F106004B
:100F30006462A061666584F858604A465146384646
:100F400000F062FA2060B8F1000F01D0C8F800404C
:100F5000BDE8F0873C1A000830B5114900E01146A1
:100F60000A688242FBD34B685C18844203D1406814
:100F700018444860084643681C18944209D1084C3C
:100F8000103C2468A24209D052681A4442600A68A0
:100F900012680260814200D0086030BD0460F9E749
:100FA000C000002070B5002441600B4D00619142EB
:100FB00006D8D11A8269914206D2011D286907E03C
:100FC0009A4203D2994201D3012403E0011DE8684B
:100FD00000F0CDFA204670BD8400002010B5044614
:100FE00000F0EAFAA06B28B15FF0000400F00CFBFF
:100FF000204610BD0124F9E770B588B02E4E50E0B0
:101000000498002806DADDE90601059A904704985D
:10101000002846DB069C606910B1201D00F058FADC
:1010200002A800F0BDF8054604980A2839D2DFE886
:1010300000F0050505382535050538250598A16911
:10104000034601442A462046FFF7ACFF28B3616AF5
:1010500020468847E069012823D1002000900598A8
:10106000A169002342181946204601F059FAA0B997
:1010700012A140F2213000F05DFA12E00598A06163
:1010800020B90EA14FF44E7000F054FAA0692B461F
:1010900041191A462046FFF785FF02E0204600F07E
:1010A000D1FA00231A4604A9306800F0F9FD00289F
:1010B000A6D108B070BD00008400002072746F7368
:1010C0005C74696D6572732E630000002DE9FC414C
:1010D0000F46054600F016FD01A800F061F8044631
:1010E000019818B101F05CF9BDE8FC81214EAFB167
:1010F00030690068D0B30027291B3A46306800F0F9
:10110000B7FB01F04DF90028EED11B494FF080509C
:101110000860BFF34F8FBFF36F8FE5E7A542EBD8B1
:1011200001F03EF9F0682746C068C468201D00F051
:10113000CFF9E069012815D1A0692B4641193A463B
:101140002046FFF72FFF68B10020034601460090BC
:101150002A46204601F0E4F920B908494FF402700C
:1011600000F0E8F9616A20468847BDE7FFE70127FC
:10117000C2E700008400002004ED00E0B82400086D
:101180000648416B096829B1416BC968C96849685B
:10119000816270474FF0FF31FAE7000048000020FD
:1011A00070B5054600F0F6FF064E0446B06884426E
:1011B00003D200F009F8012000E00020286020465A
:1011C000B46070BD84000020F8B5174D24E0C068FD
:1011D000C4680668201D00F07BF9616A20468847D4
:1011E000E069012818D1A0693044B04206D92461D1
:1011F0006060211DE86800F0BAF90DE000200346A8
:10120000014600903246204601F08AF920B907498C
:1012100040F2923000F08EF9E86801680029D6D1DA
:101220002969C5E90310F8BD84000020B82400082E
:1012300007484068401C03D006A1F42000F07AF96A
:10124000502080F31188BFF34F8FBFF36F8FFEE7FD
:101250009800002072746F735C706F727461626CBE
:10126000655C706F72742E6300000000074CE068CC
:10127000016841B1C0680021D0F80000FFF726FFE7
:10128000FFF7BAFEF3E701210020F7E78400002012
:101290002DE9F041044600F08FF994F9455004F12E
:1012A000240609E0606A48B1304601F035F808B11B
:1012B00000F02AFB6D1E6DB2002DF3DC4FF0FF36FF
:1012C00084F8456000F0A0F900F076F994F94450F4
:1012D00004F1100709E0206948B1384601F01CF814
:1012E00008B100F011FB6D1E6DB2002DF3DC84F827
:1012F0004460BDE8F04100F087B900002DE9F041FD
:101300000546002700F0FEFB304E306808B9FFF7B5
:1013100085FDF06805424CD1002D4AD0083568079C
:101320000AD005F00700C0F108000544680703D0A3
:1013300027A1BF2000F0FEF8DDB37068854238D8E1
:101340002248103001460C6801E020460C466168D6
:10135000A94202D221680029F7D13168B0468C42F7
:1013600027D007682168016060680837401B102893
:101370000DD96619700703D015A1EC2000F0DAF83A
:101380006068401B706030466560FFF7E5FD62688D
:10139000D8F804104046891AC8F80410D8F8083064
:1013A000994200D28160D8F80C0002430020C4E9C1
:1013B000000200F0F5FF780704D005A14FF4967005
:1013C00000F0B8F83846BDE8F0810000B000002019
:1013D00072746F735C706F727461626C655C4D6582
:1013E0006D4D616E675C686561705F342E630000EF
:1013F0000449086818B10868026D521C0265086843
:10140000704700004800002010B5031F4FF08074A3
:101410001C601B1F21F001011960191F024B0B609A
:10142000143940380A6010BD3112000810B5FFF7BA
:10143000EBF94FF44070FEF783FF4FF4E130FFF714
:10144000ADFAFEF757FFBDE81040FFF7B5B8000052
:101450004FF4FA6403A0FFF7EBFA204600F02AFAF3
:10146000F8E700000A0D74686973206973207461DD
:10147000736B312E0000000040F2DC5404A0FFF733
:10148000D7FAFEF755FF204600F014FAF6E7000001
:101490000A0D74686973206973207461736B322E4E
:1014A000000000004FF47A7404A0FFF7C1FAFEF7C1
:1014B0003FFF204600F0FEF9F6E700000A0D7468D1
:1014C0006973206973207461736B332E0000000010
:1014D000D0E9013201699A60D0E901235A604A6873
:1014E000824201D182684A60002202610868401E7F
:1014F000086070477047502080F31188BFF34F8F0A
:10150000BFF36F8FFEE7000010B50020084A0123EB
:1015100002EBC0010C7934B90C6824B10C68641E6C
:101520000C6000D10B71401CC0B20628F0D310BD76
:10153000CC00002008B50020009000F03DF801E04C
:1015400000BF00BF00980028FAD0BDE8084000F0B6
:101550005BB800F108014FF0FF32C0E90112C16031
:10156000016100210160704700210161704730B5C1
:101570000B685A1C02D000F1080202E0026904E084
:101580002246546825689D42FAD953684B60996099
:101590008A60516008610168491C016030BD426881
:1015A0004A6093688B609368596091600861016834
:1015B000491C016070470000502080F31188BFF380
:1015C0004F8FBFF36F8F08494868401C486001285F
:1015D00009D10648006810F0FF0F04D004A14FF4B1
:1015E000BD70FFF7A7BF70479800002004ED00E032
:1015F00072746F735C706F727461626C655C706F33
:1016000072742E630000000010B5074C606820B9AA
:1016100006A140F28110FFF78DFF6068401E6060F8
:1016200001D180F3118810BD9800002072746F738F
:101630005C706F727461626C655C706F72742E6343
:101640000000000070B5002828D0154DA0F1080456
:101650006068E968084204D112A14FF4A070FFF756
:1016600069FF206820B10FA140F24110FFF762FF2F
:101670006168E868014211D02268002A0ED18143D6
:10168000616000F03FFA606869680844686020465D
:10169000FFF762FCBDE8704000F082BE70BD000044
:1016A000B000002072746F735C706F727461626C52
:1016B000655C4D656D4D616E675C686561705F343A
:1016C0002E6300000C486FF07F430C4902684FF412
:1016D0007A70B2FBF0F0B3FBF0F3B2FBF2F2C1E9C7
:1016E00002032D23B3FBF2F20A614FF0E021401E0A
:1016F00048610720086170472800002098000020FA
:101700002DE9F041364E0546F068854200D9054680
:101710004FF0E024206920F001002061A169B26847
:10172000681E02FB00173069874200D93F1A72B663
:10173000BFF34F8FBFF36F8FFFF7A2F968B16761F7
:101740004FF00008C4F81880206940F001002061C3
:10175000FFF796F902280CD011E0A06960612069BA
:1017600040F001002061B068401E606162B6BDE8D3
:10177000F0812846FEF70CFE2846FEF7EBFD2069B7
:1017800020F00101216162B6C0030DD5A069B168E6
:10179000381A081A3269401E904201D3884200D993
:1017A000481E60616D1E09E0B168A0694D43281AAA
:1017B000B0FBF1F56A1C4A43101A6061C4F8188046
:1017C000FFF7FAFE206940F001002061284600F092
:1017D0007DF9B068401E6061BDE8F041FFF714BFBD
:1017E0009800002010B5FEF7D7FC0F4C10280BD343
:1017F00000F1E02090F8F0032178884204D20BA198
:1018000040F2B120FFF796FE0E480068616900F4CF
:10181000E060884206D9BDE8104004A140F2C12032
:10182000FFF788BE10BD00009800002072746F732F
:101830005C706F727461626C655C706F72742E6341
:10184000000000000CED00E010B5084B002200BFC6
:1018500053F832401CB1521C052AF9D310BD43F88D
:10186000321003EBC201486010BD000000020020EE
:1018700070B515460E460446FFF79EFE94F94410D7
:101880000020491C01D184F8440094F94510491CFA
:1018900001D184F84500FFF7B7FEA06B28B92A46AE
:1018A000314604F1240000F055F82046BDE87040B0
:1018B000FFF7EEBC10B5040011D00D48006B20B14D
:1018C0000CA140F2CF40FFF735FE00F01BF90021DC
:1018D0002046FFF745F900F063FD002807D10949CC
:1018E0004FF080500860BFF34F8FBFF36F8F10BD74
:1018F0004800002072746F735C7461736B732E63A5
:101900000000000004ED00E001490120C8617047BB
:101910004800002070B50D46040004D108A140F62F
:101920000630FFF707FE0A48016820461831FFF726
:101930001EFE2846BDE870400121FFF711B90000E6
:1019400072746F735C7461736B732E6300000000BC
:101950004800002070B514460D46060004D10AA1C7
:1019600040F63130FFF7E6FD0B480168304618318C
:10197000FFF715FE0CB14FF0FF3521462846BDE8B4
:101980007040FFF7EDB8000072746F735C746173A0
:101990006B732E63000000004800002070B5040047
:1019A00039D01D4DE06A2968C96A884233D2A069DE
:1019B000002804DB2868C06AC0F10600A061E16A63
:1019C000164E01EB8101606906EB810188421FD14F
:1019D000201DFFF77DFD012150B9E06A00EB800278
:1019E00056F8222022B92A6901FA00F082432A61BE
:1019F0002868C06AE0622A6981401143296100EBCE
:101A0000800006EB8000211DBDE87040FFF7C7BDD8
:101A10002868C06AE06270BD48000020FC00002019
:101A200010B5040004D105A140F6C130FFF782FDD6
:101A30000648016A2160C068606010BD72746F73EF
:101A40005C7461736B732E6300000000480000201B
:101A50001CB516480024CDE900402346402214A1BD
:101A6000154800F05DFB012803D100F02DFD012891
:101A700008D0401C19D1BDE81C4010A140F2847070
:101A8000FFF758BD502080F31188BFF34F8FBFF38D
:101A90006F8F06484FF0FF312C3881620121416180
:101AA000C460BDE81C4000F07DB81CBD740000207F
:101AB00049444C4500000000690E000872746F73C1
:101AC0005C7461736B732E630000000070B5084C8A
:101AD0000546E068A16A2844884204D905A140F679
:101AE0007110FFF727FDE0682844E06070BD00003A
:101AF0004800002072746F735C7461736B732E63A3
:101B0000000000000248016B491C0163704700009F
:101B10004800002070B51D4C206B10B10120E06121
:101B200070BD0020E06120684FF0A531006B0268B5
:101B30008A4208D142688A4205D182688A4202D12B
:101B4000C068884204D0216820683431FFF7D3FC94
:101B500020690F4DB0FA80F0C0F11F0000EB800645
:101B600055F8260020B90BA140F6F620FFF7E2FC5D
:101B700005EB860000F10802416849684160914226
:101B800001D149684160C868206070BD48000020EC
:101B9000FC00002072746F735C7461736B732E634E
:101BA000000000001CB5194908780190FF2008705A
:101BB00008788DF800009DF80000154C00F05000EA
:101BC00020700720606105E09DF8002052008DF82C
:101BD0000020401E9DF800201206F5D4000200F4FB
:101BE000E0606061019808700A48016841F4700182
:101BF0000160016841F070410160FFF763FD002062
:101C00006060FEF793FA00201CBD000000E400E0D5
:101C10009800002020ED00E010B5502080F31188DE
:101C2000BFF34F8FBFF36F8F00F0BAFA18B10449BA
:101C30004FF080500860002080F3118810BD000034
:101C400004ED00E02DE9F04117460E46050004D1F1
:101C50000FA14FF4C470FFF76DFCAEB105FB06F0A9
:101C60005030FFF74BFB04000CD004F150006EB174
:101C70002060C4E90F562046012100F0C7F8204635
:101C800084F84C70BDE8F0810020E9E72460F0E7BB
:101C900072746F735C71756575652E63000000006A
:101CA0002DE9FF4F002683B09B468A46040004D1ED
:101CB00051A140F2DC40FFF73DFCBAF1000F06D124
:101CC000206C20B14CA140F2DD40FFF733FC00F066
:101CD00053FA30B9059820B147A14FF49C60FFF743
:101CE00029FCDFF824814FF000094FF0805700BF36
:101CF000FFF762FCA56B4DB351462046E668FFF73F
:101D00001FF8BBF1000F14D0E660606A58B104F10F
:101D1000240000BF00F000FB28B1C8F80070BFF33A
:101D20004F8FBFF36F8FFFF76FFC012007B0BDE847
:101D3000F08F6D1EA563206810B9FFF759FB606036
:101D400020690028EFD004F11000E3E7059808B1FE
:101D50001EB106E0FFF758FC27E06846FFF760FE7B
:101D60000126FFF751FCFFF7CDFEFFF725FC94F9A4
:101D70004400401C01D184F8449094F94500401C73
:101D800001D184F84590FFF73FFC05A9684600F0B3
:101D90008FF9002820460AD0FFF77AFA00F000FBFE
:101DA0002046FFF71BF90028A2D00020BEE7FFF76E
:101DB00015F9D8B1206830B9FFF7FEFB6068FFF76E
:101DC000EDFDFFF721FC04F124000599FFF7A2FDCA
:101DD0002046FFF75DFA00F0E3FA002888D1C8F842
:101DE0000070BFF34F8FBFF36F8F81E72046FFF77F
:101DF0004FFA00F0D5FA7BE772746F735C7175650A
:101E000075652E630000000004ED00E070B50D461E
:101E1000040004D11DA140F21B10FFF78BFBFFF75C
:101E2000CBFBD4E90F20216802FB00116160002187
:101E3000A1632168A1600A46D4E90F01401E00FB9E
:101E40000121E16021464FF0FF3001F8440F487056
:101E500004F1100055B1FFF77CFB04F12400FFF7FB
:101E600078FB00BFFFF7D0FB012070BD216900297E
:101E7000F8D000F051FA0028F4D008494FF0805013
:101E80000860BFF34F8FBFF36F8FEBE772746F7310
:101E90005C71756575652E630000000004ED00E05F
:101EA0002DE9FF4782B01D468A464FF00008040026
:101EB00004D14CA140F2D920FFF73CFBBAF1000F4E
:101EC00006D1206C20B147A140F2DA20FFF732FBA7
:101ED000022D07D1E06B012804D042A140F2DB20A3
:101EE000FFF728FB00F048F930B9049820B13DA174
:101EF00040F2DE20FFF71EFB3E4F4FF000094FF08F
:101F0000805600BFFFF758FBA06BE16B884207D3F8
:101F1000022D05D00498D0B1B8F1000F1AD01EE000
:101F20002A4651462046FEF71EFF616A19B104F1A8
:101F3000240000F0F1F920B13E60BFF34F8FBFF3F2
:101F40006F8FFFF761FB012006B0BDE8F087FFF758
:101F50005BFB22E06846FFF763FD4FF00108FFF7E7
:101F600053FBFFF7CFFDFFF727FB94F94400401C1C
:101F700001D184F8449094F94500401C01D184F8C3
:101F80004590FFF741FB04A9684600F091F830B195
:101F90002046FFF77DF900F003FA0020D4E7FFF7B1
:101FA0000BFBA06BE16B884213D1FFF72DFB04F113
:101FB00010000499FFF7AEFC2046FFF769F900F026
:101FC000EFF900289ED13E60BFF34F8FBFF36F8FB4
:101FD00098E7FFF719FB2046FFF75AF900F0E0F900
:101FE00090E7000072746F735C71756575652E63A0
:101FF0000000000004ED00E02DE9F0471F46904688
:102000008946040004D126A140F29F30FFF792FADE
:10201000B9F1000F06D1206C20B121A14FF46870F6
:10202000FFF788FA022F07D1E06B012804D01CA12A
:1020300040F2A130FFF77EFAFFF7D4FB5020EFF318
:10204000118680F31188BFF34F8FBFF36F8FA06BA2
:10205000E16B884206D3022F04D0002086F311885A
:10206000BDE8F08794F945503A4649462046FEF7C8
:102070007AFE681C04D06D1C84F845500120EDE701
:10208000606A0028FAD004F1240000F045F9002825
:10209000F4D0B8F1000FF1D00121C8F80010EDE73D
:1020A00072746F735C71756575652E630000000056
:1020B00070B50D46040004D114A140F6CB30FFF7F3
:1020C00039FA25B911A140F6CC30FFF733FAFFF702
:1020D00073FA124AD1682868431C0FD02368126A29
:1020E000934202D062688A420AD96268891A8142A0
:1020F00006D2401A28602046FFF792FC002400E038
:102100000124FFF781FA204670BD000072746F73DE
:102110005C7461736B732E63000000004800002044
:102120002DE9FF5F8346DDE90E87994616468A460C
:102130009000FFF7E3F805001AD05C20FFF7DEF807
:10214000040012D025630021CDE90241CDE90087CA
:102150004B46324651465846FEF7B0FE2046FEF743
:1021600037FD012004B0BDE8F09F2846FFF76AFA6A
:102170004FF0FF30F6E700000548416919B1006BE8
:1021800018B10020704701207047022070470000FE
:10219000480000200148C068704700004800002047
:1021A0002DE9F0412F4C0027206B18B1A069401C8D
:1021B000A0614FE0E668761CE66010D1606B0068B5
:1021C00020B129A140F6D910FFF7B4F9606BA16BDB
:1021D0006163A063206A401C2062FEF7D1FFA06A01
:1021E000DFF89480864209D3606B006890B1606B21
:1021F000C068C568686886420FD2A0622068C06A5D
:1022000000EB800158F82100012800D90127A069BE
:1022100000B321E04FF0FF30EFE7281DFFF758F93A
:10222000A86A18B105F11800FFF752F9E86A012110
:10223000226981401143216100EB800108EB81009C
:10224000291DFFF7ACF9E86A2168C96A8842CBD337
:102250000127C9E7FFF758F9E06900B101273846BF
:10226000BDE8F0814800002072746F735C74617384
:102270006B732E6300000000FC00002070B50400AA
:102280004FF000063AD01E4D2868844204D01DA1AC
:1022900040F6C760FFF74EF9206D20B919A140F64E
:1022A000C960FFF747F9206D401E2065E26CE16AC6
:1022B000914223D010BB201DFFF70AF9154A0121D6
:1022C00050B9E06A00EB800352F8233023B92B6940
:1022D00001FA00F083432B61E06CE062C0F106007C
:1022E000A061E06A2B6981401943296100EB8000FD
:1022F00002EB8000211DFFF752F90126304670BD28
:102300004800002072746F735C7461736B732E638A
:1023100000000000FC0000202DE9F041C068C46806
:1023200024B919A140F66130FFF704F904F118004F
:102330000746FFF7CDF8184D286B012660B1174806
:10234000394600BFFFF72BF9E06A2968C96A88425D
:1023500013D90124EE6111E0201DFFF7B9F8E16AFD
:102360002A6906FA01F01043286101EB81000B494C
:10237000A03901EB8000211DE4E70024FEF700FFF7
:102380002046BDE8F081000072746F735C74617365
:102390006B732E6300000000480000209C010020A9
:1023A0002DE9F0472B4C00252E46206B20B92AA1A1
:1023B0004FF4FD60FFF7BEF8FFF7FEF8206B401EFC
:1023C0002063206BE8BBA168274F0120C9B3A7F1A8
:1023D000A00980463868E8B1F868C56805F11800BA
:1023E000FFF776F8281DFFF773F8E86A226908FA04
:1023F00000F11143216100EB800109EB8100291DEF
:10240000FFF7CDF8E86A2168C96A8842E2D3C4F8C8
:102410001C80DFE70DB1FEF7B3FEA56945B1474665
:10242000FFF7BEFE00B1E7616D1EF9D10020A0618B
:10243000E06930B10D49012630070860BFF34F8FC6
:1024400000E001E0BFF36F8FFFF7DEF83046BDE834
:10245000F08700004800002072746F735C74617331
:102460006B732E63000000009C01002004ED00E06F
:102470002DE9F0470746994616460D462C20DDF813
:1024800020A0FEF73BFF040013D0B8464F46D146CC
:1024900025B909A14FF4C670FFF74CF8FEF700FC10
:1024A00004F11801C4F8008081E8E002201DFFF764
:1024B0005BF82046BDE8F08772746F735C74696DD9
:1024C0006572732E630000001CB50024FEF7E8FB64
:1024D0000B48006860B10A490520091DCDE90001DB
:1024E0000023802207A10948FFF71AFE040004D147
:1024F00007A140F23310FFF71DF820461CBD000075
:1025000084000020546D7220537663006D12000821
:1025100072746F735C74696D6572732E6300000072
:102520002DE9FF479946DDF830A090460E4607009A
:102530004FF0000404D112A14FF4D370FEF7FAFF5C
:10254000134D286880B1CDE900680297062E11DA94
:10255000FFF712FE02284FF0000309D0002269465F
:102560002868FFF79DFC044604B02046BDE8F087CC
:102570005246F4E700234A466946FFF73DFDF2E77D
:1025800072746F735C74696D6572732E6300000002
:1025900084000020B425000800000020CC000000CA
:1025A000400A000880260008CC0000205C390000AA
:1025B000500A0008000000000000000000000000B9
:1025C000030406080C10182030000000000102036C
:1025D0000401020304060708090000000048E8019E
:1025E000030406080C101820300000000000000052
:1025F00000010203040607080900000000000000B3
:1026000000000000000000000000000000000000CA
:1026100000000000000000000000000000000000BA
:1026200000000000000000000000000000000000AA
:10263000000000000000000000000000000000009A
:10264000000000000000000000000000000000008A
:10265000AAAAAAAA000000000000000000000000D2
:10266000000000000000000000000000000000006A
:10267000000000000000000000000000000000005A
:04000005080000F5FA
:00000001FF
