:020000040800F2
:10000000283A0020A1010008E305000805050008C2
:10001000E1050008710300082D0F00080000000032
:1000200000000000000000000000000009010008BE
:1000300073030008000000004D01000811280008AB
:10004000BB010008BB010008BB010008710B0008E0
:10005000BB010008BB010008BB010008BB01000890
:10006000BB010008BB010008BB010008BB01000880
:10007000BB010008BB010008BB010008BB01000870
:10008000BB010008BB010008BB010008BB01000860
:10009000BB010008BB010008BB010008BB01000850
:1000A000BB010008BB010008BB010008BB01000840
:1000B000BB010008BB010008BB010008BB01000830
:1000C000BB010008BB010008BB010008BB01000820
:1000D000BB010008BB010008BB010008BB01000810
:1000E00075030008BB010008BB010008BB01000844
:1000F000BB010008DFF80CD000F0CCF80048004746
:100100008D140008283A0020224B19680868B0E8CE
:10011000F00F80F30988BFF36F8F4FF0000080F37A
:1001200011884EF00D0E7047000000000648006870
:10013000006880F3088862B661B6BFF34F8FBFF3E3
:100140006F8F00DF00BF00BF08ED00E0EFF3098014
:10015000BFF36F8F0F4B1A6820E9F00F106008B5DE
:100160004FF0500080F31188BFF34F8FBFF36F8FB4
:1001700002F0C6FA4FF0000080F31188BDE8084095
:1001800019680868B0E8F00F80F30988BFF36F8F33
:10019000704700BF44000020EFF305807047000067
:1001A0000648804706480047FEE7FEE7FEE7FEE711
:1001B000FEE7FEE7FEE7FEE7FEE7FEE79D0D00082F
:1001C000F500000840EA01039B0703D009E008C9D5
:1001D000121F08C0042AFAD203E011F8013B00F80C
:1001E000013B521EF9D27047D2B201E000F8012B58
:1001F000491EFBD270470022F6E710B513460A46A7
:1002000004461946FFF7F0FF204610BD10B504461E
:1002100004E00B7800F8013B03B1491C521EF8D2F0
:10022000204610BD421C10F8011B0029FBD1801A8A
:1002300070472DE9F05F0546002092469B468846B0
:100240000646814640241BE0284641464746224652
:1002500000F041F853465A46C01A914110D3114656
:100260001846224600F028F82D1A67EB01084F4681
:1002700022460120002100F01FF817EB00094E4133
:10028000201EA4F10104DFDC484631462A464346DD
:10029000BDE8F09F064C074D06E0E06840F0010322
:1002A00094E8070098471034AC42F6D3FFF726FFD6
:1002B0008C310008AC310008202A04DB203A00FA17
:1002C00002F1002070479140C2F1200320FA03F3AD
:1002D000194390407047202A04DB203A21FA02F0AB
:1002E0000021704721FA02F3D040C2F12002914070
:1002F0000843194670473EB500F026F8012108462C
:1003000000F02AFA0F21002000F0D2FC4FF4004048
:10031000002400908DF804400C208DF80500012584
:100320008DF80650684600F069F828208DF808001E
:1003300009208DF809008DF80A408DF80B5002A8AD
:1003400000F050F93EBD00001CB50121084600F048
:10035000DFF94FF40040009000208DF804008DF884
:1003600007006946014800F081F81CBD000002400A
:10037000FEE7704738B54FF40044204600F034F8EB
:10038000012818D1204600F029F80B4C20680028DD
:1003900011D00AA000F016FE6946206802F052F85B
:1003A0000098002807D00C494FF080500860BFF338
:1003B0004F8FBFF36F8F38BD000000200A0D5461CE
:1003C000736B315F48616E646C6520495152206ED9
:1003D0006F7469667900000004ED00E0014908606F
:1003E0007047000014040140034A014600201268CF
:1003F0000A4200D0012070471404014030B51A4968
:100400008379026853B30B6893430B600A1D13682A
:100410000468A343136002790A4413680468234301
:100420001360114A083213680468A3431360131D54
:100430001C680568AC431C604479102C05D021442D
:100440000A68006802430A6030BD116804682143ED
:100450001160196800680143196030BD00790844D3
:1004600001689143016030BD00040140F0B50023F4
:1004700001244FF0030E00BF0D6804FA03F215408B
:10048000954222D106685D000EFA05FC0F7926EA36
:100490000C06AF40374307600E79012E01D0022EC3
:1004A0000CD186684F7926EA0C06AF403743876047
:1004B000868896438A799A4032438280C668CA7990
:1004C00026EA0C06AA403243C2605B1C102BD3D331
:1004D000F0BD4B07DB0E9A40C90810B500EB810058
:1004E000016A0F249C40A1430162016A1143016229
:1004F00010BD02460020128A0A4200D00120704737
:1005000041837047FEE7000002494CF6CC4008608A
:10051000704700000030004000F014B870B5044689
:100520000D4645F2555000F021F8204600F012F833
:10053000284600F015F800F005F8BDE87040FFF718
:10054000E3BF000002494AF6AA2008607047000095
:100550000030004001494860704700000030004012
:100560000149886070470000003000400149086080
:1005700070470000003000401CB520200090032090
:100580008DF804000020064C8DF8070069462046CF
:10059000FFF76CFF20212046FFF7B2FF1CBD0000D3
:1005A000000402401CB50121022000F0B1F8202017
:1005B000009001208DF8040000208DF80600032132
:1005C0008DF80510054C8DF8070069462046FFF7A9
:1005D0004DFF20212046FFF793FF1CBD0004024081
:1005E000FEE7704730B50F22C47801780123FCB1D3
:1005F000144C246801F1E02104F4E064C4F5E064E3
:10060000C4F30724C4F10405E2404478AC40857883
:10061000154025432A0181F80024007800F01F01CD
:100620008B404009800000F1E020C0F8003130BD6F
:1006300001F01F0083404809800000F1E020C0F86D
:10064000803130BD0CED00E00249084302490860EA
:10065000704700000000FA050CED00E010B500F056
:100660009DFB00F03DF94FF4E13000F061FCFFF735
:1006700099FFBDE8104001A000F0A4BC0A0D706F06
:1006800073742073746F702B2B2B2B2B2B2B2B2B1A
:100690002B2B2B2B2B00000010B506A000F092FC9A
:1006A000FFF76AFFFFF738FF0121BDE81040084659
:1006B00000F00EB80A0D7072652073746F702D2DE6
:1006C0002D2D2D2D2D2D2D2D2D2D2D2D20000000EE
:1006D0000A4B1A6822F0030202431A6008480268B3
:1006E00042F004020260012905D020BF016821F018
:1006F00004010160704730BFF8E70000007000405F
:1007000010ED00E0014908627047000000000E4251
:10071000044A0029116801D0014300E081431160BF
:10072000704700001C380240044A0029116801D0BB
:10073000014300E08143116070470000243802400B
:10074000044A0029116801D0014300E0814311608F
:100750007047000018380240044A0029116801D08F
:10076000014300E0814311607047000020380240DF
:10077000044A0029116801D0014300E0814311605F
:10078000704700001438024030B5254A1168A2F1C4
:10079000040411F00C034FF4004105D0042B09D0E0
:1007A000082B09D00C2B09D02368C3F342335B1C00
:1007B000994018E01B4916E01B4914E011681368C2
:1007C00001F47011194C03F4400304EB91410978D2
:1007D000012404EB9353146814F4803F1DD0124C91
:1007E0006143B1FBF3F1016011680F2303EA1111BA
:1007F0000E4B09335C5C0168E140416014680725D9
:1008000005EA14241C5D21FA04F48460126805EAE8
:10081000D2229A5CD140C16030BD024CE0E70000BA
:10082000083802400024F40000127A000A00002078
:10083000014600204A09012A09D0064A126801F03F
:100840001F0101238B40134200D001207047014A51
:10085000343AF3E734380240024900220A70087043
:1008600070470000353802400149086070470000B9
:10087000D8064742C0F30141032907D1094A11684C
:1008800021F0C04300F0C0411943116005493431E3
:100890000A6822F440320A600A6800F440300243D9
:1008A0000A60704700380240C0F3100040F080003A
:1008B000C1430348026802F080021143016070479F
:1008C0000C280040C0F30F1040F08000C1430348E3
:1008D000026802F080021143016070470C2800405A
:1008E00030B585B000240121049408070394FFF774
:1008F0001BFF0120FFF706FF002000F0BFF840F6C5
:100900000A25A84224D00120FFF7A6FF4920FFF7BF
:100910008FFF0028FAD04FF48030FFF7ABFFFF20A5
:1009200003907F2004900120FFF79EFF00F052F912
:1009300004980190039802900094684600F076F8BD
:100940002946002000F0AAF900F044F905B030BDB6
:1009500000F040F94FF48070FFF7A6FFF6E70000C3
:1009600008B5002000900C480168490612D44FF0E9
:10097000FF31016043140168009A01F04001521CEC
:1009800000929A4201D00029F5D00068400601D4B7
:10099000002008BD012008BD0C2800400248016865
:1009A00021F08001016070470C2800400D4A10B50D
:1009B0001268002102F004030A4A383A1268840CD3
:1009C00020FA04F4024003EAD4331A43064B1B68AE
:1009D00003EA101003D00004000C00D001210846E7
:1009E00010BD0000402800400C28004030B50E4DDE
:1009F000CA222A6053222A600B4B0B4A1C3B1C3232
:100A0000002920F00404196800F0040004D02143F8
:100A100019601168014303E0A14319601168814323
:100A20001160FF20286030BD2428004070B5124DB1
:100A300004460026CA20286053202860FFF790FF54
:100A4000A8B10D481C38016821F04001016001681F
:100A50002268114301600848A168143801600168E8
:100A6000A28841EA02410160FFF798FF0126FF20BA
:100A70002860304670BD00002428004008B50349B6
:100A800001EB80000090006808BD00005028004085
:100A90000549CA220A6053220A60034A103A1060CC
:100AA000FF2008607047000024280040FEB5C2B255
:100AB000C2EB42130021C3EB022201EB0211C0F38F
:100AC0000722C2EB021201EB8201C0F30740441877
:100AD000B4F5803F01D31CA033E04FF480152846C5
:100AE000FFF77CFC009500258DF8045008208DF858
:100AF000050001268DF806606846FFF77FFC03209D
:100B00008DF808000C208DF809008DF80A508DF83A
:100B10000B6002A8FFF766FDB5032846FFF7D2FE7B
:100B2000042000F07BF8002000F08CF8601EFFF736
:100B3000AFFF01212846FFF759FF012000F082F89E
:100B400007A000F03FFAFEBD0A0D5254435F536503
:100B5000745F574B5550204572726F720000000051
:100B60000A0D5254435F574B555020697764670014
:100B700038B54FF480442046FFF718FF002819D0FD
:100B80002046FFF79FFEA001FFF728FC0A480068F7
:100B900000280FD0694601F055FC08A000F012FAB9
:100BA0000098002806D00A49A0030860BFF34F8FC1
:100BB000BFF36F8F38BD0000040000200A0D5254AF
:100BC000432069776467206E6F746966790000005E
:100BD00004ED00E018B500200F490090CA2008601D
:100BE000532008600C481838026822F0A002026006
:100BF000C4130268009B02F020025B1C0093A34216
:100C000001D0002AF5D00068800601D5012000E05F
:100C10000020FF220A6018BD24280040084ACA218B
:100C200011605321116006491C390B6823F007033A
:100C30000B600B6803430B60FF20106070470000DF
:100C40002428004018B50021134A0091CA211160E0
:100C50005321116010491C390028086803D040F462
:100C60008060086014E020F4806008600A4818384A
:100C700044140168009B01F004015B1C0093A34233
:100C800001D00029F5D00068400701D4002000E021
:100C90000120FF21116018BD2428004008B5034A37
:100CA00002EB80000090016008BD00005028004069
:100CB00010B58A0721F003040649130F21440F22BF
:100CC0008C689A4094438C608A68984002438A609A
:100CD00010BD0000000001400CB500202C4901901F
:100CE00000900A6842F480320A604FF4A0430A6818
:100CF00002F400320092019A521C0192009A12B939
:100D0000019A9A42F3D10A6892033FD501200090DC
:100D10002048026842F004020260026842F00202C7
:100D20000260026842F00102026019482430026841
:100D300042F080520260C214174802604268D20634
:100D4000FCD413480830026802600268026002683E
:100D50000260026822F47D020260026842F411021D
:100D600002600A6842F080720A600A689201FCD54B
:100D7000016821F003010160016841F00301016095
:100D80000168C1F381010329FAD10CBD00900CBDAB
:100D900000380240003C024000700040104810B58E
:100DA000016841F4807101600D4908310A680D4BFA
:100DB0001A400A6002680C4B1A400260026822F472
:100DC00080220260086820F47D000860091D002070
:100DD0000860FFF781FF05494FF00060086010BD13
:100DE000003802400CC0FF88FEFFFEEE08ED00E078
:100DF000C943018070470029818902D041F4005124
:100E000001E021F40051818170470000174910B5BD
:100E100088420AD101218C032046FFF7A9FC204615
:100E2000BDE810400021FFF7A3BC1149884202D160
:100E300001214C0410E00F49884202D101218C04A9
:100E40000AE00D49884202D10121CC0404E00B499B
:100E500088420AD101210C052046FFF771FC20468B
:100E6000BDE810400021FFF76BBC10BD0038014009
:100E70000044004000480040004C0040005000404A
:100E80007FB50446008A0D4620F44051E8880843A7
:100E90002082A08941F20C618843A9882A891143E4
:100EA0006A8902431143A181A08A20F44071A88974
:100EB0000843A0826846FFF767FC1948844201D1C5
:100EC000039800E00298A189090400EBC00101EB3E
:100ED0000010296801D5490000E08900B0FBF1F05D
:100EE0006422B0FBF2F109010B096FF018056B43A6
:100EF00000EB8300A3891D044FF0320306D503EBFA
:100F0000C000B0FBF2F000F0070005E003EB0010BA
:100F1000B0FBF2F000F00F00084320817FBD00001D
:100F200000380140C1F3080181807047FEE70000EE
:100F300070B50446012186B00846FFF7E9FB0121A0
:100F40008803FFF709FC1D4D2846FFF75FFF00945B
:100F50000024ADF808400C20194EADF80440ADF85F
:100F60000A00ADF80640ADF80C40072209213046D2
:100F7000FFF7AFFA07220A213046FFF7AAFA4FF42B
:100F8000C060049002208DF8140003208DF8150035
:100F90008DF816408DF8174004A93046FFF766FA21
:100FA00069462846FFF76CFF01212846FFF723FF1B
:100FB00040212846FFF71CFF06B070BD00380140F5
:100FC000000002400FB4054B10B503A9044A029873
:100FD00000F018F810BC5DF814FB0000F1120008D6
:100FE000C400002002E008C8121F08C1002AFAD17C
:100FF00070477047002001E001C1121F002AFBD199
:10100000704700002DE9FF4F8DB09B460F46044608
:10101000002606E025280BD05A460F999047641CFD
:10102000761C20780028F5D111B03046BDE8F08F4D
:101030000025A8460122974900E0054314F8013F26
:10104000203B02FA03F00842F7D120782E2817D16E
:1010500014F8010F45F004052A280ED06FF02F0276
:101060002078A0F1300109290AD808EB880102EBA9
:10107000410100EB0108641CF2E757F8048B641C83
:1010800020786C280DD004DC4C2812D06A2811D1AD
:1010900004E074280DD07A280CD10AE045F400153C
:1010A00007E0617845F48015814202D1641C05F5A2
:1010B0008015641C2278692A45D008DC002AB3D048
:1010C000582A67D0632A10D0642A08D13BE0702ADE
:1010D00065D0732A13D0752A5AD0782A5AD0104670
:1010E0005A460F999047761CD1E017F8040B8DF8FB
:1010F000000000208DF80100E946012003E057F8C8
:10110000049B4FF0FF3069074FF0000501D40AE05F
:101110006D1C45450DDA8542FADB19F805100029EA
:10112000F6D106E06D1C8542FCDB19F8051000299C
:10113000F8D12E4404E019F8010B5A460F99904754
:101140006D1EF8D2A3E00A200021CDE90801C5F305
:10115000025002280BD001CFC11700290DDA4FF041
:10116000000CD0EB0C006CEB01012D2308E0FF1DFF
:1011700027F00707F7E80201EFE72B0504D52B233B
:101180008DF8283001233BE0EB0739D02023F7E727
:101190000A2000E010200021CDE9080107E010201E
:1011A000002145F00405CDE908014FF00808C5F31A
:1011B000025002280FD001CF00214FF0000A2B0768
:1011C0001FD5702A0DD0DDE908C38CF0100C5CEA45
:1011D000030C0CD015E0FF1D27F00707F7E802010C
:1011E000EBE740228DF828204FF0010A0BE050EA8F
:1011F000010306D030238DF828308DF829200223F2
:101200009A46582A04D024A20DF120090B9209E035
:1012100026A2F9E7DDE90823FFF70BF80B9B9B5C9F
:1012200009F8013D50EA0102F4D1ADEB090020308C
:101230000890680701D44FF001080899884502DD3D
:10124000A8EB010000E000208046002506E00AA887
:101250005A46405D0F9990476D1C761C5545F6DB4C
:1012600004E030205A460F999047761CB8F10001EF
:10127000A8F10108F5DC05E019F8010B5A460F99B1
:101280009047761C0899481E08900029F4DC641CDD
:10129000C7E60000092801003031323334353637D3
:1012A00038396162636465660000000030313233B2
:1012B0003435363738394142434445460000000052
:1012C00009490120096809B1002070470749CA6926
:1012D000002AF9D1044A896828321268491E8A42D4
:1012E000F3D1022070470000980100204400002044
:1012F00070B5054C0546C1B22046FFF713FE2088A5
:101300000006FCD5284670BD003801401CB50B49CD
:101310000120CDE900010023802209A10A4801F043
:10132000FBFC06490020091DCDE90001034680228F
:1013300006A1084801F0F0FC1CBD000000000020E0
:101340007461736B31000000E11D00086977646708
:10135000000000005913000808B5002060F30F24B6
:1013600060F30704022161F3174423A0FFF72AFE6C
:101370002046FFF79BFBDFF89080DFF89090002479
:101380004FF0FF3B4FF0060A21A0FFF71BFEFFF7CF
:10139000C3F8D8F8040000F08DF8074634B12146B0
:1013A0001EA0FFF70FFE204600F0E4FE5946012084
:1013B00000F0DAFD22A0FFF705FE01F0E9F906468C
:1013C000B9F8000000EB80010AEB4105284600F067
:1013D00059FC044601F0DCF90346324621461EA0C2
:1013E0000095FFF7EFFD3846FEF71CFF0246394631
:1013F0002046FEF70BFFC7E70A0D776B7274632078
:101400007365633A25640000000000200800002096
:101410000A0D6665656420646F6720000A0D6977B0
:1014200064672066726565206275666665722C2049
:10143000636F6E746578742069733A2025730000B9
:101440000A0D69776467207461736B207761697432
:1014500020697271200000000A0D697764672061BD
:1014600070706C792074686520616464722069739F
:101470003A202523782C6170706C79202025642017
:101480002D202564203D20256400000000F092FC02
:10149000FFF73CFF02A0FFF795FD01F0CFF8FEE754
:1014A00073746D33324C31787820696E6974206FB3
:1014B0006B2E000010B510B104461CB107E00548C2
:1014C0000468FAE704A140F68C0000F0CBFD04F1BB
:1014D000340010BD4400002072746F735C7461733B
:1014E0006B732E63000000002DE9F041184C0F468D
:1014F0000546E6682068001D00F06AFD38B92068DE
:1015000090F82C1001208840216981432161681CDA
:1015100007D137B12168BDE8F0410E48091D00F040
:10152000D6BD20683544B5424560216805D2A06B20
:10153000BDE8F041091D00F0B2BD606B091D00F06F
:10154000AEFDA06A854200D2A562BDE8F081000030
:1015500044000020C00100202DE9F041054600F0C4
:10156000C3FD2E4CA068401CA06020682C4F10B119
:10157000606940B32DE02560A068012829D10026CC
:1015800006EB860007EB800000F07BFD761C062E44
:10159000F6D32348783000F074FD21488C3000F0F9
:1015A00070FD1F48A03000F06CFD1D48B43000F005
:1015B00068FD1B48C83000F064FD1948783060634E
:1015C0001430A06305E02068E96AC06A884200D848
:1015D0002560606A401C60626864E96A01202269D3
:1015E00088401043206101EB810007EB8000291D3A
:1015F00000F06DFD00F0A0FD606900280CD02068AF
:10160000E96AC06A884207D206494FF080500860F4
:10161000BFF34F8FBFF36F8FBDE8F0814400002010
:10162000F800002004ED00E010B500F05DFD0E4C68
:101630002068A0B90D4800F024FD0C48143000F0DB
:1016400020FD0A48E06014302061002210210A20A9
:1016500001F0F4F8206010B105A100F08DFEBDE8A6
:10166000104000F069BD000080000020D40100207F
:10167000546D72510000000070B5114E114C17E00E
:1016800001F036F83068B8B101F086FC00F02CFDAE
:10169000F068C568281D00F09BFCA068401EA06093
:1016A0006068401E606000F047FD284600F055F875
:1016B00060680028E4D170BD01F06EFCF8E700001E
:1016C000AC0100204400002030B4026C0B46002A1C
:1016D0000BD0C1681144C1604468A14201D30168C4
:1016E000C16030BC1846FEF76DBD30BC70472DE9B7
:1016F000F041856B174604460026026C82B1C7B1E3
:10170000E068FEF75FFDE168206C091AE16022687D
:10171000914202D26168081AE060022F16D017E0E9
:101720002068A8B9606801F0A5FB0646002060604B
:101730000EE0A068FEF746FD216CA0680844A0609A
:101740006168884204D32068A06001E005B16D1E85
:101750006D1CA5633046BDE8F08110B50446006BF2
:1017600000F008FD2046BDE8104000F003BD000079
:101770000A4800210269012A00D901210268D26ABF
:101780000AB100207047064A1268012AF9D80029D8
:10179000F7D1816AC068081A704700004400002031
:1017A000F800002010484FF42051420706D0C01D19
:1017B0000D4920F00700411AC1F520510B4A0023C2
:1017C0000144C2E900030839103A21F00701116011
:1017D0004B600B600B1AC0E9001393604FF00040A0
:1017E0005360D0607047000024020020BC0000203D
:1017F0000F4C40F68C4500BFFFF73EFF00F008FCA1
:10180000FFF7B6FF0528F7D300F072FFA06AE16882
:10181000884203D207A1284600F024FCFFF7A8FF66
:10182000052801D300F004FD01F0B6FBE4E7000059
:101830004400002072746F735C7461736B732E6369
:10184000000000002DE9F0470E46DDE90984174647
:10185000824691009946089DA522206BFEF7C4FCA4
:101860006FF00301206B01EB8701084420F00707AC
:10187000780704D0194940F22B3000F0F3FB002028
:101880002218315C82F83410315C11B1401C1028F0
:10189000F6D3002684F84360062D00D30525E562C3
:1018A000C4E91356201D00F0F7FB04F1180000F006
:1018B000F3FB2461C5F106006462A061666584F8EB
:1018C00058604A465146384600F062FA2060B8F146
:1018D000000F01D0C8F80040BDE8F08728260008B6
:1018E00030B5114900E011460A688242FBD34B68CB
:1018F0005C18844203D14068184448600846436835
:101900001C18944209D1084C103C2468A24209D00A
:1019100052681A4442600A6812680260814200D02C
:10192000086030BD0460F9E7BC00002070B50024F9
:1019300041600B4D0061914206D8D11A82699142F3
:1019400006D2011D286907E09A4203D2994201D3C9
:10195000012403E0011DE86800F0A1FB204670BDF2
:101960008000002010B5044600F0BEFBA06B28B13B
:101970005FF0000400F0E0FB204610BD0124F9E711
:1019800070B588B02E4E50E00498002806DADDE9E4
:101990000601059A90470498002846DB069C60697A
:1019A00010B1201D00F014FB02A800F0BDF80546A0
:1019B00004980A2839D2DFE800F0050505382535F6
:1019C000050538250598A169034601442A462046A5
:1019D000FFF7ACFF28B3616A20468847E069012819
:1019E00023D1002000900598A169002342181946D0
:1019F000204601F091FBA0B912A140F2213000F085
:101A000031FB12E00598A06120B90EA14FF44E7091
:101A100000F028FBA0692B4641191A462046FFF723
:101A200085FF02E0204600F0A5FB00231A4604A92A
:101A3000306800F031FF0028A6D108B070BD00006A
:101A40008000002072746F735C74696D6572732E10
:101A5000630000002DE9FC410F46054600F048FEFA
:101A600001A800F061F80446019818B101F094FA59
:101A7000BDE8FC81214EAFB130690068D0B30027CA
:101A8000291B3A46306800F08BFC01F085FA0028EB
:101A9000EED11B494FF080500860BFF34F8FBFF36A
:101AA0006F8FE5E7A542EBD801F076FAF06827469C
:101AB000C068C468201D00F08BFAE069012815D1C8
:101AC000A0692B4641193A462046FFF72FFF68B11F
:101AD00000200346014600902A46204601F01CFBE8
:101AE00020B908494FF4027000F0BCFA616A204640
:101AF0008847BDE7FFE70127C2E70000800000201C
:101B000004ED00E0B03000080648416B096829B1D7
:101B1000416BC968C9684968816270474FF0FF31FD
:101B2000FAE700004400002070B5054601F02EF9E8
:101B3000064E0446B068844203D200F009F8012042
:101B400000E0002028602046B46070BD80000020C6
:101B5000F8B5174D24E0C068C4680668201D00F081
:101B600037FA616A20468847E069012818D1A069E0
:101B70003044B04206D924616060211DE86800F05D
:101B80008EFA0DE0002003460146009032462046C2
:101B900001F0C2FA20B9074940F2923000F062FA2F
:101BA000E86801680029D6D12969C5E90310F8BDA4
:101BB00080000020B030000807484068401C03D077
:101BC00006A1F42000F04EFA502080F31188BFF3F4
:101BD0004F8FBFF36F8FFEE79400002072746F7316
:101BE0005C706F727461626C655C706F72742E638E
:101BF00000000000074CE068016841B1C0680021A6
:101C0000D0F80000FFF726FFFFF7BAFEF3E7012147
:101C10000020F7E7800000202DE9F041044600F0A5
:101C200063FA94F9455004F1240609E0606A48B16A
:101C3000304601F06DF908B100F0FEFB6D1E6DB28B
:101C4000002DF3DC4FF0FF3684F8456000F074FAA5
:101C500000F04AFA94F9445004F1100709E02069B1
:101C600048B1384601F054F908B100F0E5FB6D1EAB
:101C70006DB2002DF3DC84F84460BDE8F04100F063
:101C80005BBA00002DE9F0410546002700F030FD69
:101C9000304E306808B9FFF785FDF06805424CD139
:101CA000002D4AD0083568070AD005F00700C0F1BA
:101CB00008000544680703D027A1BF2000F0D2F92F
:101CC000DDB37068854238D82248103001460C6870
:101CD00001E020460C466168A94202D22168002931
:101CE000F7D13168B0468C4227D00768216801607F
:101CF00060680837401B10280DD96619700703D09B
:101D000015A1EC2000F0AEF96068401B7060304611
:101D10006560FFF7E5FD6268D8F804104046891A4F
:101D2000C8F80410D8F80830994200D28160D8F879
:101D30000C0002430020C4E9000201F02DF97807ED
:101D400004D005A14FF4967000F08CF93846BDE838
:101D5000F0810000AC00002072746F735C706F72D1
:101D60007461626C655C4D656D4D616E675C686544
:101D700061705F342E6300000449086818B1086878
:101D8000026D521C02650868704700004400002084
:101D900010B5031F4FF080741C601B1F21F0010160
:101DA0001960191F024B0B60143940380A6010BDCE
:101DB000B91B000810B5FEF7F1FF4FF44070FEF7B5
:101DC00043FC4FF4E130FFF7B3F8FEF7EBFBFEF70F
:101DD00087FDBDE8104040F6FF710620FEF79EBB70
:101DE0001CB50125FEF787FA00244FF0FF3A4FF4A7
:101DF0007A7B2E4E3068FFF75DFB0190306800F073
:101E0000F9F803462A462AA00199FFF7DBF86D1C72
:101E100034B1214631A0FFF7D5F8204600F0AAF9E9
:101E2000394F4FF400465146012000F09DF881469D
:101E3000642000F0D7FA31463846FEF75AFB804658
:101E4000584600F0CFFA31463846FEF752FB0446BA
:101E500049462EA0FFF7B6F8FEF75EFB54EA0804E9
:101E6000E1D100F095FC07462F480621008800EBE1
:101E7000800001EB40063046FFF704FF044600F007
:101E800087FC03463A46214628A00096FFF79AF8B9
:101E90000198FEF7C7F9024620460199FEF7B6F908
:101EA00041F2883000F09EFAA3E700000000002015
:101EB0000A0D746869732069732025732072756E2A
:101EC00074696D653A2025642E206D7920707269E1
:101ED0006F72697479206973202564000A0D667237
:101EE0006565206275666665722C2074686520627F
:101EF000756666657220636F6E74657874206973A9
:101F00003A20257300000000000002400A0D6163C2
:101F100074697665206765742069727120657665DD
:101F20006E743A2025640000080000200A0D7461D8
:101F3000736B31206170706C7920746865206275F4
:101F40006666657220616464722069733A20252395
:101F5000782C206170706C79202564202D202564F8
:101F6000203D20256400000070B50C46064600F0B8
:101F7000BBF8154D2868406D80B92968012081F8AB
:101F800058005CB101212046FFF7AEFA0F494FF02F
:101F900080500860BFF34F8FBFF36F8F00F0CCF815
:101FA00000F0A2F82868446D002034B116B1296809
:101FB000486502E02A68611E5165296881F8580069
:101FC00000F0BAF8204670BD4400002004ED00E0A7
:101FD000D0E9013201699A60D0E901235A604A6868
:101FE000824201D182684A60002202610868401E74
:101FF0000860704710B5044600F076F80CB9034845
:102000000468E46A00F098F8204610BD44000020FF
:102010007047502080F31188BFF34F8FBFF36F8F4D
:10202000FEE7000010B500200C4B012203EBC001BD
:102030000C7934B90C6824B10C68641E0C6000D1B2
:102040000A71401CC0B20628F0D3054801884A1C1A
:102050000280632901D90021018010BDC800002041
:102060000800002008B50020009000F03DF801E0D5
:1020700000BF00BF00980028FAD0BDE8084000F07B
:102080005BB800F108014FF0FF32C0E90112C160F6
:10209000016100210160704700210161704730B586
:1020A0000B685A1C02D000F1080202E0026904E049
:1020B0002246546825689D42FAD953684B6099605E
:1020C0008A60516008610168491C016030BD426846
:1020D0004A6093688B6093685960916008610168F9
:1020E000491C016070470000502080F31188BFF345
:1020F0004F8FBFF36F8F08494868401C4860012824
:1021000009D10648006810F0FF0F04D004A14FF475
:10211000BD70FFF7A7BF70479400002004ED00E0FA
:1021200072746F735C706F727461626C655C706FF7
:1021300072742E630000000010B5074C606820B96F
:1021400006A140F28110FFF78DFF6068401E6060BD
:1021500001D180F3118810BD9400002072746F7358
:102160005C706F727461626C655C706F72742E6308
:102170000000000070B5002828D0154DA0F108041B
:102180006068E968084204D112A14FF4A070FFF71B
:1021900069FF206820B10FA140F24110FFF762FFF4
:1021A0006168E868014211D02268002A0ED181439B
:1021B000616000F09DFA60686968084468602046C4
:1021C000FFF78EFBBDE8704000F0E6BE70BD00007A
:1021D000AC00002072746F735C706F727461626C1B
:1021E000655C4D656D4D616E675C686561705F34FF
:1021F0002E6300000C486FF07F430C4902684FF4D7
:102200007A70B2FBF0F0B3FBF0F3B2FBF2F2C1E98B
:1022100002032D23B3FBF2F20A614FF0E021401ECE
:1022200048610720086170472400002094000020C6
:102230002DE9F041364E0546F068854200D9054645
:102240004FF0E024206920F001002061A169B2680C
:10225000681E02FB00173069874200D93F1A72B628
:10226000BFF34F8FBFF36F8FFFF72AF868B1676135
:102270004FF00008C4F81880206940F00100206188
:10228000FFF71EF802280CD011E0A06960612069F8
:1022900040F001002061B068401E606162B6BDE898
:1022A000F0812846FEF7F8F92846FEF7D7F92069AD
:1022B00020F00101216162B6C0030DD5A069B168AB
:1022C000381A081A3269401E904201D3884200D958
:1022D000481E60616D1E09E0B168A0694D43281A6F
:1022E000B0FBF1F56A1C4A43101A6061C4F818800B
:1022F000FFF7FAFE206940F001002061284600F057
:10230000DBF9B068401E6061BDE8F041FFF714BF23
:102310009400002010B5FDF73FFF0F4C10280BD3A1
:1023200000F1E02090F8F0032178884204D20BA15C
:1023300040F2B120FFF796FE0E480068616900F494
:10234000E060884206D9BDE8104004A140F2C120F7
:10235000FFF788BE10BD00009400002072746F73F8
:102360005C706F727461626C655C706F72742E6306
:10237000000000000CED00E010B5084B002200BF8B
:1023800053F832401CB1521C052AF9D310BD43F852
:10239000321003EBC201486010BD0000FC010020B8
:1023A00070B515460E460446FFF79EFE94F944109C
:1023B0000020491C01D184F8440094F94510491CBF
:1023C00001D184F84500FFF7B7FEA06B28B92A4673
:1023D000314604F1240000F0B3F82046BDE8704017
:1023E000FFF71ABC10B5040011D00D48006B20B1E6
:1023F0000CA140F2CF40FFF735FE00F079F9002143
:102400002046FFF771F800F0C7FD002807D1094901
:102410004FF080500860BFF34F8FBFF36F8F10BD38
:102420004400002072746F735C7461736B732E636D
:102430000000000004ED00E001490120C861704780
:10244000440000202DE9F0418846040004D126A173
:1024500041F2E310FFF706FEFFF75CFF5020EFF3B9
:10246000118680F31188BFF34F8FBFF36F8F94F8FD
:102470005800022184F85810616D491C61650128DB
:102480002DD1A06A20B118A141F20920FFF7EAFD81
:10249000194D286B012780B1184804F1180100BFBD
:1024A000FFF715FEE06A2968C96A884217D9B8F1B2
:1024B000000F13D0C8F8007011E0201DFFF788FD51
:1024C000E16A2A6907FA01F01043286101EB8100F3
:1024D0000A49A03901EB8000211DE1E7EF6186F395
:1024E0001188BDE8F081000072746F735C746173D1
:1024F0006B732E6300000000440000209801002050
:1025000070B50D46040004D108A140F60630FFF76F
:10251000A9FD0A48016820461831FFF7C0FD28468A
:10252000BDE870400121FEF7DFBF000072746F73D9
:102530005C7461736B732E63000000004400002024
:1025400070B514460D46060004D10AA140F631309C
:10255000FFF788FD0B48016830461831FFF7B7FDDB
:102560000CB14FF0FF3521462846BDE87040FEF71C
:10257000BBBF000072746F735C7461736B732E6306
:10258000000000004400002070B5040039D01D4D4B
:10259000E06A2968C96A884233D2A069002804DB4E
:1025A0002868C06AC0F10600A061E16A164E01EB1E
:1025B0008101606906EB810188421FD1201DFFF770
:1025C00007FD012150B9E06A00EB800256F8222095
:1025D00022B92A6901FA00F082432A612868C06A98
:1025E000E0622A6981401143296100EB800006EB1B
:1025F0008000211DBDE87040FFF769BD2868C06AF2
:10260000E06270BD44000020F800002010B5040016
:1026100004D105A140F6C130FFF724FD0648016A48
:102620002160C068606010BD72746F735C74617308
:102630006B732E6300000000440000201CB5164898
:102640000024CDE900402346402214A1154800F0A3
:1026500063FB012803D100F033FD012808D0401CA2
:1026600019D1BDE81C4010A140F28470FFF7FABCFC
:10267000502080F31188BFF34F8FBFF36F8F064850
:102680004FF0FF312C38816201214161C460BDE807
:102690001C4000F083B81CBD7000002049444C452C
:1026A00000000000F117000872746F735C746173AE
:1026B0006B732E630000000070B5084C0546E0689F
:1026C000A16A2844884204D905A140F67110FFF799
:1026D000C9FCE0682844E06070BD000044000020B0
:1026E00072746F735C7461736B732E63000000000F
:1026F0000248016B491C0163704700004400002040
:1027000070B51D4C206B10B10120E06170BD002040
:10271000E06120684FF0A531006B02688A4208D161
:1027200042688A4205D182688A4202D1C0688842E2
:1027300004D0216820683431FFF76BFC20690F4D0D
:10274000B0FA80F0C0F11F0000EB800655F82600BB
:1027500020B90BA140F6F620FFF784FC05EB8600BC
:1027600000F10802416849684160914201D149681D
:102770004160C868206070BD44000020F80000205F
:1027800072746F735C7461736B732E63000000006E
:102790000148406870470000AC0000201CB5194992
:1027A00008780190FF20087008788DF800009DF8E7
:1027B0000000154C00F0500020700720606105E01B
:1027C0009DF8002052008DF80020401E9DF800204A
:1027D0001206F5D4000200F4E06060610198087010
:1027E0000A48016841F470010160016841F07041DC
:1027F0000160FFF7FFFC00206060FDF797FC002000
:102800001CBD000000E400E09400002020ED00E08A
:1028100010B5502080F31188BFF34F8FBFF36F8F37
:1028200000F0BAFA18B104494FF080500860002057
:1028300080F3118810BD000004ED00E02DE9F041A7
:1028400017460E46050004D10FA14FF4C470FFF7E0
:1028500009FCAEB105FB06F05030FFF713FA040097
:102860000CD004F150006EB12060C4E90F56204630
:10287000012100F0C7F8204684F84C70BDE8F081D3
:102880000020E9E72460F0E772746F735C7175658E
:1028900075652E63000000002DE9FF4F002683B010
:1028A0009B468A46040004D151A140F2DC40FFF768
:1028B000D9FBBAF1000F06D1206C20B14CA140F237
:1028C000DD40FFF7CFFB00F053FA30B9059820B197
:1028D00047A14FF49C60FFF7C5FBDFF824814FF060
:1028E00000094FF0805700BFFFF7FEFBA56B4DB30B
:1028F00051462046E668FEF7E7FEBBF1000F14D014
:10290000E660606A58B104F1240000BF00F000FBEB
:1029100028B1C8F80070BFF34F8FBFF36F8FFFF778
:102920000BFC012007B0BDE8F08F6D1EA563206889
:1029300010B9FFF721FA606020690028EFD004F198
:102940001000E3E7059808B11EB106E0FFF7F4FBBD
:1029500027E06846FFF75AFE0126FFF7EDFBFFF779
:10296000C7FEFFF7C1FB94F94400401C01D184F875
:10297000449094F94500401C01D184F84590FFF73C
:10298000DBFB05A9684600F08FF9002820460AD035
:10299000FFF742F900F000FB2046FEF7E3FF0028B6
:1029A000A2D00020BEE7FEF7DDFFD8B1206830B925
:1029B000FFF79AFB6068FFF7E7FDFFF7BDFB04F147
:1029C00024000599FFF79CFD2046FFF725F900F04C
:1029D000E3FA002888D1C8F80070BFF34F8FBFF327
:1029E0006F8F81E72046FFF717F900F0D5FA7BE7F4
:1029F00072746F735C71756575652E6300000000FD
:102A000004ED00E070B50D46040004D11DA140F2B4
:102A10001B10FFF727FBFFF767FBD4E90F202168A6
:102A200002FB001161600021A1632168A1600A46D8
:102A3000D4E90F01401E00FB0121E16021464FF067
:102A4000FF3001F8440F487004F1100055B1FFF752
:102A500018FB04F12400FFF714FB00BFFFF76CFB29
:102A6000012070BD21690029F8D000F051FA00283A
:102A7000F4D008494FF080500860BFF34F8FBFF388
:102A80006F8FEBE772746F735C71756575652E639C
:102A90000000000004ED00E02DE9FF4782B01D4674
:102AA0008A464FF00008040004D14CA140F2D9201E
:102AB000FFF7D8FABAF1000F06D1206C20B147A178
:102AC00040F2DA20FFF7CEFA022D07D1E06B0128A1
:102AD00004D042A140F2DB20FFF7C4FA00F048F92D
:102AE00030B9049820B13DA140F2DE20FFF7BAFAD8
:102AF0003E4F4FF000094FF0805600BFFFF7F4FA49
:102B0000A06BE16B884207D3022D05D00498D0B1A9
:102B1000B8F1000F1AD01EE02A4651462046FEF7B3
:102B2000E6FD616A19B104F1240000F0F1F920B169
:102B30003E60BFF34F8FBFF36F8FFFF7FDFA0120A9
:102B400006B0BDE8F087FFF7F7FA22E06846FFF726
:102B50005DFD4FF00108FFF7EFFAFFF7C9FDFFF742
:102B6000C3FA94F94400401C01D184F8449094F9CC
:102B70004500401C01D184F84590FFF7DDFA04A917
:102B8000684600F091F830B12046FFF745F800F0B4
:102B900003FA0020D4E7FFF7A7FAA06BE16B8842A5
:102BA00013D1FFF7C9FA04F110000499FFF7A8FC4C
:102BB0002046FFF731F800F0EFF900289ED13E6083
:102BC000BFF34F8FBFF36F8F98E7FFF7B5FA20463B
:102BD000FFF722F800F0E0F990E7000072746F73DD
:102BE0005C71756575652E630000000004ED00E002
:102BF0002DE9F0471F4690468946040004D126A1DE
:102C000040F29F30FFF72EFAB9F1000F06D1206C89
:102C100020B121A14FF46870FFF724FA022F07D1E9
:102C2000E06B012804D01CA140F2A130FFF71AFA92
:102C3000FFF770FB5020EFF3118680F31188BFF38C
:102C40004F8FBFF36F8FA06BE16B884206D3022FCB
:102C500004D0002086F31188BDE8F08794F9455030
:102C60003A4649462046FEF742FD681C04D06D1CDA
:102C700084F845500120EDE7606A0028FAD004F19D
:102C8000240000F045F90028F4D0B8F1000FF1D08D
:102C90000121C8F80010EDE772746F735C717565FF
:102CA00075652E630000000070B50D46040004D168
:102CB00014A140F6CB30FFF7D5F925B911A140F6A4
:102CC000CC30FFF7CFF9FFF70FFA124AD168286826
:102CD000431C0FD02368126A934202D062688A4272
:102CE0000AD96268891A814206D2401A28602046B1
:102CF000FFF78CFC002400E00124FFF71DFA2046BA
:102D000070BD000072746F735C7461736B732E63BB
:102D100000000000440000202DE9FF5F8346DDE94C
:102D20000E87994616468A469000FEF7ABFF0500CF
:102D30001AD05C20FEF7A6FF040012D02563002104
:102D4000CDE90241CDE900874B463246514658460F
:102D5000FEF778FD2046FEF7FFFB012004B0BDE83A
:102D6000F09F2846FFF706FA4FF0FF30F6E7000025
:102D70000548416919B1006B18B100207047012066
:102D80007047022070470000440000200148C068DE
:102D900070470000440000202DE9F0412F4C00272F
:102DA000206B18B1A069401CA0614FE0E668761C5A
:102DB000E66010D1606B006820B129A140F6D910FF
:102DC000FFF750F9606BA16B6163A063206A401C40
:102DD0002062FEF799FEA06ADFF89480864209D34C
:102DE000606B006890B1606BC068C56868688642B7
:102DF0000FD2A0622068C06A00EB800158F8210061
:102E0000012800D90127A06900B321E04FF0FF306D
:102E1000EFE7281DFFF7DCF8A86A18B105F11800E4
:102E2000FFF7D6F8E86A0121226981401143216148
:102E300000EB800108EB8100291DFFF748F9E86AE3
:102E40002168C96A8842CBD30127C9E7FFF7EAF8AE
:102E5000E06900B101273846BDE8F0814400002058
:102E600072746F735C7461736B732E630000000087
:102E7000F800002070B504004FF000063AD01E4D57
:102E80002868844204D01DA140F6C760FFF7EAF825
:102E9000206D20B919A140F6C960FFF7E3F8206D55
:102EA000401E2065E26CE16A914223D010BB201DD8
:102EB000FFF78EF8154A012150B9E06A00EB800354
:102EC00052F8233023B92B6901FA00F083432B61B8
:102ED000E06CE062C0F10600A061E06A2B6981400D
:102EE0001943296100EB800002EB8000211DFFF7F0
:102EF000EEF80126304670BD4400002072746F73F6
:102F00005C7461736B732E6300000000F800002096
:102F10002DE9F041C068C46824B919A140F66130B8
:102F2000FFF7A0F804F118000746FFF751F8184D15
:102F3000286B012660B11748394600BFFFF7C7F874
:102F4000E06A2968C96A884213D90124EE6111E058
:102F5000201DFFF73DF8E16A2A6906FA01F01043E7
:102F6000286101EB81000B49A03901EB8000211D94
:102F7000E4E70024FEF7C8FD2046BDE8F08100002C
:102F800072746F735C7461736B732E630000000066
:102F900044000020980100202DE9F0472B4C00252B
:102FA0002E46206B20B92AA14FF4FD60FFF75AF896
:102FB000FFF79AF8206B401E2063206BE8BBA168E6
:102FC000274F0120C9B3A7F1A00980463868E8B1AE
:102FD000F868C56805F11800FEF7FAFF281DFEF72E
:102FE000F7FFE86A226908FA00F11143216100EB5A
:102FF000800109EB8100291DFFF769F8E86A216863
:10300000C96A8842E2D3C4F81C80DFE70DB1FEF73D
:103010007BFDA56945B14746FFF7BEFE00B1E761FC
:103020006D1EF9D10020A061E06930B10D49012683
:1030300030070860BFF34F8F00E001E0BFF36F8FF0
:10304000FFF77AF83046BDE8F08700004400002022
:1030500072746F735C7461736B732E630000000095
:103060009801002004ED00E02DE9F047074699465D
:1030700016460D462C20DDF820A0FEF703FE0400C6
:1030800013D0B8464F46D14625B909A14FF4C670B2
:10309000FEF7E8FFFEF7C8FA04F11801C4F8008053
:1030A00081E8E002201DFEF7F7FF2046BDE8F0872B
:1030B00072746F735C74696D6572732E63000000C7
:1030C0001CB50024FEF7B0FA0B48006860B10A494D
:1030D0000520091DCDE900010023802207A1094830
:1030E000FFF71AFE040004D107A140F23310FEF7E7
:1030F000B9FF20461CBD000080000020546D7220E6
:1031000053766300F51B000872746F735C74696D0D
:103110006572732E630000002DE9FF479946DDF8C4
:1031200030A090460E4607004FF0000404D112A1D3
:103130004FF4D370FEF796FF134D286880B1CDE9A8
:1031400000680297062E11DAFFF712FE02284FF0F0
:10315000000309D0002269462868FFF79DFC044659
:1031600004B02046BDE8F0875246F4E700234A4603
:103170006946FFF73DFDF2E772746F735C74696D29
:103180006572732E6300000080000020AC310008DF
:1031900000000020C8000000E40F0008743200089E
:1031A000C800002060390000F40F00080000000093
:1031B000000000000000030406080C101820300076
:1031C00000000001020304010203040607080900CD
:1031D0000048E801030406080C1018203000000025
:1031E00000000000000102030406070809000000B7
:1031F00000000000000000000000000000000000CF
:1032000000000000000000000000000000000000BE
:1032100000000000000000000000000000000000AE
:10322000000000000000000000000000000000009E
:10323000000000000000000000000000000000008E
:1032400000000000AAAAAAAA0000000000000000D6
:10325000000000000000000000000000000000006E
:10326000000000000000000000000000000000005E
:04327000000000005A
:04000005080000F5FA
:00000001FF
