:020000040800F2
:10000000283A0020A10100084705000869040008FB
:1000100045050008D5020008910E00080000000008
:1000200000000000000000000000000009010008BE
:10003000D7020008000000004D010008C524000898
:10004000BB010008BB010008BB010008D50A00087D
:10005000BB010008BB010008BB010008BB01000890
:10006000BB010008BB010008BB010008BB01000880
:10007000BB010008BB010008BB010008BB01000870
:10008000BB010008BB010008BB010008BB01000860
:10009000BB010008BB010008BB010008BB01000850
:1000A000BB010008BB010008BB010008BB01000840
:1000B000BB010008BB010008BB010008BB01000830
:1000C000BB010008BB010008BB010008BB01000820
:1000D000BB010008BB010008BB010008BB01000810
:1000E000D9020008BB010008BB010008BB010008E1
:1000F000BB010008DFF80CD000F09EF80048004774
:1001000029120008283A0020224B19680868B0E834
:10011000F00F80F30988BFF36F8F4FF0000080F37A
:1001200011884EF00D0E7047000000000648006870
:10013000006880F3088862B661B6BFF34F8FBFF3E3
:100140006F8F00DF00BF00BF08ED00E0EFF3098014
:10015000BFF36F8F0F4B1A6820E9F00F106008B5DE
:100160004FF0500080F31188BFF34F8FBFF36F8FB4
:1001700002F026F94FF0000080F31188BDE8084036
:1001800019680868B0E8F00F80F30988BFF36F8F33
:10019000704700BF44000020EFF305807047000067
:1001A0000648804706480047FEE7FEE7FEE7FEE711
:1001B000FEE7FEE7FEE7FEE7FEE7FEE7010D0008CB
:1001C000F500000840EA01039B0703D009E008C9D5
:1001D000121F08C0042AFAD203E011F8013B00F80C
:1001E000013B521EF9D27047D2B201E000F8012B58
:1001F000491EFBD270470022F6E710B513460A46A7
:1002000004461946FFF7F0FF204610BD30B50B46F7
:10021000014600202022012409E021FA02F59D4236
:1002200005D303FA02F5491B04FA02F52844151E0A
:10023000A2F10102F1DC30BD064C074D06E0E0689A
:1002400040F0010394E8070098471034AC42F6D31D
:10025000FFF754FF402E0008602E00083EB500F066
:1002600025F80121084600F029FA0F21002000F0AE
:10027000D1FC4FF40040002400908DF804400C2085
:100280008DF8050001258DF80650684600F068F8E5
:1002900028208DF8080009208DF809008DF80A4003
:1002A0008DF80B5002A800F04FF93EBD1CB501219E
:1002B000084600F0DFF94FF40040009000208DF870
:1002C00004008DF807006946014800F081F81CBD64
:1002D00000000240FEE7704738B54FF40044204666
:1002E00000F034F8012818D1204600F029F80B4C12
:1002F0002068002811D00AA000F016FE6946206888
:1003000001F000FF0098002807D00C494FF0805002
:100310000860BFF34F8FBFF36F8F38BD0000002020
:100320000A0D5461736B315F48616E646C652049DE
:100330005152206E6F7469667900000004ED00E090
:10034000014908607047000014040140034A014657
:10035000002012680A4200D00120704714040140B6
:1003600030B51A498379026853B30B6893430B6025
:100370000A1D13680468A343136002790A441368D2
:10038000046823431360114A083213680468A343C6
:100390001360131D1C680568AC431C604479102C65
:1003A00005D021440A68006802430A6030BD116824
:1003B000046821431160196800680143196030BD69
:1003C0000079084401689143016030BD0004014098
:1003D000F0B5002301244FF0030E00BF0D6804FAAE
:1003E00003F21540954222D106685D000EFA05FC25
:1003F0000F7926EA0C06AF40374307600E79012ECD
:1004000001D0022E0CD186684F7926EA0C06AF4047
:1004100037438760868896438A799A403243828040
:10042000C668CA7926EA0C06AA403243C2605B1C41
:10043000102BD3D3F0BD4B07DB0E9A40C90810B583
:1004400000EB8100016A0F249C40A1430162016A14
:100450001143016210BD02460020128A0A4200D0F8
:100460000120704741837047FEE7000002494CF6C7
:10047000CC400860704700000030004000F014B825
:1004800070B504460D4645F2555000F021F820465F
:1004900000F012F8284600F015F800F005F8BDE865
:1004A0007040FFF7E3BF000002494AF6AA20086047
:1004B000704700000030004001494860704700006C
:1004C0000030004001498860704700000030004063
:1004D0000149086070470000003000401CB5202032
:1004E000009003208DF804000020064C8DF80700D2
:1004F00069462046FFF76CFF20212046FFF7B2FF38
:100500001CBD0000000402401CB50121022000F0C7
:10051000B1F82020009001208DF8040000208DF813
:10052000060003218DF80510054C8DF8070069467B
:100530002046FFF74DFF20212046FFF793FF1CBD0B
:1005400000040240FEE7704730B50F22C4780178FE
:100550000123FCB1144C246801F1E02104F4E064AF
:10056000C4F5E064C4F30724C4F10405E240447810
:10057000AC408578154025432A0181F80024007895
:1005800000F01F018B404009800000F1E020C0F81E
:10059000003130BD01F01F0083404809800000F1A8
:1005A000E020C0F8803130BD0CED00E00249084386
:1005B00002490860704700000000FA050CED00E0F9
:1005C00010B500F09DFB00F03DF94FF4E13000F074
:1005D00061FCFFF799FFBDE8104001A000F0A4BC4A
:1005E0000A0D706F73742073746F702B2B2B2B2B71
:1005F0002B2B2B2B2B2B2B2B2B00000010B506A00D
:1006000000F092FCFFF76AFFFFF738FF0121BDE819
:100610001040084600F00EB80A0D70726520737421
:100620006F702D2D2D2D2D2D2D2D2D2D2D2D2D2D75
:10063000200000000A4B1A6822F0030202431A60ED
:100640000848026842F004020260012905D020BF78
:10065000016821F004010160704730BFF8E7000035
:100660000070004010ED00E0014908627047000092
:1006700000000E42044A0029116801D0014300E045
:1006800081431160704700001C380240044A002971
:10069000116801D0014300E0814311607047000000
:1006A00024380240044A0029116801D0014300E0C7
:1006B000814311607047000018380240044A002945
:1006C000116801D0014300E08143116070470000D0
:1006D00020380240044A0029116801D0014300E09B
:1006E00081431160704700001438024030B5254A3C
:1006F0001168A2F1040411F00C034FF4004105D07D
:10070000042B09D0082B09D00C2B09D02368C3F384
:1007100042335B1C994018E01B4916E01B4914E06A
:100720001168136801F47011194C03F4400304EBD1
:1007300091410978012404EB9353146814F4803F29
:100740001DD0124C6143B1FBF3F1016011680F231E
:1007500003EA11110E4B09335C5C0168E140416012
:100760001468072505EA14241C5D21FA04F484604A
:10077000126805EAD2229A5CD140C16030BD024CB9
:10078000E0E70000083802400024F40000127A007C
:1007900008000020014600204A09012A09D0064A23
:1007A000126801F01F0101238B40134200D0012089
:1007B0007047014A343AF3E73438024002490022D4
:1007C0000A7008707047000035380240014908601F
:1007D00070470000D8064742C0F30141032907D102
:1007E000094A116821F0C04300F0C041194311606B
:1007F000054934310A6822F440320A600A6800F47C
:10080000403002430A60704700380240C0F31000D5
:1008100040F08000C1430348026802F080021143A7
:10082000016070470C280040C0F30F1040F08000BA
:10083000C1430348026802F080021143016070471F
:100840000C28004030B585B000240121049408072D
:100850000394FFF71BFF0120FFF706FF002000F0C5
:10086000BFF840F60A25A84224D00120FFF7A6FFD2
:100870004920FFF78FFF0028FAD04FF48030FFF7B0
:10088000ABFFFF2003907F2004900120FFF79EFF25
:1008900000F052F904980190039802900094684681
:1008A00000F076F82946002000F0AAF900F044F99B
:1008B00005B030BD00F040F94FF48070FFF7A6FF9F
:1008C000F6E7000008B5002000900C4801684906D2
:1008D00012D44FF0FF31016043140168009A01F017
:1008E0004001521C00929A4201D00029F5D00068C4
:1008F000400601D4002008BD012008BD0C2800409E
:100900000248016821F08001016070470C28004016
:100910000D4A10B51268002102F004030A4A383A61
:100920001268840C20FA04F4024003EAD4331A4318
:10093000064B1B6803EA101003D00004000C00D023
:100940000121084610BD0000402800400C2800404E
:1009500030B50E4DCA222A6053222A600B4B0B4A37
:100960001C3B1C32002920F00404196800F004002C
:1009700004D0214319601168014303E0A1431960C9
:10098000116881431160FF20286030BD2428004099
:1009900070B5124D04460026CA20286053202860F6
:1009A000FFF790FFA8B10D481C38016821F0400105
:1009B000016001682268114301600848A168143889
:1009C00001600168A28841EA02410160FFF798FFD7
:1009D0000126FF202860304670BD0000242800401A
:1009E00008B5034901EB80000090006808BD0000D5
:1009F000502800400549CA220A6053220A60034A6F
:100A0000103A1060FF200860704700002428004062
:100A1000FEB5C2B2C2EB42130021C3EB022201EBCE
:100A20000211C0F30722C2EB021201EB8201C0F3F4
:100A300007404418B4F5803F01D31CA033E04FF4C5
:100A400080152846FFF77CFC009500258DF80450A2
:100A500008208DF8050001268DF806606846FFF72E
:100A60007FFC03208DF808000C208DF809008DF81C
:100A70000A508DF80B6002A8FFF766FDB503284603
:100A8000FFF7D2FE042000F07BF8002000F08CF885
:100A9000601EFFF7AFFF01212846FFF759FF012035
:100AA00000F082F807A000F03FFAFEBD0A0D525494
:100AB000435F5365745F574B5550204572726F7298
:100AC000000000000A0D5254435F574B55502069F7
:100AD0007764670038B54FF480442046FFF718FF6D
:100AE000002819D02046FFF79FFEA001FFF728FC41
:100AF0000A48006800280FD0694601F003FB08A0EF
:100B000000F012FA0098002806D00A49A0030860F5
:100B1000BFF34F8FBFF36F8F38BD0000040000207C
:100B20000A0D5254432069776467206E6F746966BA
:100B30007900000004ED00E018B500200F49009096
:100B4000CA200860532008600C481838026822F058
:100B5000A0020260C4130268009B02F020025B1C2A
:100B60000093A34201D0002AF5D00068800601D589
:100B7000012000E00020FF220A6018BD2428004068
:100B8000084ACA2111605321116006491C390B68BB
:100B900023F007030B600B6803430B60FF2010601A
:100BA000704700002428004018B50021134A009126
:100BB000CA2111605321116010491C3900280868AE
:100BC00003D040F48060086014E020F48060086086
:100BD0000A48183844140168009B01F004015B1CAA
:100BE0000093A34201D00029F5D00068400701D44A
:100BF000002000E00120FF21116018BD24280040E2
:100C000008B5034A02EB80000090016008BD0000B7
:100C10005028004010B58A0721F003040649130F3D
:100C200021440F228C689A4094438C608A689840D3
:100C300002438A6010BD0000000001400CB5002096
:100C40002C49019000900A6842F480320A604FF407
:100C5000A0430A6802F400320092019A521C0192E9
:100C6000009A12B9019A9A42F3D10A6892033FD5C9
:100C7000012000902048026842F0040202600268ED
:100C800042F002020260026842F00102026019486A
:100C90002430026842F080520260C2141748026099
:100CA0004268D206FCD41348083002680260026829
:100CB000026002680260026822F47D02026002683B
:100CC00042F4110202600A6842F080720A600A6807
:100CD0009201FCD5016821F003010160016841F037
:100CE000030101600168C1F381010329FAD10CBD40
:100CF00000900CBD00380240003C024000700040F3
:100D0000104810B5016841F4807101600D49083147
:100D10000A680D4B1A400A6002680C4B1A400260C8
:100D2000026822F480220260086820F47D000860D6
:100D3000091D00200860FFF781FF05494FF00060A2
:100D4000086010BD003802400CC0FF88FEFFFEEEB8
:100D500008ED00E0C943018070470029818902D075
:100D600041F4005101E021F40051818170470000FD
:100D7000174910B588420AD101218C032046FFF79C
:100D8000A9FC2046BDE810400021FFF7A3BC114993
:100D9000884202D101214C0410E00F49884202D15F
:100DA00001218C040AE00D49884202D10121CC04C2
:100DB00004E00B4988420AD101210C052046FFF7C7
:100DC00071FC2046BDE810400021FFF76BBC10BD50
:100DD000003801400044004000480040004C004002
:100DE000005000407FB50446008A0D4620F4405173
:100DF000E88808432082A08941F20C618843A988D1
:100E00002A8911436A8902431143A181A08A20F4EF
:100E10004071A8890843A0826846FFF767FC19481B
:100E2000844201D1039800E00298A189090400EBF3
:100E3000C00101EB0010296801D5490000E08900DC
:100E4000B0FBF1F06422B0FBF2F109010B096FF085
:100E500018056B4300EB8300A3891D044FF0320398
:100E600006D503EBC000B0FBF2F000F0070005E090
:100E700003EB0010B0FBF2F000F00F0008432081FC
:100E80007FBD000000380140C1F308018180704738
:100E9000FEE7000070B50446012186B00846FFF762
:100EA000E9FB01218803FFF709FC1D4D2846FFF7E8
:100EB0005FFF00940024ADF808400C20194EADF8F7
:100EC0000440ADF80A00ADF80640ADF80C4007222A
:100ED00009213046FFF7AFFA07220A213046FFF713
:100EE000AAFA4FF4C060049002208DF81400032089
:100EF0008DF815008DF816408DF8174004A930467E
:100F0000FFF766FA69462846FFF76CFF012128467D
:100F1000FFF723FF40212846FFF71CFF06B070BDF6
:100F200000380140000002400FB4054B10B503A982
:100F3000044A029800F018F810BC5DF814FB000099
:100F400051110008C400002002E008C8121F08C1A7
:100F5000002AFAD170477047002001E001C1121F3A
:100F6000002AFBD1704700002DE9FF4F8BB09A4655
:100F70000F460546002606E025280BD052460D995F
:100F800090476D1C761C28780028F5D10FB03046AC
:100F9000BDE8F08F0024A0460122604900E0044330
:100FA00015F8013F203B02FA03F00842F7D12878F8
:100FB0002E2817D115F8010F44F004042A280ED06A
:100FC0006FF02F022878A0F1300109290AD808EB28
:100FD000880102EB410100EB01086D1CF2E757F8B4
:100FE000048B6D1C287869283ED006DC0028CDD003
:100FF00063280BD0642804D136E0732810D07528FC
:101000004BD052460D999047761C85E017F8040B9B
:101010008DF8000000208DF80100E946012003E072
:1010200057F8049B4FF0FF3061074FF0000401D4E4
:101030000AE0641C44450DDA8442FADB19F8041016
:101040000029F6D106E0641C8442FCDB19F8041088
:101050000029F8D1264404E019F8010B52460D99F5
:101060009047641EF8D257E001CF4FF00A0B0028DA
:1010700002DA40422D2102E0210504D52B218DF812
:101080002410012103E0E10705D02021F7E70DF14D
:10109000200908910CE00021F9E701CF4FF00A0B7D
:1010A000F9E75946FFF7B2F801F1300209F8012DCE
:1010B0000028F6D1ADEB090000F1200B600701D448
:1010C0004FF00108D84502DDA8EB0B0000E000203E
:1010D0008046002406E009A85246005D0D9990471D
:1010E000641C761C08988442F5DB04E030205246EC
:1010F0000D999047761CB8F10001A8F10108F5DCC4
:1011000005E019F8010B52460D999047761CBBF18A
:101110000001ABF1010BF4DC6D1C34E70928010080
:1011200009490120096809B1002070470749CA69C7
:10113000002AF9D1044A896828321268491E8A4275
:10114000F3D10220704700009801002044000020E5
:1011500070B5054C0546C1B22046FFF795FE2088C4
:101160000006FCD5284670BD003801401CB50B496F
:101170000120CDE900010023802209A10A4801F0E5
:1011800025FC06490020091DCDE900010346802207
:1011900006A1084801F01AFC1CBD00000000002058
:1011A0007461736B310000007D1B00086977646710
:1011B00000000000B9110008002060F30F2460F364
:1011C0000704142161F317440AA0FFF7ADFE20467F
:1011D000FFF71EFC4FF0FF340AA0FFF7A5FEFFF754
:1011E0004DF92146012000F029FD09A0FFF79CFEE2
:1011F000F2E700000A0D776B727463207365633A3F
:10120000256400000A0D6665656420646F67200030
:101210000A0D69776467207461736B207761697464
:10122000206972712000000000F092FCFFF79EFF21
:1012300002A0FFF779FE01F061F8FEE773746D33E9
:10124000324C31787820696E6974206F6B2E000003
:1012500010B510B104461CB107E005480468FAE770
:1012600004A140F68C0000F05DFD04F1340010BDD7
:101270004400002072746F735C7461736B732E632F
:10128000000000002DE9F041184C0F460546E668C5
:101290002068001D00F006FD38B9206890F82C1079
:1012A00001208840216981432161681C07D137B141
:1012B0002168BDE8F0410E48091D00F068BD2068B6
:1012C0003544B5424560216805D2A06BBDE8F041C8
:1012D000091D00F044BD606B091D00F040FDA06ACF
:1012E000854200D2A562BDE8F081000044000020E4
:1012F000C00100202DE9F041054600F055FD2E4CBF
:10130000A068401CA06020682C4F10B1606940B3F9
:101310002DE02560A068012829D1002606EB860073
:1013200007EB800000F00DFD761C062EF6D3234857
:10133000783000F006FD21488C3000F002FD1F4897
:10134000A03000F0FEFC1D48B43000F0FAFC1B4851
:10135000C83000F0F6FC1948783060631430A063A0
:1013600005E02068E96AC06A884200D82560606AA2
:10137000401C60626864E96A012022698840104369
:10138000206101EB810007EB8000291D00F0FFFCCC
:1013900000F032FD606900280CD02068E96AC06A5C
:1013A000884207D206494FF080500860BFF34F8F44
:1013B000BFF36F8FBDE8F08144000020F8000020EB
:1013C00004ED00E010B500F0EFFC0E4C2068A0B971
:1013D0000D4800F0B6FC0C48143000F0B2FC0A488E
:1013E000E06014302061002210210A2001F080F812
:1013F000206010B105A100F01FFEBDE8104000F014
:10140000FBBC000080000020D4010020546D72510C
:101410000000000070B5114E114C17E000F0C8FF3D
:101420003068B8B101F012FC00F0BEFCF068C5688D
:10143000281D00F037FCA068401EA0606068401EB8
:10144000606000F0D9FC284600F055F8606800287C
:10145000E4D170BD01F0FAFBF8E70000AC01002018
:101460004400002030B4026C0B46002A0BD0C16847
:101470001144C1604468A14201D30168C16030BC1D
:101480001846FEF79FBE30BC70472DE9F041856BD2
:10149000174604460026026C82B1C7B1E068FEF729
:1014A00091FEE168206C091AE1602268914202D243
:1014B0006168081AE060022F16D017E02068A8B90A
:1014C000606801F031FB0646002060600EE0A06815
:1014D000FEF778FE216CA0680844A060616888422D
:1014E00004D32068A06001E005B16D1E6D1CA563EA
:1014F0003046BDE8F08110B50446006B00F09AFC60
:101500002046BDE8104000F095BC00000A480021CC
:101510000269012A00D901210268D26A0AB10020B9
:101520007047064A1268012AF9D80029F7D1816A62
:10153000C068081A7047000044000020F80000202E
:1015400010484FF42051420706D0C01D0D4920F02D
:101550000700411AC1F520510B4A00230144C2E99A
:1015600000030839103A21F0070111604B600B604D
:101570000B1AC0E9001393604FF000405360D06035
:101580007047000024020020BC0000200F4C40F6F1
:101590008C4500BFFFF73EFF00F0A4FBFFF7B6FF4E
:1015A0000528F7D300F004FFA06AE168884203D25F
:1015B00007A1284600F0B6FBFFF7A8FF052801D3D6
:1015C00000F096FC01F042FBE4E70000440000203C
:1015D00072746F735C7461736B732E630000000030
:1015E0002DE9F0470E46DDE9098417468246910051
:1015F0009946089DA522206BFEF7F6FD6FF00301CA
:10160000206B01EB8701084420F00707780704D01E
:10161000194940F22B3000F085FB00202218315C84
:1016200082F83410315C11B1401C1028F6D300262A
:1016300084F84360062D00D30525E562C4E91356FE
:10164000201D00F089FB04F1180000F085FB2461E7
:10165000C5F106006462A061666584F858604A4678
:101660005146384600F062FA2060B8F1000F01D010
:10167000C8F80040BDE8F087E822000830B51149FD
:1016800000E011460A688242FBD34B685C18844232
:1016900003D1406818444860084643681C189442C7
:1016A00009D1084C103C2468A24209D052681A445F
:1016B00042600A6812680260814200D0086030BD52
:1016C0000460F9E7BC00002070B5002441600B4DB8
:1016D0000061914206D8D11A8269914206D2011D59
:1016E000286907E09A4203D2994201D3012403E01A
:1016F000011DE86800F033FB204670BD800000202B
:1017000010B5044600F050FBA06B28B15FF0000458
:1017100000F072FB204610BD0124F9E770B588B0D7
:101720002E4E50E00498002806DADDE90601059AFD
:1017300090470498002846DB069C606910B1201D84
:1017400000F0B0FA02A800F0BDF8054604980A2897
:1017500039D2DFE800F005050538253505053825BF
:101760000598A169034601442A462046FFF7ACFFCD
:1017700028B3616A20468847E069012823D1002008
:1017800000900598A169002342181946204601F0EF
:101790001DFBA0B912A140F2213000F0C3FA12E003
:1017A0000598A06120B90EA14FF44E7000F0BAFA6E
:1017B000A0692B4641191A462046FFF785FF02E033
:1017C000204600F037FB00231A4604A9306800F0D9
:1017D000BDFE0028A6D108B070BD0000800000202A
:1017E00072746F735C74696D6572732E63000000B0
:1017F0002DE9FC410F46054600F0DAFD01A800F096
:1018000061F80446019818B101F020FABDE8FC81A6
:10181000214EAFB130690068D0B30027291B3A468A
:10182000306800F01DFC01F011FA0028EED11B49D0
:101830004FF080500860BFF34F8FBFF36F8FE5E725
:10184000A542EBD801F002FAF0682746C068C468E8
:10185000201D00F027FAE069012815D1A0692B4668
:1018600041193A462046FFF72FFF68B10020034692
:10187000014600902A46204601F0A8FA20B90849FE
:101880004FF4027000F04EFA616A20468847BDE7C7
:10189000FFE70127C2E700008000002004ED00E020
:1018A000642D00080648416B096829B1416BC9687D
:1018B000C9684968816270474FF0FF31FAE700005C
:1018C0004400002070B5054601F0BAF8064E044603
:1018D000B068844203D200F009F8012000E0002043
:1018E00028602046B46070BD80000020F8B5174D18
:1018F00024E0C068C4680668201D00F0D3F9616A5E
:1019000020468847E069012818D1A0693044B042D8
:1019100006D924616060211DE86800F020FA0DE01E
:1019200000200346014600903246204601F04EFA60
:1019300020B9074940F2923000F0F4F9E8680168F4
:101940000029D6D12969C5E90310F8BD800000201F
:10195000642D000807484068401C03D006A1F4200D
:1019600000F0E0F9502080F31188BFF34F8FBFF3F0
:101970006F8FFEE79400002072746F735C706F725B
:101980007461626C655C706F72742E63000000009D
:10199000074CE068016841B1C0680021D0F8000040
:1019A000FFF726FFFFF7BAFEF3E701210020F7E774
:1019B000800000202DE9F041044600F0F5F994F98B
:1019C000455004F1240609E0606A48B1304601F050
:1019D000F9F808B100F090FB6D1E6DB2002DF3DC3C
:1019E0004FF0FF3684F8456000F006FA00F0DCF9AD
:1019F00094F9445004F1100709E0206948B13846D1
:101A000001F0E0F808B100F077FB6D1E6DB2002D1B
:101A1000F3DC84F84460BDE8F04100F0EDB900006B
:101A20002DE9F0410546002700F0C2FC304E306839
:101A300008B9FFF785FDF06805424CD1002D4AD06A
:101A4000083568070AD005F00700C0F10800054412
:101A5000680703D027A1BF2000F064F9DDB37068E8
:101A6000854238D82248103001460C6801E02046F3
:101A70000C466168A94202D221680029F7D1316879
:101A8000B0468C4227D0076821680160606808373B
:101A9000401B10280DD96619700703D015A1EC2042
:101AA00000F040F96068401B706030466560FFF7E9
:101AB000E5FD6268D8F804104046891AC8F8041099
:101AC000D8F80830994200D28160D8F80C0002435F
:101AD0000020C4E9000201F0B9F8780704D005A19C
:101AE0004FF4967000F01EF93846BDE8F081000012
:101AF000AC00002072746F735C706F727461626C02
:101B0000655C4D656D4D616E675C686561705F34E5
:101B10002E6300000449086818B10868026D521C61
:101B200002650868704700004400002010B5031FDC
:101B30004FF080741C601B1F21F001011960191FF8
:101B4000024B0B60143940380A6010BD551900086B
:101B500010B5FFF7D5F84FF44070FEF727FD4FF4AE
:101B6000E130FFF797F9FEF7CFFCFEF76BFEBDE81B
:101B7000104040F6FF710620FEF782BC0124FEF7FC
:101B80006DFB4FF0FF3AE7034FF47A7B174D28685F
:101B9000FFF75EFB0646286800F096F803462246EB
:101BA000314613A0FFF7C0F91C4E641C51460120BA
:101BB00000F044F88146642000F074FA394630465B
:101BC000FEF749FC8046584600F06CFA394630462C
:101BD000FEF741FC0546494611A0FFF7A5F9FEF7BF
:101BE0004DFC55EA0805E1D1D0E7000000000020D7
:101BF0000A0D746869732069732025732072756EED
:101C000074696D653A2025642E206D7920707269A3
:101C10006F726974792069732025640000000240A6
:101C20000A0D616374697665206765742069727155
:101C3000206576656E743A202564000070B50C4608
:101C4000064600F0B1F8154D2868406D80B9296846
:101C5000012081F858005CB101212046FFF712FBFA
:101C60000F494FF080500860BFF34F8FBFF36F8F65
:101C700000F0C2F800F098F82868446D002034B1F4
:101C800016B12968486502E02A68611E5165296815
:101C900081F8580000F0B0F8204670BD44000020E4
:101CA00004ED00E0D0E9013201699A60D0E9012336
:101CB0005A604A68824201D182684A600022026109
:101CC0000868401E0860704710B5044600F06CF8C4
:101CD0000CB903480468E46A00F08EF8204610BD91
:101CE000440000207047502080F31188BFF34F8FCD
:101CF000BFF36F8FFEE7000010B50020084A0123F4
:101D000002EBC0010C7934B90C6824B10C68641E74
:101D10000C6000D10B71401CC0B20628F0D310BD7E
:101D2000C800002008B50020009000F03DF801E058
:101D300000BF00BF00980028FAD0BDE8084000F0BE
:101D40005BB800F108014FF0FF32C0E90112C16039
:101D5000016100210160704700210161704730B5C9
:101D60000B685A1C02D000F1080202E0026904E08C
:101D70002246546825689D42FAD953684B609960A1
:101D80008A60516008610168491C016030BD426889
:101D90004A6093688B60936859609160086101683C
:101DA000491C016070470000502080F31188BFF388
:101DB0004F8FBFF36F8F08494868401C4860012867
:101DC00009D10648006810F0FF0F04D004A14FF4B9
:101DD000BD70FFF7A7BF70479400002004ED00E03E
:101DE00072746F735C706F727461626C655C706F3B
:101DF00072742E630000000010B5074C606820B9B3
:101E000006A140F28110FFF78DFF6068401E606000
:101E100001D180F3118810BD9400002072746F739B
:101E20005C706F727461626C655C706F72742E634B
:101E30000000000070B5002828D0154DA0F108045E
:101E40006068E968084204D112A14FF4A070FFF75E
:101E500069FF206820B10FA140F24110FFF762FF37
:101E60006168E868014211D02268002A0ED18143DE
:101E7000616000F09DFA6068696808446860204607
:101E8000FFF7FCFBBDE8704000F0E0BE70BD000055
:101E9000AC00002072746F735C706F727461626C5E
:101EA000655C4D656D4D616E675C686561705F3442
:101EB0002E6300000C486FF07F430C4902684FF41A
:101EC0007A70B2FBF0F0B3FBF0F3B2FBF2F2C1E9CF
:101ED00002032D23B3FBF2F20A614FF0E021401E12
:101EE000486107200861704724000020940000200A
:101EF0002DE9F041364E0546F068854200D9054689
:101F00004FF0E024206920F001002061A169B2684F
:101F1000681E02FB00173069874200D93F1A72B66B
:101F2000BFF34F8FBFF36F8FFFF7FAF868B16761A8
:101F30004FF00008C4F81880206940F001002061CB
:101F4000FFF7EEF802280CD011E0A069606120696B
:101F500040F001002061B068401E606162B6BDE8DB
:101F6000F0812846FEF74AFB2846FEF729FB206948
:101F700020F00101216162B6C0030DD5A069B168EE
:101F8000381A081A3269401E904201D3884200D99B
:101F9000481E60616D1E09E0B168A0694D43281AB2
:101FA000B0FBF1F56A1C4A43101A6061C4F818804E
:101FB000FFF7FAFE206940F001002061284600F09A
:101FC000DBF9B068401E6061BDE8F041FFF714BF67
:101FD0009400002010B5FEF7DFF80F4C10280BD34B
:101FE00000F1E02090F8F0032178884204D20BA1A0
:101FF00040F2B120FFF796FE0E480068616900F4D8
:10200000E060884206D9BDE8104004A140F2C1203A
:10201000FFF788BE10BD00009400002072746F733B
:102020005C706F727461626C655C706F72742E6349
:10203000000000000CED00E010B5084B002200BFCE
:1020400053F832401CB1521C052AF9D310BD43F895
:10205000321003EBC201486010BD0000FC010020FB
:1020600070B515460E460446FFF79EFE94F94410DF
:102070000020491C01D184F8440094F94510491C02
:1020800001D184F84500FFF7B7FEA06B28B92A46B6
:10209000314604F1240000F0B3F82046BDE870405A
:1020A000FFF788BC10B5040011D00D48006B20B1BB
:1020B0000CA140F2CF40FFF735FE00F079F9002186
:1020C0002046FFF7DFF800F0C1FD002807D10949DD
:1020D0004FF080500860BFF34F8FBFF36F8F10BD7C
:1020E0004400002072746F735C7461736B732E63B1
:1020F0000000000004ED00E001490120C8617047C4
:10210000440000202DE9F0418846040004D126A1B6
:1021100041F2E310FFF706FEFFF75CFF5020EFF3FC
:10212000118680F31188BFF34F8FBFF36F8F94F840
:102130005800022184F85810616D491C616501281E
:102140002DD1A06A20B118A141F20920FFF7EAFDC4
:10215000194D286B012780B1184804F1180100BF00
:10216000FFF715FEE06A2968C96A884217D9B8F1F5
:10217000000F13D0C8F8007011E0201DFFF792FD8A
:10218000E16A2A6907FA01F01043286101EB810036
:102190000A49A03901EB8000211DE1E7EF6186F3D8
:1021A0001188BDE8F081000072746F735C74617314
:1021B0006B732E6300000000440000209801002093
:1021C00070B50D46040004D108A140F60630FFF7B3
:1021D000A9FD0A48016820461831FFF7C0FD2846CE
:1021E000BDE870400121FFF74DB8000072746F73B5
:1021F0005C7461736B732E63000000004400002068
:1022000070B514460D46060004D10AA140F63130DF
:10221000FFF788FD0B48016830461831FFF7B7FD1E
:102220000CB14FF0FF3521462846BDE87040FFF75E
:1022300029B8000072746F735C7461736B732E63E2
:10224000000000004400002070B5040039D01D4D8E
:10225000E06A2968C96A884233D2A069002804DB91
:102260002868C06AC0F10600A061E16A164E01EB61
:102270008101606906EB810188421FD1201DFFF7B3
:1022800011FD012150B9E06A00EB800256F82220CE
:1022900022B92A6901FA00F082432A612868C06ADB
:1022A000E0622A6981401143296100EB800006EB5E
:1022B0008000211DBDE87040FFF769BD2868C06A35
:1022C000E06270BD44000020F800002010B504005A
:1022D00004D105A140F6C130FFF724FD0648016A8C
:1022E0002160C068606010BD72746F735C7461734C
:1022F0006B732E6300000000440000201CB51648DC
:102300000024CDE900402346402214A1154800F0E6
:102310005DFB012803D100F02DFD012808D0401CF1
:1023200019D1BDE81C4010A140F28470FFF7FABC3F
:10233000502080F31188BFF34F8FBFF36F8F064893
:102340004FF0FF312C38816201214161C460BDE84A
:102350001C4000F07DB81CBD7000002049444C4575
:10236000000000008D15000872746F735C74617357
:102370006B732E630000000070B5084C0546E068E2
:10238000A16A2844884204D905A140F67110FFF7DC
:10239000C9FCE0682844E06070BD000044000020F3
:1023A00072746F735C7461736B732E630000000052
:1023B0000248016B491C0163704700004400002083
:1023C00070B51D4C206B10B10120E06170BD002084
:1023D000E06120684FF0A531006B02688A4208D1A5
:1023E00042688A4205D182688A4202D1C068884226
:1023F00004D0216820683431FFF775FC20690F4D47
:10240000B0FA80F0C0F11F0000EB800655F82600FE
:1024100020B90BA140F6F620FFF784FC05EB8600FF
:1024200000F10802416849684160914201D1496860
:102430004160C868206070BD44000020F8000020A2
:1024400072746F735C7461736B732E6300000000B1
:102450001CB5194908780190FF20087008788DF89C
:1024600000009DF80000154C00F05000207007207F
:10247000606105E09DF8002052008DF80020401EAC
:102480009DF800201206F5D4000200F4E0606061BF
:10249000019808700A48016841F470010160016800
:1024A00041F070410160FFF705FD00206060FDF71D
:1024B0003DFE00201CBD000000E400E09400002070
:1024C00020ED00E010B5502080F31188BFF34F8F4E
:1024D000BFF36F8F00F0BAFA18B104494FF0805083
:1024E0000860002080F3118810BD000004ED00E0BA
:1024F0002DE9F04117460E46050004D10FA14FF417
:10250000C470FFF70FFCAEB105FB06F05030FFF7CB
:1025100087FA04000CD004F150006EB12060C4E9C9
:102520000F562046012100F0C7F8204684F84C7071
:10253000BDE8F0810020E9E72460F0E772746F7372
:102540005C71756575652E63000000002DE9FF4F15
:10255000002683B09B468A46040004D151A140F274
:10256000DC40FFF7DFFBBAF1000F06D1206C20B191
:102570004CA140F2DD40FFF7D5FB00F053FA30B933
:10258000059820B147A14FF49C60FFF7CBFBDFF823
:1025900024814FF000094FF0805700BFFFF704FC83
:1025A000A56B4DB351462046E668FEF75BFFBBF1D5
:1025B000000F14D0E660606A58B104F1240000BF37
:1025C00000F000FB28B1C8F80070BFF34F8FBFF3D5
:1025D0006F8FFFF711FC012007B0BDE8F08F6D1E73
:1025E000A563206810B9FFF795FA6060206900289C
:1025F000EFD004F11000E3E7059808B11EB106E042
:10260000FFF7FAFB27E06846FFF760FE0126FFF7B9
:10261000F3FBFFF7CDFEFFF7C7FB94F94400401C26
:1026200001D184F8449094F94500401C01D184F80C
:102630004590FFF7E1FB05A9684600F08FF90028F7
:1026400020460AD0FFF7B6F900F000FB2046FFF75E
:1026500057F80028A2D00020BEE7FFF751F8D8B104
:10266000206830B9FFF7A0FB6068FFF7EDFDFFF7CA
:10267000C3FB04F124000599FFF7A2FD2046FFF7F4
:1026800099F900F0E3FA002888D1C8F80070BFF388
:102690004F8FBFF36F8F81E72046FFF78BF900F074
:1026A000D5FA7BE772746F735C71756575652E631F
:1026B0000000000004ED00E070B50D46040004D1F8
:1026C0001DA140F21B10FFF72DFBFFF76DFBD4E9B6
:1026D0000F20216802FB001161600021A1632168C5
:1026E000A1600A46D4E90F01401E00FB0121E16010
:1026F00021464FF0FF3001F8440F487004F11000FC
:1027000055B1FFF71EFB04F12400FFF71AFB00BFD1
:10271000FFF772FB012070BD21690029F8D000F09D
:1027200051FA0028F4D008494FF080500860BFF3F8
:102730004F8FBFF36F8FEBE772746F735C717565CA
:1027400075652E630000000004ED00E02DE9FF47F1
:1027500082B01D468A464FF00008040004D14CA107
:1027600040F2D920FFF7DEFABAF1000F06D1206C53
:1027700020B147A140F2DA20FFF7D4FA022D07D1A9
:10278000E06B012804D042A140F2DB20FFF7CAFA37
:1027900000F048F930B9049820B13DA140F2DE20A4
:1027A000FFF7C0FA3E4F4FF000094FF0805600BFD0
:1027B000FFF7FAFAA06BE16B884207D3022D05D030
:1027C0000498D0B1B8F1000F1AD01EE02A46514645
:1027D0002046FEF75AFE616A19B104F1240000F0A8
:1027E000F1F920B13E60BFF34F8FBFF36F8FFFF75A
:1027F00003FB012006B0BDE8F087FFF7FDFA22E0F9
:102800006846FFF763FD4FF00108FFF7F5FAFFF7A1
:10281000CFFDFFF7C9FA94F94400401C01D184F8B8
:10282000449094F94500401C01D184F84590FFF78D
:10283000E3FA04A9684600F091F830B12046FFF7AA
:10284000B9F800F003FA0020D4E7FFF7ADFAA06B67
:10285000E16B884213D1FFF7CFFA04F1100004991D
:10286000FFF7AEFC2046FFF7A5F800F0EFF90028CF
:102870009ED13E60BFF34F8FBFF36F8F98E7FFF796
:10288000BBFA2046FFF796F800F0E0F990E7000069
:1028900072746F735C71756575652E63000000005E
:1028A00004ED00E02DE9F0471F46904689460400FC
:1028B00004D126A140F29F30FFF734FAB9F1000F9E
:1028C00006D1206C20B121A14FF46870FFF72AFADD
:1028D000022F07D1E06B012804D01CA140F2A130E7
:1028E000FFF720FAFFF776FB5020EFF3118680F315
:1028F0001188BFF34F8FBFF36F8FA06BE16B8842DE
:1029000006D3022F04D0002086F31188BDE8F0879B
:1029100094F945503A4649462046FEF7B6FD681CF4
:1029200004D06D1C84F845500120EDE7606A002852
:10293000FAD004F1240000F045F90028F4D0B8F1F1
:10294000000FF1D00121C8F80010EDE772746F7329
:102950005C71756575652E630000000070B50D46ED
:10296000040004D114A140F6CB30FFF7DBF925B900
:1029700011A140F6CC30FFF7D5F9FFF715FA124A4E
:10298000D1682868431C0FD02368126A934202D092
:1029900062688A420AD96268891A814206D2401A5C
:1029A00028602046FFF792FC002400E00124FFF796
:1029B00023FA204670BD000072746F735C746173FB
:1029C0006B732E6300000000440000202DE9FF5FC0
:1029D0008346DDE90E87994616468A469000FFF742
:1029E0001FF805001AD05C20FFF71AF8040012D077
:1029F00025630021CDE90241CDE900874B463246EF
:102A000051465846FEF7ECFD2046FEF773FC0120C8
:102A100004B0BDE8F09F2846FFF70CFA4FF0FF30F6
:102A2000F6E700000548416919B1006B18B10020B4
:102A300070470120704702207047000044000020CA
:102A40000148C06870470000440000202DE9F041B3
:102A50002F4C0027206B18B1A069401CA0614FE0EB
:102A6000E668761CE66010D1606B006820B129A191
:102A700040F6D910FFF756F9606BA16B6163A06354
:102A8000206A401C2062FEF70DFFA06ADFF89480E8
:102A9000864209D3606B006890B1606BC068C568FE
:102AA000686886420FD2A0622068C06A00EB80018D
:102AB00058F82100012800D90127A06900B321E0BE
:102AC0004FF0FF30EFE7281DFFF7ECF8A86A18B1C8
:102AD00005F11800FFF7E6F8E86A01212269814054
:102AE0001143216100EB800108EB8100291DFFF7F4
:102AF0004EF9E86A2168C96A8842CBD30127C9E741
:102B0000FFF7FAF8E06900B101273846BDE8F08127
:102B10004400002072746F735C7461736B732E6376
:102B200000000000F800002070B504004FF000061F
:102B30003AD01E4D2868844204D01DA140F6C760DB
:102B4000FFF7F0F8206D20B919A140F6C960FFF732
:102B5000E9F8206D401E2065E26CE16A914223D0C5
:102B600010BB201DFFF79EF8154A012150B9E06AFD
:102B700000EB800352F8233023B92B6901FA00F0EF
:102B800083432B61E06CE062C0F10600A061E06A63
:102B90002B6981401943296100EB800002EB800022
:102BA000211DFFF7F4F80126304670BD44000020D7
:102BB00072746F735C7461736B732E63000000003A
:102BC000F80000202DE9F041C068C46824B919A1BB
:102BD00040F66130FFF7A6F804F118000746FFF74A
:102BE00061F8184D286B012660B11748394600BFBF
:102BF000FFF7CDF8E06A2968C96A884213D9012431
:102C0000EE6111E0201DFFF74DF8E16A2A6906FA2E
:102C100001F01043286101EB81000B49A03901EB61
:102C20008000211DE4E70024FEF73CFE2046BDE8BD
:102C3000F081000072746F735C7461736B732E6348
:102C40000000000044000020980100202DE9F0471A
:102C50002B4C00252E46206B20B92AA14FF4FD6095
:102C6000FFF760F8FFF7A0F8206B401E2063206B91
:102C7000E8BBA168274F0120C9B3A7F1A00980468E
:102C80003868E8B1F868C56805F11800FFF70AF878
:102C9000281DFFF707F8E86A226908FA00F11143D6
:102CA000216100EB800109EB8100291DFFF76FF81E
:102CB000E86A2168C96A8842E2D3C4F81C80DFE769
:102CC0000DB1FEF7EFFDA56945B14746FFF7BEFE22
:102CD00000B1E7616D1EF9D10020A061E06930B15B
:102CE0000D49012630070860BFF34F8F00E001E077
:102CF000BFF36F8FFFF780F83046BDE8F087000024
:102D00004400002072746F735C7461736B732E6384
:102D1000000000009801002004ED00E02DE9F047DC
:102D20000746994616460D462C20DDF820A0FEF7F2
:102D300077FE040013D0B8464F46D14625B909A105
:102D40004FF4C670FEF7EEFFFEF73CFB04F11801EE
:102D5000C4F8008081E8E002201DFEF7FDFF204658
:102D6000BDE8F08772746F735C74696D6572732E61
:102D7000630000001CB50024FEF724FB0B4800682C
:102D800060B10A490520091DCDE900010023802218
:102D900007A10948FFF71AFE040004D107A140F279
:102DA0003310FEF7BFFF20461CBD0000800000204E
:102DB000546D7220537663009119000872746F731A
:102DC0005C74696D6572732E630000002DE9FF4726
:102DD0009946DDF830A090460E4607004FF00004FB
:102DE00004D112A14FF4D370FEF79CFF134D286855
:102DF00080B1CDE900680297062E11DAFFF712FEC6
:102E000002284FF0000309D0002269462868FFF726
:102E10009DFC044604B02046BDE8F0875246F4E726
:102E200000234A466946FFF73DFDF2E772746F736F
:102E30005C74696D6572732E630000008000002071
:102E4000602E000800000020C8000000480F0008A5
:102E5000282F0008C800002060390000580F000823
:102E60000000000000000000030406080C101820F9
:102E700030000000000102030401020304060708F9
:102E8000090000000048E801030406080C1018209F
:102E900030000000000000000001020304060708E3
:102EA0000900000000000000000000000000000019
:102EB0000000000000000000000000000000000012
:102EC0000000000000000000000000000000000002
:102ED00000000000000000000000000000000000F2
:102EE00000000000000000000000000000000000E2
:102EF0000000000000000000AAAAAAAA000000002A
:102F000000000000000000000000000000000000C1
:102F100000000000000000000000000000000000B1
:082F20000000000000000000A9
:04000005080000F5FA
:00000001FF
