:020000040800F2
:10000000383A0020A10100081B040008A3030008DF
:10001000190400080D030008AD0A000800000000E4
:1000200000000000000000000000000009010008BE
:100030000F030008000000004D010008BD25000866
:10004000BB010008BB010008BB010008BB010008A0
:10005000BB010008BB010008BB010008BB01000890
:10006000BB010008BB010008BB010008BB01000880
:10007000BB010008BB010008BB010008BB01000870
:10008000BB010008BB010008BB010008BB01000860
:10009000BB010008BB010008BB010008BB01000850
:1000A000BB010008BB010008BB010008BB01000840
:1000B000BB010008BB010008BB010008BB01000830
:1000C000BB010008BB010008BB010008BB01000820
:1000D000BB010008BB010008BB010008BB01000810
:1000E000BB010008BB010008BB010008BB01000800
:1000F000BB010008DFF80CD000F0BAF80048004758
:10010000D10F0008383A0020224B19680868B0E87F
:10011000F00F80F30988BFF36F8F4FF0000080F37A
:1001200011884EF00D0E7047000000000648006870
:10013000006880F3088862B661B6BFF34F8FBFF3E3
:100140006F8F00DF00BF00BF08ED00E0EFF3098014
:10015000BFF36F8F0F4B1A6820E9F00F106008B5DE
:100160004FF0500080F31188BFF34F8FBFF36F8FB4
:1001700002F0A2F94FF0000080F31188BDE80840BA
:1001800019680868B0E8F00F80F30988BFF36F8F33
:10019000704700BF58000020EFF305807047000053
:1001A0000648804706480047FEE7FEE7FEE7FEE711
:1001B000FEE7FEE7FEE7FEE7FEE7FEE71D090008B3
:1001C000F500000840EA01039B0703D009E008C9D5
:1001D000121F08C0042AFAD203E011F8013B00F80C
:1001E000013B521EF9D27047D2B201E000F8012B58
:1001F000491EFBD270470022F6E710B513460A46A7
:1002000004461946FFF7F0FF204610BD2DE9F05FC8
:100210000546002092469B46884606468146402475
:100220001BE0284641464746224600F042F8534626
:100230005A46C01A914110D311461846224600F082
:1002400029F82D1A67EB01084F46224601200021AC
:1002500000F020F817EB00094E41201EA4F1010424
:10026000DFDC484631462A464346BDE8F09F0000A1
:10027000064C074D06E0E06840F0010394E80700F3
:1002800098471034AC42F6D3FFF738FF382F0008F8
:10029000582F0008202A04DB203A00FA02F100203F
:1002A00070479140C2F1200320FA03F319439040B4
:1002B0007047202A04DB203A21FA02F0002170471F
:1002C00021FA02F3D040C2F12002914008431946BE
:1002D00070470000064810B500231A4619464069C9
:1002E00002F0B0FABDE8104002A000F02BBC000004
:1002F000000000200A0D67697665206175746F2023
:1003000072656C6F61642073656D6100FEE7704714
:10031000F0B5002301244FF0030E00BF0D6804FA6E
:1003200003F21540954222D106685D000EFA05FCE5
:100330000F7926EA0C06AF40374307600E79012E8D
:1003400001D0022E0CD186684F7926EA0C06AF4008
:1003500037438760868896438A799A403243828001
:10036000C668CA7926EA0C06AA403243C2605B1C02
:10037000102BD3D3F0BD4B07DB0E9A40C90810B544
:1003800000EB8100016A0F249C40A1430162016AD5
:100390001143016210BD41837047828A4A408282C4
:1003A0007047FEE71CB52020009003208DF8040064
:1003B0000020064C8DF8070069462046FFF7A8FF8D
:1003C00020212046FFF7E7FF1CBD0000000402408B
:1003D0001CB50121022000F09FF820200090012090
:1003E0008DF8040000208DF8060003218DF805101B
:1003F000054C8DF8070069462046FFF789FF20214C
:100400002046FFF7C8FF1CBD000402402021014820
:10041000FFF7C3BF00040240FEE7704702490843EC
:1004200002490860704700000000FA050CED00E08A
:1004300010B500F073FA00F049F94FF4E13000F024
:1004400037FBFFF7C5FFBDE8104001A000F07ABB05
:100450000A0D706F73742073746F702B2B2B2B2B02
:100460002B2B2B2B2B2B2B2B2B00000010B505A09F
:1004700000F068FBFFF796FF0121BDE81040084639
:1004800000F02AB80A0D7072652073746F702D2DFC
:100490002D2D2D2D2D2D2D2D2D2D2D2D2000000020
:1004A000064810B500231A461946806902F0CAF9B9
:1004B000BDE8104002A000F045BB00000000002095
:1004C0000A0D67697665206F6E652073686F74200A
:1004D00073656D61000000000A4B1A6822F0030288
:1004E00002431A600848026842F0040202600129CF
:1004F00005D020BF016821F004010160704730BFC2
:10050000F8E700000070004010ED00E001490862CB
:100510007047000000000E42044A0029116801D013
:10052000014300E081431160704700001C38024025
:10053000044A0029116801D0014300E081431160A1
:100540007047000024380240044A0029116801D095
:10055000014300E0814311607047000018380240F9
:10056000044A0029116801D0014300E08143116071
:100570007047000020380240044A0029116801D069
:10058000014300E0814311607047000014380240CD
:1005900030B5254A1168A2F1040411F00C034FF4A0
:1005A000004105D0042B09D0082B09D00C2B09D011
:1005B0002368C3F342335B1C994018E01B4916E0E3
:1005C0001B4914E01168136801F47011194C03F40D
:1005D000400304EB91410978012404EB9353146820
:1005E00014F4803F1DD0124C6143B1FBF3F1016064
:1005F00011680F2303EA11110E4B09335C5C01688B
:10060000E14041601468072505EA14241C5D21FAC5
:1006100004F48460126805EAD2229A5CD140C16079
:1006200030BD024CE0E70000083802400024F4002E
:1006300000127A001E000020014600204A09012A0B
:1006400009D0064A126801F01F0101238B401342B2
:1006500000D001207047014A343AF3E734380240B1
:10066000024900220A7008707047000035380240C5
:100670000149086070470000D8064742C0F30141B5
:10068000032907D1094A116821F0C04300F0C04195
:1006900019431160054934310A6822F440320A6076
:1006A0000A6800F4403002430A6070470038024094
:1006B000C0F3100040F08000C1430348026802F01C
:1006C00080021143016070470C28004030B585B0AE
:1006D00000240121049408070394FFF729FF012057
:1006E000FFF714FF002000F07FF840F60A25A8422B
:1006F00024D00120FFF7B4FF4920FFF79DFF002819
:10070000FAD04FF48030FFF7B9FFFF2003907F202D
:1007100004900120FFF7ACFF00F070F804980190FE
:10072000039802900094684600F036F829460020AD
:1007300000F088F800F062F805B030BD00F05EF817
:100740004FF48070FFF7B4FFF6E7000008B5002013
:1007500000900C480168490612D44FF0FF31016047
:1007600043140168009A01F04001521C00929A4221
:1007700001D00029F5D00068400601D4002008BD52
:10078000012008BD0C2800400248016821F08001CA
:10079000016070470C28004070B5124D04460026D9
:1007A000CA20286053202860FFF7D0FFA8B10D4869
:1007B0001C38016821F04001016001682268114382
:1007C00001600848A168143801600168A28841EA04
:1007D00002410160FFF7D8FF0126FF202860304664
:1007E00070BD00002428004008B5034901EB8000DB
:1007F0000090006808BD00005028004018B5002097
:100800000F490090CA200860532008600C4818382F
:10081000026822F0A0020260C4130268009B02F08A
:1008200020025B1C0093A34201D0002AF5D000688F
:10083000800601D5012000E00020FF220A6018BDDB
:100840002428004008B5034A02EB800000900160B4
:1008500008BD0000502800400CB500202C49019034
:1008600000900A6842F480320A604FF4A0430A689C
:1008700002F400320092019A521C0192009A12B9BD
:10088000019A9A42F3D10A6892033FD50120009061
:100890002048026842F004020260026842F002024C
:1008A0000260026842F001020260194824300268C6
:1008B00042F080520260C214174802604268D206B9
:1008C000FCD41348083002680260026802600268C3
:1008D0000260026822F47D020260026842F41102A2
:1008E00002600A6842F080720A600A689201FCD5D0
:1008F000016821F003010160016841F0030101601A
:100900000168C1F381010329FAD10CBD00900CBD2F
:1009100000380240003C024000700040104810B512
:10092000016841F4807101600D4908310A680D4B7E
:100930001A400A6002680C4B1A400260026822F4F6
:1009400080220260086820F47D000860091D0020F4
:100950000860FFF781FF05494FF00060086010BD97
:10096000003802400CC0FF88FEFFFEEE08ED00E0FC
:10097000C943018070470029818902D041F40051A8
:1009800001E021F40051818170470000174910B542
:1009900088420AD101218C032046FFF7EDFD204655
:1009A000BDE810400021FFF7E7BD1149884202D1A0
:1009B00001214C0410E00F49884202D101218C042E
:1009C0000AE00D49884202D10121CC0404E00B4920
:1009D00088420AD101210C052046FFF7B5FD2046CB
:1009E000BDE810400021FFF7AFBD10BD0038014049
:1009F0000044004000480040004C004000500040CF
:100A00007FB50446008A0D4620F44051E88808432B
:100A10002082A08941F20C618843A9882A89114368
:100A20006A8902431143A181A08A20F44071A889F8
:100A30000843A0826846FFF7ABFD1948844201D104
:100A4000039800E00298A189090400EBC00101EBC2
:100A50000010296801D5490000E08900B0FBF1F0E1
:100A60006422B0FBF2F109010B096FF018056B432A
:100A700000EB8300A3891D044FF0320306D503EB7E
:100A8000C000B0FBF2F000F0070005E003EB00103F
:100A9000B0FBF2F000F00F00084320817FBD0000A2
:100AA00000380140C1F3080181807047FEE7000073
:100AB00070B50446012186B00846FFF72DFD0121DF
:100AC0008803FFF74DFD1D4D2846FFF75FFF00949B
:100AD0000024ADF808400C20194EADF80440ADF8E4
:100AE0000A00ADF80640ADF80C4007220921304657
:100AF000FFF741FC07220A213046FFF73CFC4FF488
:100B0000C060049002208DF8140003208DF81500B9
:100B10008DF816408DF8174004A93046FFF7F8FB12
:100B200069462846FFF76CFF01212846FFF723FF9F
:100B300040212846FFF71CFF06B070BD0038014079
:100B4000000002400FB4054B10B503A9044A0298F7
:100B500000F018F810BC5DF814FB0000E10E00086E
:100B6000D800002002E008C8121F08C1002AFAD1EC
:100B700070477047002001E001C1121F002AFBD11D
:100B8000704700002DE9FF4F8DB09B460F4604468D
:100B9000002606E025280BD05A460F999047641C82
:100BA000761C20780028F5D111B03046BDE8F08FD2
:100BB0000025A8460122974900E0054314F8013FAB
:100BC000203B02FA03F00842F7D120782E2817D1F3
:100BD00014F8010F45F004052A280ED06FF02F02FB
:100BE0002078A0F1300109290AD808EB880102EB2E
:100BF000410100EB0108641CF2E757F8048B641C08
:100C000020786C280DD004DC4C2812D06A2811D131
:100C100004E074280DD07A280CD10AE045F40015C0
:100C200007E0617845F48015814202D1641C05F526
:100C30008015641C2278692A45D008DC002AB3D0CC
:100C4000582A67D0632A10D0642A08D13BE0702A62
:100C500065D0732A13D0752A5AD0782A5AD01046F4
:100C60005A460F999047761CD1E017F8040B8DF87F
:100C7000000000208DF80100E946012003E057F84C
:100C8000049B4FF0FF3069074FF0000501D40AE0E4
:100C90006D1C45450DDA8542FADB19F8051000296F
:100CA000F6D106E06D1C8542FCDB19F80510002921
:100CB000F8D12E4404E019F8010B5A460F999047D9
:100CC0006D1EF8D2A3E00A200021CDE90801C5F38A
:100CD000025002280BD001CFC11700290DDA4FF0C6
:100CE000000CD0EB0C006CEB01012D2308E0FF1D84
:100CF00027F00707F7E80201EFE72B0504D52B23C0
:100D00008DF8283001233BE0EB0739D02023F7E7AB
:100D10000A2000E010200021CDE9080107E01020A2
:100D2000002145F00405CDE908014FF00808C5F39E
:100D3000025002280FD001CF00214FF0000A2B07EC
:100D40001FD5702A0DD0DDE908C38CF0100C5CEAC9
:100D5000030C0CD015E0FF1D27F00707F7E8020190
:100D6000EBE740228DF828204FF0010A0BE050EA13
:100D7000010306D030238DF828308DF82920022376
:100D80009A46582A04D024A20DF120090B9209E0BA
:100D900026A2F9E7DDE90823FFF738FA0B9B9B5CF5
:100DA00009F8013D50EA0102F4D1ADEB0900203011
:100DB0000890680701D44FF001080899884502DDC2
:100DC000A8EB010000E000208046002506E00AA80C
:100DD0005A46405D0F9990476D1C761C5545F6DBD1
:100DE00004E030205A460F999047761CB8F1000174
:100DF000A8F10108F5DC05E019F8010B5A460F9936
:100E00009047761C0899481E08900029F4DC641C61
:100E1000C7E6000009280100303132333435363757
:100E20003839616263646566000000003031323336
:100E300034353637383941424344454600000000D6
:100E400009490120096809B1002070470749CA69AA
:100E5000002AF9D1044A896828321268491E8A4258
:100E6000F3D1022070470000AC01002058000020A0
:100E700070B5040004D114A140F2FB4000F048FF1B
:100E8000154E3068844201D1002070BD00F082FF11
:100E9000656900F0A7FF706B854202D0B06B854298
:100EA00001D1022070BD0D48854204D1A06A0028FE
:100EB000F7D1032070BD09481438854202D00DB126
:100EC000012070BD042070BD72746F735C74617317
:100ED0006B732E630000000058000020D401002036
:100EE00070B5054C0546C1B22046FFF7DBFD2088F2
:100EF0000006FCD5284670BD003801401CB5032211
:100F00000021012001F070FB1D4C032200216061D3
:100F1000012001F069FBA0611A48012300901A46E4
:100F20004FF47A7118A001F075FFE0601A48009044
:100F3000022300224FF4FA6118A001F06BFF206138
:100F400021460120CDE900010023802217A1194884
:100F500001F0B8FD211D0320CDE90001002380220E
:100F600015A1174801F0AEFD04F108010520CDE9F7
:100F700000010023802213A1144801F0A3FD1CBD31
:100F800000000020D50200084175746F52656C6F37
:100F9000616454696D657200A10400084F6E655369
:100FA000686F7454696D6572000000007461736B42
:100FB000310000005D1900087461736B320000009D
:100FC000E91900087461736B33000000F11B00081D
:100FD00000F0B2FCFFF792FF02A0FFF7B3FD01F0B3
:100FE000ADF9FEE773746D33324C31787820696E59
:100FF0006974206F6B2E000010B510B104461CB14F
:1010000007E005480468FAE704A140F68C0000F008
:101010007FFE04F1340010BD5800002072746F731D
:101020005C7461736B732E63000000002DE9F04166
:10103000184C0F460546E6682068001D00F01CFEAF
:1010400038B9206890F82C1001208840216981432C
:101050002161681C07D137B12168BDE8F0410E4815
:10106000091D00F08ABE20683544B54245602168FC
:1010700005D2A06BBDE8F041091D00F066BE606BB3
:10108000091D00F062FEA06A854200D2A562BDE89B
:10109000F081000058000020D40100202DE9F0412B
:1010A000054600F077FE2E4CA068401CA06020682A
:1010B0002C4F10B1606940B32DE02560A068012875
:1010C00029D1002606EB860007EB800000F02FFEFA
:1010D000761C062EF6D32348783000F028FE2148EF
:1010E0008C3000F024FE1F48A03000F020FE1D4888
:1010F000B43000F01CFE1B48C83000F018FE194840
:10110000783060631430A06305E02068E96AC06A43
:10111000884200D82560606A401C60626864E96AA1
:101120000120226988401043206101EB810007EB18
:101130008000291D00F021FE00F054FE60690028A7
:101140000CD02068E96AC06A884207D206494FF08D
:1011500080500860BFF34F8FBFF36F8FBDE8F08101
:10116000580000200C01002004ED00E010B500F054
:1011700011FE0E4C2068A0B90D4800F0D8FD0C48B7
:10118000143000F0D4FD0A48E060143020610022E1
:1011900010210A2001F028FA206010B105A100F00A
:1011A00041FFBDE8104000F01DBE0000940000208B
:1011B000E8010020546D72510000000070B5114E1E
:1011C000114C17E001F070F93068B8B101F0BAFDC8
:1011D00000F0E0FDF068C568281D00F04DFDA06836
:1011E000401EA0606068401E606000F0FBFD284665
:1011F00000F055F860680028E4D170BD01F0A2FD50
:10120000F8E70000C00100205800002030B4026C54
:101210000B46002A0BD0C1681144C1604468A1424A
:1012200001D30168C16030BC1846FEF7CBBF30BCAB
:1012300070472DE9F041856B174604460026026C85
:1012400082B1C7B1E068FEF7BDFFE168206C091A02
:10125000E1602268914202D26168081AE060022FC0
:1012600016D017E02068A8B9606801F0D9FC0646DE
:10127000002060600EE0A068FEF7A4FF216CA0686B
:101280000844A0606168884204D32068A06001E03F
:1012900005B16D1E6D1CA5633046BDE8F08110B52B
:1012A0000446006B00F0BCFD2046BDE8104000F095
:1012B000B7BD00000A4800210269012A00D90121B6
:1012C0000268D26A0AB100207047064A1268012AF1
:1012D000F9D80029F7D1816AC068081A7047000060
:1012E000580000200C01002010484FF42051420704
:1012F00006D0C01D0D4920F00700411AC1F520514C
:101300000B4A00230144C2E900030839103A21F0D6
:10131000070111604B600B600B1AC0E9001393606A
:101320004FF000405360D06070470000380200204A
:10133000D00000200F4C40F68C4500BFFFF73EFF69
:1013400000F0BAFCFFF7B6FF0528F7D301F0ACF8C0
:10135000A06AE168884203D207A1284600F0D8FCC1
:10136000FFF7A8FF052801D300F0B8FD01F0EAFC63
:10137000E4E700005800002072746F735C746173BE
:101380006B732E63000000002DE9F0470E46DDE987
:1013900009841746824691009946089DA522206B34
:1013A000FEF722FF6FF00301206B01EB8701084479
:1013B00020F00707780704D0194940F22B3000F0DD
:1013C000A7FC00202218315C82F83410315C11B186
:1013D000401C1028F6D3002684F84360062D00D365
:1013E0000525E562C4E91356201D00F0ABFC04F1AD
:1013F000180000F0A7FC2461C5F106006462A0613A
:10140000666584F858604A465146384600F082FACC
:101410002060B8F1000F01D0C8F80040BDE8F087A7
:101420002823000830B5114900E011460A688242BD
:10143000FBD34B685C18844203D140681844486071
:10144000084643681C18944209D1084C103C246893
:10145000A24209D052681A4442600A6812680260C7
:10146000814200D0086030BD0460F9E7D000002060
:1014700070B5002441600B4D0061914206D8D11A2D
:101480008269914206D2011D286907E09A4203D27F
:10149000994201D3012403E0011DE86800F055FCE6
:1014A000204670BD9400002010B5044600F072FC88
:1014B000A06B28B15FF0000400F094FC204610BD42
:1014C0000124F9E770B588B02E4E50E0049800284A
:1014D00006DADDE90601059A90470498002846DB04
:1014E000069C606910B1201D00F0C6FB02A800F048
:1014F000BDF8054604980A2839D2DFE800F0050552
:1015000005382535050538250598A16903460144A8
:101510002A462046FFF7ACFF28B3616A2046884779
:10152000E069012823D1002000900598A1690023DB
:1015300042181946204601F0C5FCA0B912A140F29C
:10154000213000F0E5FB12E00598A06120B90EA162
:101550004FF44E7000F0DCFBA0692B4641191A468F
:101560002046FFF785FF02E0204600F059FC0023EB
:101570001A4604A9306801F065F80028A6D108B021
:1015800070BD00009400002072746F735C74696D0C
:101590006572732E630000002DE9FC410F4605467D
:1015A00000F082FF01A800F061F80446019818B12C
:1015B00001F0C8FBBDE8FC81214EAFB13069006885
:1015C000D0B30027291B3A46306800F03FFD01F0F8
:1015D000B9FB0028EED11B494FF080500860BFF3E3
:1015E0004F8FBFF36F8FE5E7A542EBD801F0AAFB61
:1015F000F0682746C068C468201D00F03DFBE06924
:10160000012815D1A0692B4641193A462046FFF71B
:101610002FFF68B100200346014600902A4620466D
:1016200001F050FC20B908494FF4027000F070FB43
:10163000616A20468847BDE7FFE70127C2E700004F
:101640009400002004ED00E05C2E00080648416B89
:10165000096829B1416BC968C968496881627047E6
:101660004FF0FF31FAE700005800002070B5054642
:1016700001F062FA064E0446B068844203D200F0DC
:1016800009F8012000E0002028602046B46070BD09
:1016900094000020F8B5174D24E0C068C4680668BF
:1016A000201D00F0E9FA616A20468847E0690128B8
:1016B00018D1A0693044B04206D924616060211D70
:1016C000E86800F042FB0DE0002003460146009070
:1016D0003246204601F0F6FB20B9074940F292302D
:1016E00000F016FBE86801680029D6D12969C5E930
:1016F0000310F8BD940000205C2E000807484068E5
:10170000401C03D006A1F42000F002FB502080F31F
:101710001188BFF34F8FBFF36F8FFEE7A800002043
:1017200072746F735C706F727461626C655C706F01
:1017300072742E630000000070B50025040004D10F
:1017400008A140F2816000F0E3FA0A49606988422A
:1017500005D1A06A2839884201D000B90125284660
:1017600070BD000072746F735C7461736B732E6371
:1017700000000000D4010020074CE068016841B17E
:10178000C0680021D0F80000FFF706FFFFF79AFEBF
:10179000F3E701210020F7E7940000202DE9F04154
:1017A000044600F0F7FA94F9455004F1240609E0E4
:1017B000606A48B1304601F081FA08B100F0D4FC0B
:1017C0006D1E6DB2002DF3DC4FF0FF3684F84560DE
:1017D00000F008FB00F0DEFA94F9445004F1100721
:1017E00009E0206948B1384601F068FA08B100F014
:1017F000BBFC6D1E6DB2002DF3DC84F84460BDE8C7
:10180000F04100F0EFBA00002DE9F0410546002755
:1018100000F04AFE304E306808B9FFF765FDF06809
:1018200005424CD1002D4AD0083568070AD005F092
:101830000700C0F108000544680703D027A1BF20B6
:1018400000F066FADDB37068854238D8224810305F
:1018500001460C6801E020460C466168A94202D2AC
:1018600021680029F7D13168B0468C4227D007683B
:101870002168016060680837401B10280DD966197F
:10188000700703D015A1EC2000F042FA6068401BFD
:10189000706030466560FFF7C5FD6268D8F80410D7
:1018A0004046891AC8F80410D8F80830994200D286
:1018B0008160D8F80C0002430020C4E9000201F066
:1018C00041FA780704D005A14FF4967000F020FA91
:1018D0003846BDE8F0810000C000002072746F73CC
:1018E0005C706F727461626C655C4D656D4D616EAC
:1018F000675C686561705F342E63000004490868A6
:1019000018B10868026D521C026508687047000033
:101910005800002010B5031F4FF080741C601B1F7F
:1019200021F001011960191F024B0B601439403876
:101930000A6010BDFD16000810B5FEF7EFFF4FF46A
:101940004070FEF76BFD4FF4E130FFF7B1F8FEF7A2
:101950003FFDBDE81040FEF7B9BE000001240E4D6A
:10196000A71E2868FFF748FB0646286800F096F98E
:1019700003462246314609A0FFF7E4F800233A4621
:101980001946641C686900F05DFE0128E9D10EA0CB
:10199000FFF7D8F8E5E70000000000200A0D7468A2
:1019A00069732069732025732072756E74696D6583
:1019B0003A2025642E206D79207072696F726974E7
:1019C00079206973202564000A0D7461736B3120DE
:1019D0006765742074686520415273656D61706835
:1019E0006F72652E000000008AB0012500F0D2F968
:1019F00001F0A2F80026304C024600963346012141
:101A0000E06801F05FFA01F097F8024600960023C3
:101A10000121206901F056FA00F0E4F94FF47A67E9
:101A2000606800F03BF906466068FFF7E5FA01469A
:101A300033462A4621A0FFF785F8FEF7E7FC052389
:101A4000012201A9A06800F04DFB27A00299FFF731
:101A500079F829A00399FFF775F89DF810102BA0CD
:101A6000FFF770F830A00599FFF76CF835A00699DC
:101A7000FFF768F83AA00899FFF764F8BDF824105A
:101A80003DA0FFF75FF89DF81000032805D1A0687E
:101A900000F0F6FB41A0FFF755F800233A4619463F
:101AA000A06900F0CFFD012804D040A0FFF74AF85C
:101AB0006D1CB5E746A0F9E7000000200A0D746828
:101AC00069732069732025732072756E74696D6562
:101AD0003A2025642E206D79207072696F726974C6
:101AE00079206973202564000D0A7461736B206E80
:101AF000616D653A202573000D0A7461736B206E69
:101B0000756D6265723A2025640000000D0A7461EB
:101B1000736B2063757272656E7420737461746583
:101B20003A202564000000000D0A7461736B206385
:101B3000757272656E74207072696F726974793A29
:101B4000202564000D0A7461736B20626173652047
:101B50007072696F726974793A2025640000000020
:101B60000D0A7461736B20737461636B206261731F
:101B7000653A2025237800000D0A7461736B207389
:101B80007461636B2068696768207761746572208F
:101B90006D61726B3A202564000000000A0D7265C9
:101BA00073756D65207461736B3300000A0D746189
:101BB000736B32206661696C65642067657420749C
:101BC0006865204F5373656D6170686F72652E0094
:101BD0000A0D7461736B3220676574207468652028
:101BE0004F5373656D6170686F72652E0000000061
:101BF0000124104D03274FF47A78A86800F04EF8BE
:101C00000646A868FFF7F8F90146334622460AA0BF
:101C1000FEF798FF641C94FBF7F007FB104028B90F
:101C200011A0FEF78FFFA86800F0E2FB404600F02D
:101C30002FFAE2E7000000200A0D7468697320693A
:101C4000732025732072756E74696D653A20256462
:101C50002E206D79207072696F72697479206973B2
:101C60002025642C000000000A0D73757370656EEA
:101C700064207461736B3300D0E9013201699A60AA
:101C8000D0E901235A604A68824201D182684A60E1
:101C9000002202610868401E0860704710B50446C3
:101CA00000F078F80CB903480468E46A00F09AF888
:101CB000204610BD580000207047502080F3118846
:101CC000BFF34F8FBFF36F8FFEE7000010B500200A
:101CD0000D4B012203EBC0010C7934B90C6824B11F
:101CE0000C68641E0C6000D10A71401CC0B206284A
:101CF000F0D306480188491C89B20180B1F5FA7F0A
:101D000001D30021018010BDDC0000201C00002058
:101D100008B50020009000F03DF801E000BF00BFD2
:101D200000980028FAD0BDE8084000F05BB800F148
:101D300008014FF0FF32C0E90112C16001610021CA
:101D40000160704700210161704730B50B685A1C73
:101D500002D000F1080202E0026904E02246546861
:101D600025689D42FAD953684B6099608A6051603A
:101D700008610168491C016030BD42684A6093688F
:101D80008B6093685960916008610168491C01602B
:101D900070470000502080F31188BFF34F8FBFF3CE
:101DA0006F8F08494868401C4860012809D10648DF
:101DB000006810F0FF0F04D004A14FF4BD70FFF7CE
:101DC000A7BF7047A800002004ED00E072746F7395
:101DD0005C706F727461626C655C706F72742E639C
:101DE0000000000010B5074C606820B906A140F261
:101DF0008110FFF78DFF6068401E606001D180F3A5
:101E0000118810BDA800002072746F735C706F722F
:101E10007461626C655C706F72742E630000000008
:101E200070B5002828D0154DA0F108046068E96855
:101E3000084204D112A14FF4A070FFF769FF206897
:101E400020B10FA140F24110FFF762FF6168E8681E
:101E5000014211D02268002A0ED18143616000F056
:101E600023FB60686968084468602046FFF7DAFA77
:101E7000BDE8704000F066BF70BD0000C0000020EB
:101E800072746F735C706F727461626C655C4D65C7
:101E90006D4D616E675C686561705F342E63000034
:101EA0000C486FF07F430C4902684FF47A70B2FB24
:101EB000F0F0B3FBF0F3B2FBF2F2C1E902032D2321
:101EC000B3FBF2F20A614FF0E021401E48610720A7
:101ED0000861704738000020A80000202DE9F0417B
:101EE000364E0546F068854200D905464FF0E0249D
:101EF000206920F001002061A169B268681E02FB20
:101F000000173069874200D93F1A72B6BFF34F8F6E
:101F1000BFF36F8FFEF794FF68B167614FF0000861
:101F2000C4F81880206940F001002061FEF788FFA6
:101F300002280CD011E0A0696061206940F0010026
:101F40002061B068401E606162B6BDE8F08128463D
:101F5000FEF78CFA2846FEF76BFA206920F00101A3
:101F6000216162B6C0030DD5A069B168381A081A9C
:101F70003269401E904201D3884200D9481E6061F8
:101F80006D1E09E0B168A0694D43281AB0FBF1F558
:101F90006A1C4A43101A6061C4F81880FFF7FAFE01
:101FA000206940F001002061284600F005FAB06881
:101FB000401E6061BDE8F041FFF714BFA80000209B
:101FC00010B5FEF7E9F80F4C10280BD300F1E02014
:101FD00090F8F0032178884204D20BA140F2B1209E
:101FE000FFF796FE0E480068616900F4E0608842E1
:101FF00006D9BDE8104004A140F2C120FFF788BE19
:1020000010BD0000A800002072746F735C706F72C6
:102010007461626C655C706F72742E630000000006
:102020000CED00E010B5084B002200BF53F8324021
:102030001CB1521C052AF9D310BD43F8321003EB32
:10204000C201486010BD00001002002070B51546A6
:102050000E460446FFF79EFE94F944100020491CEA
:1020600001D184F8440094F94510491C01D184F849
:102070004500FFF7B7FEA06B28B92A46314604F1A8
:10208000240000F097F82046BDE87040FFF786BBBB
:1020900010B5040011D00D48006B20B10CA140F226
:1020A000CF40FFF735FE00F0FFF900212046FEF794
:1020B000BDFF00F047FE002807D109494FF08050CE
:1020C0000860BFF34F8FBFF36F8F10BD5800002023
:1020D00072746F735C7461736B732E630000000025
:1020E00004ED00E02DE9F0471E4691460C4607003E
:1020F0000ED0054605F13400C4E90050E86A2061BD
:10210000286BE061686CA060207B032803D00AE0A4
:1021100014480568EEE700F0C7F9A86A08B1022084
:10212000207300F00FFE4FF00008E86CC4E90508CA
:10213000052E01D0267303E03846FEF799FE207382
:10214000B9F1000F0BD00021286B01E0401C491CA5
:102150000278A52AFAD088082084BDE8F087A4F880
:102160002080FAE75800002001490120C86170472B
:102170005800002070B50D46040004D108A140F6B7
:102180000630FFF7C5FD0A48016820461831FFF701
:10219000DCFD2846BDE870400121FEF747BF000086
:1021A00072746F735C7461736B732E630000000054
:1021B0005800002070B514460D46060004D10AA14F
:1021C00040F63130FFF7A4FD0B4801683046183166
:1021D000FFF7D3FD0CB14FF0FF3521462846BDE88F
:1021E0007040FEF723BF000072746F735C746173FC
:1021F0006B732E63000000005800002070B50400CF
:1022000039D01D4DE06A2968C96A884233D2A06975
:10221000002804DB2868C06AC0F10600A061E16AFA
:10222000164E01EB8101606906EB810188421FD1E6
:10223000201DFFF721FD012150B9E06A00EB80026B
:1022400056F8222022B92A6901FA00F082432A6155
:102250002868C06AE0622A6981401143296100EB65
:10226000800006EB8000211DBDE87040FFF785BDB2
:102270002868C06AE06270BD580000200C01002090
:1022800070B504002BD01A4D286884422ED0FFF779
:1022900081FD2046FFF750FAE8B1201DFFF7ECFC66
:1022A000E06A01212A69814011432961114900EB4B
:1022B000800001EB8000211DFFF75FFDE06A2968C7
:1022C000C96A884207D30C494FF080500860BFF3B9
:1022D0004F8FBFF36F8FBDE87040FFF783BDBDE840
:1022E000704006A140F2AB60FFF712BD70BD000068
:1022F000580000200C01002004ED00E072746F73A0
:102300005C7461736B732E630000000010B50400F1
:1023100004D105A140F6C130FFF7FAFC0648016A76
:102320002160C068606010BD72746F735C7461730B
:102330006B732E6300000000580000201CB5164887
:102340000024CDE900402346402214A1154800F0A6
:10235000B9FB012803D100F089FD012808D0401CF9
:1023600019D1BDE81C4010A140F28470FFF7D0BC29
:10237000502080F31188BFF34F8FBFF36F8F064853
:102380004FF0FF312C38816201214161C460BDE80A
:102390001C4000F0D9B81CBD8400002049444C45C5
:1023A000000000003513000872746F735C74617371
:1023B0006B732E630000000070B5084C0546E068A2
:1023C000A16A2844884204D905A140F67110FFF79C
:1023D0009FFCE0682844E06070BD000058000020C9
:1023E00072746F735C7461736B732E630000000012
:1023F00070B50446FFF7CEFC244D04B92C68201DAF
:10240000FFF73AFC58B9E06A214A00EB800152F824
:10241000211021B901218140286988432861A06ADF
:1024200018B104F11800FFF727FC1948211DC83026
:10243000FFF7A3FCFFF7D6FC686928B1FFF7AAFCF9
:10244000FFF704F9FFF7CEFC2868844210D16869D1
:1024500078B1286B20B10FA140F25760FFF758FC0C
:1024600010494FF080500860BFF34F8FBFF36F8F5C
:1024700070BD0748A968C8300068884202D10020B2
:10248000286070BDBDE8704000F016B8580000200C
:102490000C01002072746F735C7461736B732E6334
:1024A0000000000004ED00E00248016B491C0163DC
:1024B000704700005800002070B51D4C206B10B113
:1024C0000120E06170BD0020E06120684FF0A5317F
:1024D000006B02688A4208D142688A4205D182684C
:1024E0008A4202D1C068884204D021682068343111
:1024F000FFF7E3FB20690F4DB0FA80F0C0F11F0039
:1025000000EB800655F8260020B90BA140F6F62016
:10251000FFF7FEFB05EB860000F108024168496801
:102520004160914201D149684160C868206070BD36
:10253000580000200C01002072746F735C7461738A
:102540006B732E63000000001CB5194908780190D8
:10255000FF20087008788DF800009DF80000154CE9
:1025600000F0500020700720606105E09DF8002019
:1025700052008DF80020401E9DF800201206F5D470
:10258000000200F4E0606061019808700A48016888
:1025900041F470010160016841F070410160FFF792
:1025A0007FFC00206060FDF7C1FD00201CBD000025
:1025B00000E400E0A800002020ED00E010B550206D
:1025C00080F31188BFF34F8FBFF36F8F00F0BAFA1B
:1025D00018B104494FF080500860002080F3118842
:1025E00010BD000004ED00E02DE9F04117460E4655
:1025F000050004D10FA14FF4C470FFF789FBAEB101
:1026000005FB06F05030FFF7FFF804000CD004F192
:1026100050006EB12060C4E90F562046012100F041
:10262000C7F8204684F84C70BDE8F0810020E9E747
:102630002460F0E772746F735C71756575652E6365
:10264000000000002DE9FF4F002683B09B468A461C
:10265000040004D151A140F2DC40FFF759FBBAF16C
:10266000000F06D1206C20B14CA140F2DD40FFF7F5
:102670004FFB00F053FA30B9059820B147A14FF451
:102680009C60FFF745FBDFF824814FF000094FF015
:10269000805700BFFFF77EFBA56B4DB35146204628
:1026A000E668FEF7B3FDBBF1000F14D0E660606A88
:1026B00058B104F1240000BF00F000FB28B1C8F8B5
:1026C0000070BFF34F8FBFF36F8FFFF78BFB0120BD
:1026D00007B0BDE8F08F6D1EA563206810B9FFF745
:1026E0000DF9606020690028EFD004F11000E3E7E5
:1026F000059808B11EB106E0FFF774FB27E06846B5
:10270000FFF704FE0126FFF76DFBFFF7CDFEFFF795
:1027100041FB94F94400401C01D184F8449094F9A1
:102720004500401C01D184F84590FFF75BFB05A9EB
:10273000684600F08FF9002820460AD0FFF72EF8EF
:1027400000F000FB2046FEF7AFFE0028A2D00020DC
:10275000BEE7FEF7A9FED8B1206830B9FFF71AFB33
:102760006068FFF74BFDFFF73DFB04F1240005997E
:10277000FFF700FD2046FFF711F800F0E3FA00280C
:1027800088D1C8F80070BFF34F8FBFF36F8F81E718
:102790002046FFF703F800F0D5FA7BE772746F73F9
:1027A0005C71756575652E630000000004ED00E046
:1027B00070B50D46040004D11DA140F21B10FFF7B7
:1027C000A7FAFFF7E7FAD4E90F20216802FB00110E
:1027D00061600021A1632168A1600A46D4E90F016C
:1027E000401E00FB0121E16021464FF0FF3001F85F
:1027F000440F487004F1100055B1FFF798FA04F146
:102800002400FFF794FA00BFFFF7ECFA012070BD37
:1028100021690029F8D000F051FA0028F4D00849C5
:102820004FF080500860BFF34F8FBFF36F8FEBE71F
:1028300072746F735C71756575652E6300000000BE
:1028400004ED00E02DE9FF4782B01D468A464FF0B7
:102850000008040004D14CA140F2D920FFF758FA37
:10286000BAF1000F06D1206C20B147A140F2DA2066
:10287000FFF74EFA022D07D1E06B012804D042A1E8
:1028800040F2DB20FFF744FA00F048F930B9049831
:1028900020B13DA140F2DE20FFF73AFA3E4F4FF063
:1028A00000094FF0805600BFFFF774FAA06BE16B90
:1028B000884207D3022D05D00498D0B1B8F1000F9B
:1028C0001AD01EE02A4651462046FEF7B2FC616A45
:1028D00019B104F1240000F0F1F920B13E60BFF31A
:1028E0004F8FBFF36F8FFFF77DFA012006B0BDE871
:1028F000F087FFF777FA22E06846FFF707FD4FF011
:102900000108FFF76FFAFFF7CFFDFFF743FA94F9DD
:102910004400401C01D184F8449094F94500401CC7
:1029200001D184F84590FFF75DFA04A9684600F0EC
:1029300091F830B12046FEF731FF00F003FA002095
:10294000D4E7FFF727FAA06BE16B884213D1FFF7BA
:1029500049FA04F110000499FFF70CFC2046FEF739
:102960001DFF00F0EFF900289ED13E60BFF34F8FAE
:10297000BFF36F8F98E7FFF735FA2046FEF70EFF9B
:1029800000F0E0F990E7000072746F735C71756598
:1029900075652E630000000004ED00E02DE9F047AE
:1029A0001F4690468946040004D126A140F29F307C
:1029B000FFF7AEF9B9F1000F06D1206C20B121A1CB
:1029C0004FF46870FFF7A4F9022F07D1E06B0128DC
:1029D00004D01CA140F2A130FFF79AF9FFF7F0FAFA
:1029E0005020EFF3118680F31188BFF34F8FBFF3B0
:1029F0006F8FA06BE16B884206D3022F04D00020BA
:102A000086F31188BDE8F08794F945503A46494667
:102A10002046FEF70EFC681C04D06D1C84F845505F
:102A20000120EDE7606A0028FAD004F1240000F0EC
:102A300045F90028F4D0B8F1000FF1D00121C8F811
:102A40000010EDE772746F735C71756575652E63C8
:102A50000000000070B50D46040004D114A140F63A
:102A6000CB30FFF755F925B911A140F6CC30FFF76F
:102A70004FF9FFF78FF9124AD1682868431C0FD02D
:102A80002368126A934202D062688A420AD9626855
:102A9000891A814206D2401A28602046FFF736FC88
:102AA000002400E00124FFF79DF9204670BD0000DE
:102AB00072746F735C7461736B732E63000000003B
:102AC000580000202DE9FF5F8346DDE90E87994617
:102AD00016468A469000FEF797FE05001AD05C2045
:102AE000FEF792FE040012D025630021CDE90241D9
:102AF000CDE900874B46324651465846FEF744FC26
:102B00002046FEF7CBFA012004B0BDE8F09F28462E
:102B1000FFF786F94FF0FF30F6E7000005484169FE
:102B200019B1006B18B100207047012070470220D6
:102B300070470000580000200148C068704700003E
:102B4000580000202DE9F0412F4C0027206B18B1D0
:102B5000A069401CA0614FE0E668761CE66010D1D9
:102B6000606B006820B129A140F6D910FFF7D0F8BA
:102B7000606BA16B6163A063206A401C2062FEF75A
:102B800065FDA06ADFF89480864209D3606B006817
:102B900090B1606BC068C568686886420FD2A06259
:102BA0002068C06A00EB800158F82100012800D994
:102BB0000127A06900B321E04FF0FF30EFE7281DA7
:102BC000FFF75AF8A86A18B105F11800FFF754F892
:102BD000E86A0121226981401143216100EB8001F3
:102BE00008EB8100291DFFF7C8F8E86A2168C96A67
:102BF0008842CBD30127C9E7FFF768F8E06900B145
:102C000001273846BDE8F0815800002072746F73C8
:102C10005C7461736B732E63000000000C01002074
:102C200070B504004FF000063AD01E4D286884426B
:102C300004D01DA140F6C760FFF76AF8206D20B9E7
:102C400019A140F6C960FFF763F8206D401E2065AA
:102C5000E26CE16A914223D010BB201DFFF70CF813
:102C6000154A012150B9E06A00EB800352F8233085
:102C700023B92B6901FA00F083432B61E06CE06219
:102C8000C0F10600A061E06A2B6981401943296107
:102C900000EB800002EB8000211DFFF76EF801269B
:102CA000304670BD5800002072746F735C7461739D
:102CB0006B732E63000000000C0100202DE9F04131
:102CC000C068C46824B919A140F66130FFF720F844
:102CD00004F118000746FEF7CFFF184D286B0126B8
:102CE00060B11748394600BFFFF747F8E06A296826
:102CF000C96A884213D90124EE6111E0201DFEF754
:102D0000BBFFE16A2A6906FA01F01043286101EB72
:102D100081000B49A03901EB8000211DE4E700246C
:102D2000FEF794FC2046BDE8F081000072746F73DA
:102D30005C7461736B732E63000000005800002008
:102D4000AC0100202DE9F0472B4C00252E46206BCE
:102D500020B92AA14FF4FD60FEF7DAFFFFF71AF859
:102D6000206B401E2063206BE8BBA168274F012029
:102D7000C9B3A7F1A00980463868E8B1F868C5680A
:102D800005F11800FEF778FF281DFEF775FFE86AC9
:102D9000226908FA00F11143216100EB800109EB7F
:102DA0008100291DFEF7E9FFE86A2168C96A8842A7
:102DB000E2D3C4F81C80DFE70DB1FEF747FCA5693C
:102DC00045B14746FFF7BEFE00B1E7616D1EF9D180
:102DD0000020A061E06930B10D490126300708608C
:102DE000BFF34F8F00E001E0BFF36F8FFEF7FAFFF4
:102DF0003046BDE8F08700005800002072746F7301
:102E00005C7461736B732E6300000000AC010020E2
:102E100004ED00E02DE9F0470746994616460D46B9
:102E20002C20DDF820A0FEF7EFFC040013D0B846FC
:102E30004F46D14625B909A14FF4C670FEF768FF89
:102E4000FEF794F904F11801C4F8008081E8E0026B
:102E5000201DFEF777FF2046BDE8F08772746F7380
:102E60005C74696D6572732E630000001CB50024EC
:102E7000FEF77CF90B48006860B10A490520091D7E
:102E8000CDE900010023802207A10948FFF71AFEBF
:102E9000040004D107A140F23310FEF739FF2046A9
:102EA0001CBD000094000020546D72205376630016
:102EB0007917000872746F735C74696D6572732E94
:102EC000630000002DE9FF479946DDF830A09046E9
:102ED0000E4607004FF0000404D112A14FF4D37046
:102EE000FEF716FF134D286880B1CDE90068029700
:102EF000062E11DAFFF712FE02284FF0000309D068
:102F0000002269462868FFF79DFC044604B020466D
:102F1000BDE8F0875246F4E700234A466946FFF7CA
:102F20003DFDF2E772746F735C74696D6572732EA8
:102F30006300000094000020582F000800000020CB
:102F4000DC000000640B000834300008DC000020C6
:102F50005C390000740B0008000000000000000055
:102F60000000000000000000000000000000000061
:102F7000000000000000030406080C1018203000B8
:102F8000000000010203040102030406070809000F
:102F90000048E801030406080C1018203000000067
:102FA00000000000000102030406070809000000F9
:102FB0000000000000000000000000000000000011
:102FC0000000000000000000000000000000000001
:102FD00000000000000000000000000000000000F1
:102FE00000000000000000000000000000000000E1
:102FF00000000000000000000000000000000000D1
:1030000000000000AAAAAAAA000000000000000018
:1030100000000000000000000000000000000000B0
:1030200000000000000000000000000000000000A0
:04303000000000009C
:04000005080000F5FA
:00000001FF
