:020000040800F2
:10000000283A0020A10100086B030008F302000851
:10001000690300085D020008C5090008000000002F
:1000200000000000000000000000000009010008BE
:100030005F020008000000004D010008C91F000811
:10004000BB010008BB010008BB010008BB010008A0
:10005000BB010008BB010008BB010008BB01000890
:10006000BB010008BB010008BB010008BB01000880
:10007000BB010008BB010008BB010008BB01000870
:10008000BB010008BB010008BB010008BB01000860
:10009000BB010008BB010008BB010008BB01000850
:1000A000BB010008BB010008BB010008BB01000840
:1000B000BB010008BB010008BB010008BB01000830
:1000C000BB010008BB010008BB010008BB01000820
:1000D000BB010008BB010008BB010008BB01000810
:1000E000BB010008BB010008BB010008BB01000800
:1000F000BB010008DFF80CD000F09EF80048004774
:100100000D0D0008283A0020224B19680868B0E855
:10011000F00F80F30988BFF36F8F4FF0000080F37A
:1001200011884EF00D0E7047000000000648006870
:10013000006880F3088862B661B6BFF34F8FBFF3E3
:100140006F8F00DF00BF00BF08ED00E0EFF3098014
:10015000BFF36F8F0F4B1A6820E9F00F106008B5DE
:100160004FF0500080F31188BFF34F8FBFF36F8FB4
:1001700001F0A8FE4FF0000080F31188BDE80840B0
:1001800019680868B0E8F00F80F30988BFF36F8F33
:10019000704700BF48000020EFF305807047000063
:1001A0000648804706480047FEE7FEE7FEE7FEE711
:1001B000FEE7FEE7FEE7FEE7FEE7FEE7350800089C
:1001C000F500000840EA01039B0703D009E008C9D5
:1001D000121F08C0042AFAD203E011F8013B00F80C
:1001E000013B521EF9D27047D2B201E000F8012B58
:1001F000491EFBD270470022F6E710B513460A46A7
:1002000004461946FFF7F0FF204610BD30B50B46F7
:10021000014600202022012409E021FA02F59D4236
:1002200005D303FA02F5491B04FA02F52844151E0A
:10023000A2F10102F1DC30BD064C074D06E0E0689A
:1002400040F0010394E8070098471034AC42F6D31D
:10025000FFF754FF4429000864290008FEE77047AF
:10026000F0B5002301244FF0030E00BF0D6804FA1F
:1002700003F21540954222D106685D000EFA05FC96
:100280000F7926EA0C06AF40374307600E79012E3E
:1002900001D0022E0CD186684F7926EA0C06AF40B9
:1002A00037438760868896438A799A4032438280B2
:1002B000C668CA7926EA0C06AA403243C2605B1CB3
:1002C000102BD3D3F0BD4B07DB0E9A40C90810B5F5
:1002D00000EB8100016A0F249C40A1430162016A86
:1002E0001143016210BD41837047828A4A40828275
:1002F0007047FEE71CB52020009003208DF8040015
:100300000020064C8DF8070069462046FFF7A8FF3D
:1003100020212046FFF7E7FF1CBD0000000402403B
:100320001CB50121022000F083F82020009001205C
:100330008DF8040000208DF8060003218DF80510CB
:10034000054C8DF8070069462046FFF789FF2021FC
:100350002046FFF7C8FF1CBD0004024020210148D1
:10036000FFF7C3BF00040240FEE77047024908439D
:1003700002490860704700000000FA050CED00E03B
:1003800010B500F057FA00F02DF94FF4E13000F00D
:100390001BFBFFF7C5FFBDE8104001A000F05EBBEE
:1003A0000A0D706F73742073746F702B2B2B2B2BB3
:1003B0002B2B2B2B2B2B2B2B2B00000010B505A050
:1003C00000F04CFBFFF796FF0121BDE81040084606
:1003D00000F00EB80A0D7072652073746F702D2DC9
:1003E0002D2D2D2D2D2D2D2D2D2D2D2D20000000D1
:1003F0000A4B1A6822F0030202431A600848026896
:1004000042F004020260012905D020BF016821F0FA
:1004100004010160704730BFF8E700000070004041
:1004200010ED00E0014908627047000000000E4234
:10043000044A0029116801D0014300E081431160A2
:10044000704700001C380240044A0029116801D09E
:10045000014300E0814311607047000024380240EE
:10046000044A0029116801D0014300E08143116072
:100470007047000018380240044A0029116801D072
:10048000014300E0814311607047000020380240C2
:10049000044A0029116801D0014300E08143116042
:1004A000704700001438024030B5254A1168A2F1A7
:1004B000040411F00C034FF4004105D0042B09D0C3
:1004C000082B09D00C2B09D02368C3F342335B1CE3
:1004D000994018E01B4916E01B4914E011681368A5
:1004E00001F47011194C03F4400304EB91410978B5
:1004F000012404EB9353146814F4803F1DD0124C74
:100500006143B1FBF3F1016011680F2303EA11119C
:100510000E4B09335C5C0168E140416014680725BB
:1005200005EA14241C5D21FA04F48460126805EACB
:10053000D2229A5CD140C16030BD024CE0E700009D
:10054000083802400024F40000127A000C00002059
:10055000014600204A09012A09D0064A126801F022
:100560001F0101238B40134200D001207047014A34
:10057000343AF3E734380240024900220A70087026
:10058000704700003538024001490860704700009C
:10059000D8064742C0F30141032907D1094A11682F
:1005A00021F0C04300F0C0411943116005493431C6
:1005B0000A6822F440320A600A6800F440300243BC
:1005C0000A60704700380240C0F3100040F080001D
:1005D000C1430348026802F0800211430160704782
:1005E0000C28004030B585B0002401210494080790
:1005F0000394FFF729FF0120FFF714FF002000F00C
:100600007FF840F60A25A84224D00120FFF7B4FF66
:100610004920FFF79DFF0028FAD04FF48030FFF704
:10062000B9FFFF2003907F2004900120FFF7ACFF6B
:1006300000F070F8049801900398029000946846C6
:1006400000F036F82946002000F088F800F062F843
:1006500005B030BD00F05EF84FF48070FFF7B4FFD6
:10066000F6E7000008B5002000900C480168490634
:1006700012D44FF0FF31016043140168009A01F079
:100680004001521C00929A4201D00029F5D0006826
:10069000400601D4002008BD012008BD0C28004000
:1006A0000248016821F08001016070470C28004079
:1006B00070B5124D04460026CA20286053202860D9
:1006C000FFF7D0FFA8B10D481C38016821F04001A8
:1006D000016001682268114301600848A16814386C
:1006E00001600168A28841EA02410160FFF7D8FF7A
:1006F0000126FF202860304670BD000024280040FD
:1007000008B5034901EB80000090006808BD0000B7
:100710005028004018B500200F490090CA200860FA
:10072000532008600C481838026822F0A0020260CA
:10073000C4130268009B02F020025B1C0093A342DA
:1007400001D0002AF5D00068800601D5012000E024
:100750000020FF220A6018BD2428004008B5034A83
:1007600002EB80000090016008BD000050280040AE
:100770000CB500202C49019000900A6842F48032A8
:100780000A604FF4A0430A6802F400320092019A12
:10079000521C0192009A12B9019A9A42F3D10A6846
:1007A00092033FD5012000902048026842F00402E5
:1007B0000260026842F002020260026842F0010236
:1007C000026019482430026842F080520260C2146C
:1007D000174802604268D206FCD413480830026809
:1007E00002600268026002680260026822F47D0210
:1007F0000260026842F4110202600A6842F08072EC
:100800000A600A689201FCD5016821F003010160C9
:10081000016841F0030101600168C1F3810103290E
:10082000FAD10CBD00900CBD00380240003C0240E3
:1008300000700040104810B5016841F480710160FB
:100840000D4908310A680D4B1A400A6002680C4BCA
:100850001A400260026822F480220260086820F4D4
:100860007D000860091D00200860FFF781FF054931
:100870004FF00060086010BD003802400CC0FF88D7
:10088000FEFFFEEE08ED00E0C9430180704700293D
:10089000818902D041F4005101E021F400518181AD
:1008A00070470000174910B588420AD101218C0316
:1008B0002046FFF7EDFD2046BDE810400021FFF780
:1008C000E7BD1149884202D101214C0410E00F49D3
:1008D000884202D101218C040AE00D49884202D1EC
:1008E0000121CC0404E00B4988420AD101210C0506
:1008F0002046FFF7B5FD2046BDE810400021FFF778
:10090000AFBD10BD00380140004400400048004029
:10091000004C0040005000407FB50446008A0D4660
:1009200020F44051E88808432082A08941F20C61FC
:100930008843A9882A8911436A8902431143A18106
:10094000A08A20F44071A8890843A0826846FFF776
:10095000ABFD1948844201D1039800E00298A189B7
:10096000090400EBC00101EB0010296801D5490022
:1009700000E08900B0FBF1F06422B0FBF2F1090164
:100980000B096FF018056B4300EB8300A3891D046E
:100990004FF0320306D503EBC000B0FBF2F000F0DD
:1009A000070005E003EB0010B0FBF2F000F00F00D1
:1009B000084320817FBD000000380140C1F30801D9
:1009C00081807047FEE7000070B50446012186B0C3
:1009D0000846FFF72DFD01218803FFF74DFD1D4D52
:1009E0002846FFF75FFF00940024ADF808400C2074
:1009F000194EADF80440ADF80A00ADF80640ADF868
:100A00000C40072209213046FFF75DFC07220A212E
:100A10003046FFF758FC4FF4C060049002208DF878
:100A2000140003208DF815008DF816408DF817403E
:100A300004A93046FFF714FC69462846FFF76CFF0F
:100A400001212846FFF723FF40212846FFF71CFF1E
:100A500006B070BD00380140000002400FB4054BE5
:100A600010B503A9044A029800F018F810BC5DF80C
:100A700014FB0000850C0008C800002002E008C834
:100A8000121F08C1002AFAD170477047002001E008
:100A900001C1121F002AFBD1704700002DE9FF4F52
:100AA0008BB09A460F460546002606E025280BD057
:100AB00052460D9990476D1C761C28780028F5D178
:100AC0000FB03046BDE8F08F0024A04601226049F7
:100AD00000E0044315F8013F203B02FA03F008420E
:100AE000F7D128782E2817D115F8010F44F0040407
:100AF0002A280ED06FF02F022878A0F130010929A2
:100B00000AD808EB880102EB410100EB01086D1CDB
:100B1000F2E757F8048B6D1C287869283ED006DC74
:100B20000028CDD063280BD0642804D136E0732888
:100B300010D075284BD052460D999047761C85E011
:100B400017F8040B8DF8000000208DF80100E9462D
:100B5000012003E057F8049B4FF0FF3061074FF08E
:100B6000000401D40AE0641C44450DDA8442FADB37
:100B700019F804100029F6D106E0641C8442FCDB5D
:100B800019F804100029F8D1264404E019F8010BE3
:100B900052460D999047641EF8D257E001CF4FF0AE
:100BA0000A0B002802DA40422D2102E0210504D57B
:100BB0002B218DF82410012103E0E10705D020212D
:100BC000F7E70DF1200908910CE00021F9E701CFCA
:100BD0004FF00A0BF9E75946FFF718FB01F1300215
:100BE00009F8012D0028F6D1ADEB090000F1200B2A
:100BF000600701D44FF00108D84502DDA8EB0B00D7
:100C000000E000208046002406E009A85246005D6E
:100C10000D999047641C761C08988442F5DB04E02B
:100C2000302052460D999047761CB8F10001A8F18A
:100C30000108F5DC05E019F8010B52460D999047C3
:100C4000761CBBF10001ABF1010BF4DC6D1C34E749
:100C50000928010009490120096809B100207047ED
:100C60000749CA69002AF9D1044A896828321268FA
:100C7000491E8A42F3D10220704700009C010020E7
:100C80004800002070B5054C0546C1B22046FFF76C
:100C900095FE20880006FCD5284670BD003801402E
:100CA0001CB510490120CDE90001002380220EA1CE
:100CB0000F4801F00DFC0B490520091DCDE900018D
:100CC000002380220BA10D4801F002FC05490320FE
:100CD0000831CDE900010023802209A10A4801F072
:100CE000F7FB1CBD000000207461736B3100000035
:100CF000591600087461736B32000000B5160008C5
:100D00007461736B330000005117000800F092FC0F
:100D1000FFF7C6FF02A0FFF7A1FE01F071F8FEE7A2
:100D200073746D33324C31787820696E6974206F3A
:100D30006B2E000010B510B104461CB107E0054849
:100D40000468FAE704A140F68C0000F071FD04F19C
:100D5000340010BD4800002072746F735C746173BE
:100D60006B732E63000000002DE9F041184C0F4614
:100D70000546E6682068001D00F01AFD38B92068B5
:100D800090F82C1001208840216981432161681C62
:100D900007D137B12168BDE8F0410E48091D00F0C8
:100DA0007CBD20683544B5424560216805D2A06B02
:100DB000BDE8F041091D00F058BD606B091D00F051
:100DC00054FDA06A854200D2A562BDE8F081000012
:100DD00048000020C40100202DE9F041054600F044
:100DE00069FD2E4CA068401CA06020682C4F10B1FB
:100DF000606940B32DE02560A068012829D1002654
:100E000006EB860007EB800000F021FD761C062E25
:100E1000F6D32348783000F01AFD21488C3000F0DA
:100E200016FD1F48A03000F012FD1D48B43000F040
:100E30000EFD1B48C83000F00AFD19487830606389
:100E40001430A06305E02068E96AC06A884200D8CF
:100E50002560606A401C60626864E96A012022695A
:100E600088401043206101EB810007EB8000291DC1
:100E700000F013FD00F046FD606900280CD02068EA
:100E8000E96AC06A884207D206494FF0805008607C
:100E9000BFF34F8FBFF36F8FBDE8F0814800002094
:100EA000FC00002004ED00E010B500F003FD0E4C46
:100EB0002068A0B90D4800F0CAFC0C48143000F0BE
:100EC000C6FC0A48E06014302061002210210A208C
:100ED00001F090F8206010B105A100F033FEBDE8EC
:100EE000104000F00FBD000084000020D801002059
:100EF000546D72510000000070B5114E114C17E096
:100F000000F0D8FF3068B8B101F022FC00F0D2FC4C
:100F1000F068C568281D00F04BFCA068401EA0606A
:100F20006068401E606000F0EDFC284600F055F857
:100F300060680028E4D170BD01F00AFCF8E7000009
:100F4000B00100204800002030B4026C0B46002A9B
:100F50000BD0C1681144C1604468A14201D301684B
:100F6000C16030BC1846FFF72DB930BC70472DE981
:100F7000F041856B174604460026026C82B1C7B16A
:100F8000E068FFF71FF9E168206C091AE160226848
:100F9000914202D26168081AE060022F16D017E071
:100FA0002068A8B9606801F041FB06460020606037
:100FB0000EE0A068FFF706F9216CA0680844A06065
:100FC0006168884204D32068A06001E005B16D1E0D
:100FD0006D1CA5633046BDE8F08110B50446006B7A
:100FE00000F0AEFC2046BDE8104000F0A9BC0000B7
:100FF0000A4800210269012A00D901210268D26A47
:101000000AB100207047064A1268012AF9D800295F
:10101000F7D1816AC068081A7047000048000020B4
:10102000FC00002010484FF42051420706D0C01D9C
:101030000D4920F00700411AC1F520510B4A002349
:101040000144C2E900030839103A21F00701116098
:101050004B600B600B1AC0E9001393604FF0004027
:101060005360D0607047000028020020C0000020BC
:101070000F4C40F68C4500BFFFF73EFF00F0B8FB79
:10108000FFF7B6FF0528F7D300F014FFA06AE16868
:10109000884203D207A1284600F0CAFBFFF7A8FF49
:1010A000052801D300F0AAFC01F052FBE4E70000A0
:1010B0004800002072746F735C7461736B732E63ED
:1010C000000000002DE9F0470E46DDE909841746CF
:1010D000824691009946089DA522206BFFF784F86F
:1010E0006FF00301206B01EB8701084420F0070734
:1010F000780704D0194940F22B3000F099FB00200A
:101100002218315C82F83410315C11B1401C102877
:10111000F6D3002684F84360062D00D30525E5624A
:10112000C4E91356201D00F09DFB04F1180000F0E7
:1011300099FB2461C5F106006462A061666584F8CC
:1011400058604A465146384600F062FA2060B8F1CD
:10115000000F01D0C8F80040BDE8F087EC1D000882
:1011600030B5114900E011460A688242FBD34B6852
:101170005C18844203D140681844486008464368BC
:101180001C18944209D1084C103C2468A24209D092
:1011900052681A4442600A6812680260814200D0B4
:1011A000086030BD0460F9E7C000002070B500247D
:1011B00041600B4D0061914206D8D11A826991427B
:1011C00006D2011D286907E09A4203D2994201D351
:1011D000012403E0011DE86800F047FB204670BDD4
:1011E0008400002010B5044600F064FBA06B28B119
:1011F0005FF0000400F086FB204610BD0124F9E7F3
:1012000070B588B02E4E50E00498002806DADDE96B
:101210000601059A90470498002846DB069C606901
:1012200010B1201D00F0C4FA02A800F0BDF8054678
:1012300004980A2839D2DFE800F00505053825357D
:10124000050538250598A169034601442A4620462C
:10125000FFF7ACFF28B3616A20468847E0690128A0
:1012600023D1002000900598A16900234218194657
:10127000204601F02DFBA0B912A140F2213000F070
:10128000D7FA12E00598A06120B90EA14FF44E7074
:1012900000F0CEFAA0692B4641191A462046FFF706
:1012A00085FF02E0204600F04BFB00231A4604A90C
:1012B000306800F0CDFE0028A6D108B070BD000057
:1012C0008400002072746F735C74696D6572732E94
:1012D000630000002DE9FC410F46054600F0EAFDE1
:1012E00001A800F061F80446019818B101F030FA45
:1012F000BDE8FC81214EAFB130690068D0B3002752
:10130000291B3A46306800F031FC01F021FA002830
:10131000EED11B494FF080500860BFF34F8FBFF3F1
:101320006F8FE5E7A542EBD801F012FAF068274687
:10133000C068C468201D00F03BFAE069012815D19F
:10134000A0692B4641193A462046FFF72FFF68B1A6
:1013500000200346014600902A46204601F0B8FAD4
:1013600020B908494FF4027000F062FA616A204621
:101370008847BDE7FFE70127C2E70000840000209F
:1013800004ED00E0682800080648416B096829B1AF
:10139000416BC968C9684968816270474FF0FF3185
:1013A000FAE700004800002070B5054601F0CAF8D1
:1013B000064E0446B068844203D200F009F80120CA
:1013C00000E0002028602046B46070BD840000204A
:1013D000F8B5174D24E0C068C4680668201D00F009
:1013E000E7F9616A20468847E069012818D1A069B9
:1013F0003044B04206D924616060211DE86800F0E5
:1014000034FA0DE0002003460146009032462046A3
:1014100001F05EFA20B9074940F2923000F008FA74
:10142000E86801680029D6D12969C5E90310F8BD2B
:10143000840000206828000807484068401C03D04A
:1014400006A1F42000F0F4F9502080F31188BFF3D6
:101450004F8FBFF36F8FFEE79800002072746F7399
:101460005C706F727461626C655C706F72742E6315
:1014700000000000074CE068016841B1C06800212D
:10148000D0F80000FFF726FFFFF7BAFEF3E70121CF
:101490000020F7E7840000202DE9F041044600F029
:1014A00009FA94F9455004F1240609E0606A48B14C
:1014B000304601F009F908B100F0FEFB6D1E6DB277
:1014C000002DF3DC4FF0FF3684F8456000F01AFA87
:1014D00000F0F0F994F9445004F1100709E0206994
:1014E00048B1384601F0F0F808B100F0E5FB6D1E98
:1014F0006DB2002DF3DC84F84460BDE8F04100F0EB
:1015000001BA00002DE9F0410546002700F0D2FCA9
:10151000304E306808B9FFF785FDF06805424CD1C0
:10152000002D4AD0083568070AD005F00700C0F141
:1015300008000544680703D027A1BF2000F078F910
:10154000DDB37068854238D82248103001460C68F7
:1015500001E020460C466168A94202D221680029B8
:10156000F7D13168B0468C4227D007682168016006
:1015700060680837401B10280DD96619700703D022
:1015800015A1EC2000F054F96068401B70603046F3
:101590006560FFF7E5FD6268D8F804104046891AD7
:1015A000C8F80410D8F80830994200D28160D8F801
:1015B0000C0002430020C4E9000201F0C9F87807DA
:1015C00004D005A14FF4967000F032F93846BDE81A
:1015D000F0810000B000002072746F735C706F7255
:1015E0007461626C655C4D656D4D616E675C6865CC
:1015F00061705F342E6300000449086818B1086800
:10160000026D521C02650868704700004800002007
:1016100010B5031F4FF080741C601B1F21F00101E7
:101620001960191F024B0B60143940380A6010BD55
:101630003914000810B5FFF7FDF84FF44070FEF7BD
:1016400095FE4FF4E130FFF7BFF9FEF769FEBDE804
:101650001040FEF7C7BF000001240A4D4FF4FA679F
:101660002868FFF767FB0646286800F0B3F80346D2
:101670002246314604A0FFF7F1F93846641C00F019
:1016800097FAEDE7000000200A0D7468697320697D
:10169000732025732072756E74696D653A20256418
:1016A0002E206D79207072696F7269747920697368
:1016B0002025640001260025124C2F4640F2DC59FB
:1016C000606800F087F880466068FFF733FB0146EA
:1016D000434632460CA0FFF7C1F9FEF73FFE4846ED
:1016E00000F066FA761C032D09DD002FE8D111A069
:1016F000FFF7B4F9A06800F085FA0127E0E76D1C58
:10170000DEE70000000000200A0D7468697320699C
:10171000732025732072756E74696D653A20256497
:101720002E206D79207072696F72697479206973E7
:10173000202564000A0D7461736B3320686176653F
:10174000206265656E2064656C65746564000000E8
:1017500001240A4D4FF47A77A86800F03BF806465A
:10176000A868FFF7E7FA01463346224604A0FFF7D0
:1017700075F93846641C00F01BFAEDE70000002004
:101780000A0D746869732069732025732072756E61
:1017900074696D653A2025642E206D792070726918
:1017A0006F726974792069732025642C0000000031
:1017B000D0E9013201699A60D0E901235A604A6890
:1017C000824201D182684A60002202610868401E9C
:1017D0000860704710B5044600F06CF80CB9034877
:1017E0000468E46A00F08EF8204610BD480000202E
:1017F0007047502080F31188BFF34F8FBFF36F8F76
:10180000FEE7000010B50020084A012302EBC001EA
:101810000C7934B90C6824B10C68641E0C6000D1DA
:101820000B71401CC0B20628F0D310BDCC000020C4
:1018300008B50020009000F03DF801E000BF00BFB7
:1018400000980028FAD0BDE8084000F05BB800F12D
:1018500008014FF0FF32C0E90112C16001610021AF
:101860000160704700210161704730B50B685A1C58
:1018700002D000F1080202E0026904E02246546846
:1018800025689D42FAD953684B6099608A6051601F
:1018900008610168491C016030BD42684A60936874
:1018A0008B6093685960916008610168491C016010
:1018B00070470000502080F31188BFF34F8FBFF3B3
:1018C0006F8F08494868401C4860012809D10648C4
:1018D000006810F0FF0F04D004A14FF4BD70FFF7B3
:1018E000A7BF70479800002004ED00E072746F738A
:1018F0005C706F727461626C655C706F72742E6381
:101900000000000010B5074C606820B906A140F245
:101910008110FFF78DFF6068401E606001D180F389
:10192000118810BD9800002072746F735C706F7224
:101930007461626C655C706F72742E6300000000ED
:1019400070B5002828D0154DA0F108046068E9683A
:10195000084204D112A14FF4A070FFF769FF20687C
:1019600020B10FA140F24110FFF762FF6168E86803
:10197000014211D02268002A0ED18143616000F03B
:1019800099FA60686968084468602046FFF7E8FBD8
:10199000BDE8704000F0DCBE70BD0000B00000206B
:1019A00072746F735C706F727461626C655C4D65AC
:1019B0006D4D616E675C686561705F342E63000019
:1019C0000C486FF07F430C4902684FF47A70B2FB09
:1019D000F0F0B3FBF0F3B2FBF2F2C1E902032D2306
:1019E000B3FBF2F20A614FF0E021401E486107208C
:1019F0000861704728000020980000202DE9F04180
:101A0000364E0546F068854200D905464FF0E02481
:101A1000206920F001002061A169B268681E02FB04
:101A200000173069874200D93F1A72B6BFF34F8F53
:101A3000BFF36F8FFFF70EF968B167614FF00008D1
:101A4000C4F81880206940F001002061FFF702F916
:101A500002280CD011E0A0696061206940F001000B
:101A60002061B068401E606162B6BDE8F081284622
:101A7000FEF7A4FC2846FEF783FC206920F0010154
:101A8000216162B6C0030DD5A069B168381A081A81
:101A90003269401E904201D3884200D9481E6061DD
:101AA0006D1E09E0B168A0694D43281AB0FBF1F53D
:101AB0006A1C4A43101A6061C4F81880FFF7FAFEE6
:101AC000206940F001002061284600F0D7F9B06895
:101AD000401E6061BDE8F041FFF714BF9800002090
:101AE00010B5FEF759FB0F4C10280BD300F1E02086
:101AF00090F8F0032178884204D20BA140F2B12083
:101B0000FFF796FE0E480068616900F4E0608842C5
:101B100006D9BDE8104004A140F2C120FFF788BEFD
:101B200010BD00009800002072746F735C706F72BB
:101B30007461626C655C706F72742E6300000000EB
:101B40000CED00E010B5084B002200BF53F8324006
:101B50001CB1521C052AF9D310BD43F8321003EB17
:101B6000C201486010BD00000002002070B515469B
:101B70000E460446FFF79EFE94F944100020491CCF
:101B800001D184F8440094F94510491C01D184F82E
:101B90004500FFF7B7FEA06B28B92A46314604F18D
:101BA000240000F0AFF82046BDE87040FFF774BC99
:101BB00010B5040011D00D48006B20B10CA140F20B
:101BC000CF40FFF735FE00F075F900212046FFF702
:101BD000CBF800F0BDFD002807D109494FF0805037
:101BE0000860BFF34F8FBFF36F8F10BD4800002018
:101BF00072746F735C7461736B732E63000000000A
:101C000004ED00E070B50546FFF754FE234C05B91E
:101C10002568281DFFF7CCFD58B9E86A204A00EB7B
:101C2000800152F8211021B90121814020698843A7
:101C30002061A86A18B105F11800FFF7B9FD606AC4
:101C4000401C60622068854208D11548291DB430C7
:101C5000FFF723FE6068401C606007E0A068401E3C
:101C6000A0602846FFF7B9F9FFF78EFBFFF74AFEA1
:101C70006069002811D0206885420ED1206B20B108
:101C800008A140F26540FFF7D3FD0A494FF08050AC
:101C90000860BFF34F8FBFF36F8F70BD4800002007
:101CA000FC00002072746F735C7461736B732E633D
:101CB0000000000004ED00E001490120C861704708
:101CC0004800002070B50D46040004D108A140F67C
:101CD0000630FFF7ADFD0A48016820461831FFF7CE
:101CE000C4FD2846BDE870400121FFF73DB8000063
:101CF00072746F735C7461736B732E630000000009
:101D00004800002070B514460D46060004D10AA113
:101D100040F63130FFF78CFD0B4801683046183132
:101D2000FFF7BBFD0CB14FF0FF3521462846BDE85B
:101D30007040FFF719B8000072746F735C746173C0
:101D40006B732E63000000004800002070B5040093
:101D500039D01D4DE06A2968C96A884233D2A0692A
:101D6000002804DB2868C06AC0F10600A061E16AAF
:101D7000164E01EB8101606906EB810188421FD19B
:101D8000201DFFF715FD012150B9E06A00EB80022C
:101D900056F8222022B92A6901FA00F082432A610A
:101DA0002868C06AE0622A6981401143296100EB1A
:101DB000800006EB8000211DBDE87040FFF76DBD7F
:101DC0002868C06AE06270BD48000020FC00002066
:101DD00010B5040004D105A140F6C130FFF728FD7D
:101DE0000648016A2160C068606010BD72746F733C
:101DF0005C7461736B732E63000000004800002068
:101E00001CB516480024CDE900402346402214A109
:101E1000154800F05DFB012803D100F02DFD0128DD
:101E200008D0401C19D1BDE81C4010A140F28470BC
:101E3000FFF7FEBC502080F31188BFF34F8FBFF334
:101E40006F8F06484FF0FF312C38816201214161CC
:101E5000C460BDE81C4000F07DB81CBD74000020CB
:101E600049444C45000000007110000872746F7303
:101E70005C7461736B732E630000000070B5084CD6
:101E80000546E068A16A2844884204D905A140F6C5
:101E90007110FFF7CDFCE0682844E06070BD0000E1
:101EA0004800002072746F735C7461736B732E63EF
:101EB000000000000248016B491C016370470000EC
:101EC0004800002070B51D4C206B10B10120E0616E
:101ED00070BD0020E06120684FF0A531006B026802
:101EE0008A4208D142688A4205D182688A4202D178
:101EF000C068884204D0216820683431FFF779FC3B
:101F000020690F4DB0FA80F0C0F11F0000EB800691
:101F100055F8260020B90BA140F6F620FFF788FC03
:101F200005EB860000F10802416849684160914272
:101F300001D149684160C868206070BD4800002038
:101F4000FC00002072746F735C7461736B732E639A
:101F5000000000001CB5194908780190FF200870A6
:101F600008788DF800009DF80000154C00F0500036
:101F700020700720606105E09DF8002052008DF878
:101F80000020401E9DF800201206F5D4000200F447
:101F9000E0606061019808700A48016841F47001CE
:101FA0000160016841F070410160FFF709FD002008
:101FB0006060FEF7BBF800201CBD000000E400E0FC
:101FC0009800002020ED00E010B5502080F311882B
:101FD000BFF34F8FBFF36F8F00F0BAFA18B1044907
:101FE0004FF080500860002080F3118810BD000081
:101FF00004ED00E02DE9F04117460E46050004D13E
:102000000FA14FF4C470FFF713FCAEB105FB06F04F
:102010005030FFF777FA04000CD004F150006EB195
:102020002060C4E90F562046012100F0C7F8204681
:1020300084F84C70BDE8F0810020E9E72460F0E707
:1020400072746F735C71756575652E6300000000B6
:102050002DE9FF4F002683B09B468A46040004D139
:1020600051A140F2DC40FFF7E3FBBAF1000F06D1CB
:10207000206C20B14CA140F2DD40FFF7D9FB00F00D
:1020800053FA30B9059820B147A14FF49C60FFF78F
:10209000CFFBDFF824814FF000094FF0805700BFDD
:1020A000FFF708FCA56B4DB351462046E668FEF7E6
:1020B0004BFFBBF1000F14D0E660606A58B104F129
:1020C000240000BF00F000FB28B1C8F80070BFF387
:1020D0004F8FBFF36F8FFFF715FC012007B0BDE8EE
:1020E000F08F6D1EA563206810B9FFF785FA606058
:1020F00020690028EFD004F11000E3E7059808B14B
:102100001EB106E0FFF7FEFB27E06846FFF760FE22
:102110000126FFF7F7FBFFF7CDFEFFF7CBFB94F9A6
:102120004400401C01D184F8449094F94500401CBF
:1021300001D184F84590FFF7E5FB05A9684600F05A
:102140008FF9002820460AD0FFF7A6F900F000FB1F
:102150002046FFF747F80028A2D00020BEE7FFF78F
:1021600041F8D8B1206830B9FFF7A4FB6068FFF7E9
:10217000EDFDFFF7C7FB04F124000599FFF7A2FD71
:102180002046FFF789F900F0E3FA002888D1C8F863
:102190000070BFF34F8FBFF36F8F81E72046FFF7CB
:1021A0007BF900F0D5FA7BE772746F735C7175652B
:1021B00075652E630000000004ED00E070B50D466B
:1021C000040004D11DA140F21B10FFF731FBFFF703
:1021D00071FBD4E90F20216802FB0011616000212E
:1021E000A1632168A1600A46D4E90F01401E00FBEB
:1021F0000121E16021464FF0FF3001F8440F4870A3
:1022000004F1100055B1FFF722FB04F12400FFF7A1
:102210001EFB00BFFFF776FB012070BD216900297E
:10222000F8D000F051FA0028F4D008494FF080505F
:102230000860BFF34F8FBFF36F8FEBE772746F735C
:102240005C71756575652E630000000004ED00E0AB
:102250002DE9FF4782B01D468A464FF00008040072
:1022600004D14CA140F2D920FFF7E2FABAF1000FF5
:1022700006D1206C20B147A140F2DA20FFF7D8FA4E
:10228000022D07D1E06B012804D042A140F2DB20EF
:10229000FFF7CEFA00F048F930B9049820B13DA11B
:1022A00040F2DE20FFF7C4FA3E4F4FF000094FF036
:1022B000805600BFFFF7FEFAA06BE16B884207D3A0
:1022C000022D05D00498D0B1B8F1000F1AD01EE04D
:1022D0002A4651462046FEF74AFE616A19B104F1CA
:1022E000240000F0F1F920B13E60BFF34F8FBFF33F
:1022F0006F8FFFF707FB012006B0BDE8F087FFF7FF
:1023000001FB22E06846FFF763FD4FF00108FFF78D
:10231000F9FAFFF7CFFDFFF7CDFA94F94400401C1E
:1023200001D184F8449094F94500401C01D184F80F
:102330004590FFF7E7FA04A9684600F091F830B13C
:102340002046FFF7A9F800F003FA0020D4E7FFF7D2
:10235000B1FAA06BE16B884213D1FFF7D3FA04F115
:1023600010000499FFF7AEFC2046FFF795F800F047
:10237000EFF900289ED13E60BFF34F8FBFF36F8F00
:1023800098E7FFF7BFFA2046FFF786F800F0E0F97C
:1023900090E7000072746F735C71756575652E63EC
:1023A0000000000004ED00E02DE9F0471F469046D4
:1023B0008946040004D126A140F29F30FFF738FA85
:1023C000B9F1000F06D1206C20B121A14FF4687043
:1023D000FFF72EFA022F07D1E06B012804D01CA1D1
:1023E00040F2A130FFF724FAFFF77AFB5020EFF319
:1023F000118680F31188BFF34F8FBFF36F8FA06BEF
:10240000E16B884206D3022F04D0002086F31188A6
:10241000BDE8F08794F945503A4649462046FEF714
:10242000A6FD681C04D06D1C84F845500120EDE722
:10243000606A0028FAD004F1240000F045F9002871
:10244000F4D0B8F1000FF1D00121C8F80010EDE789
:1024500072746F735C71756575652E6300000000A2
:1024600070B50D46040004D114A140F6CB30FFF73F
:10247000DFF925B911A140F6CC30FFF7D9F9FFF704
:1024800019FA124AD1682868431C0FD02368126ACF
:10249000934202D062688A420AD96268891A8142EC
:1024A00006D2401A28602046FFF792FC002400E084
:1024B0000124FFF727FA204670BD000072746F7385
:1024C0005C7461736B732E63000000004800002091
:1024D0002DE9FF5F8346DDE90E87994616468A4659
:1024E0009000FFF70FF805001AD05C20FFF70AF8FC
:1024F000040012D025630021CDE90241CDE9008717
:102500004B46324651465846FEF7DCFD2046FEF764
:1025100063FC012004B0BDE8F09F2846FFF710FAE5
:102520004FF0FF30F6E700000548416919B1006B34
:1025300018B100207047012070470220704700004A
:10254000480000200148C068704700004800002093
:102550002DE9F0412F4C0027206B18B1A069401CD9
:10256000A0614FE0E668761CE66010D1606B006801
:1025700020B129A140F6D910FFF75AF9606BA16B81
:102580006163A063206A401C2062FEF7FDFEA06A22
:10259000DFF89480864209D3606B006890B1606B6D
:1025A000C068C568686886420FD2A0622068C06AA9
:1025B00000EB800158F82100012800D90127A0690B
:1025C00000B321E04FF0FF30EFE7281DFFF7F0F8F0
:1025D000A86A18B105F11800FFF7EAF8E86A0121C6
:1025E000226981401143216100EB800108EB8100E9
:1025F000291DFFF752F9E86A2168C96A8842CBD3DE
:102600000127C9E7FFF7FEF8E06900B10127384666
:10261000BDE8F0814800002072746F735C746173D0
:102620006B732E6300000000FC00002070B50400F6
:102630004FF000063AD01E4D2868844204D01DA1F8
:1026400040F6C760FFF7F4F8206D20B919A140F6F5
:10265000C960FFF7EDF8206D401E2065E26CE16A6D
:10266000914223D010BB201DFFF7A2F8154A01218B
:1026700050B9E06A00EB800352F8233023B92B698C
:1026800001FA00F083432B61E06CE062C0F10600C8
:10269000A061E06A2B6981401943296100EB800049
:1026A00002EB8000211DFFF7F8F80126304670BDCF
:1026B0004800002072746F735C7461736B732E63D7
:1026C00000000000FC0000202DE9F041C068C46853
:1026D00024B919A140F66130FFF7AAF804F11800F7
:1026E0000746FFF765F8184D286B012660B11748BB
:1026F000394600BFFFF7D1F8E06A2968C96A884205
:1027000013D90124EE6111E0201DFFF751F8E16AB1
:102710002A6906FA01F01043286101EB81000B4998
:10272000A03901EB8000211DE4E70024FEF72CFE18
:102730002046BDE8F081000072746F735C746173B1
:102740006B732E6300000000480000209C010020F5
:102750002DE9F0472B4C00252E46206B20B92AA1ED
:102760004FF4FD60FFF764F8FFF7A4F8206B401EFC
:102770002063206BE8BBA168274F0120C9B3A7F1F4
:10278000A00980463868E8B1F868C56805F1180006
:10279000FFF70EF8281DFFF70BF8E86A226908FA20
:1027A00000F11143216100EB800109EB8100291D3B
:1027B000FFF773F8E86A2168C96A8842E2D3C4F86F
:1027C0001C80DFE70DB1FEF7DFFDA56945B1474687
:1027D000FFF7BEFE00B1E7616D1EF9D10020A061D8
:1027E000E06930B10D49012630070860BFF34F8F13
:1027F00000E001E0BFF36F8FFFF784F83046BDE8DB
:10280000F08700004800002072746F735C7461737D
:102810006B732E63000000009C01002004ED00E0BB
:102820002DE9F0470746994616460D462C20DDF85F
:1028300020A0FEF767FE040013D0B8464F46D146ED
:1028400025B909A14FF4C670FEF7F2FFFEF72CFB85
:1028500004F11801C4F8008081E8E002201DFFF7B0
:1028600001F82046BDE8F08772746F735C74696D7F
:102870006572732E630000001CB50024FEF714FB84
:102880000B48006860B10A490520091DCDE9000127
:102890000023802207A10948FFF71AFE040004D193
:1028A00007A140F23310FEF7C3FF20461CBD000015
:1028B00084000020546D7220537663007514000864
:1028C00072746F735C74696D6572732E63000000BF
:1028D0002DE9FF479946DDF830A090460E460700E7
:1028E0004FF0000404D112A14FF4D370FEF7A0FF03
:1028F000134D286880B1CDE900680297062E11DAE1
:10290000FFF712FE02284FF0000309D000226946AB
:102910002868FFF79DFC044604B02046BDE8F08718
:102920005246F4E700234A466946FFF73DFDF2E7C9
:1029300072746F735C74696D6572732E630000004E
:10294000840000206429000800000020CC00000062
:102950007C0A0008302A0008CC0000205C39000006
:102960008C0A0008000000000000000000000000C9
:10297000030406080C1018203000000000010203B8
:102980000401020304060708090000000048E801EA
:10299000030406080C10182030000000000000009E
:1029A00000010203040607080900000000000000FF
:1029B0000000000000000000000000000000000017
:1029C0000000000000000000000000000000000007
:1029D00000000000000000000000000000000000F7
:1029E00000000000000000000000000000000000E7
:1029F00000000000000000000000000000000000D7
:102A0000AAAAAAAA0000000000000000000000001E
:102A100000000000000000000000000000000000B6
:102A200000000000000000000000000000000000A6
:04000005080000F5FA
:00000001FF
